:020000040800F2
:10000000B0080020F51E0008CD1E0008CF1E000815
:10001000D11E0008D31E0008D51E000800000000F5
:10002000000000000000000000000000D71E0008D3
:10003000D91E000800000000DB1E0008DD1E0008BD
:100040001D1F0008211F0008251F0008291F000888
:100050002D1F0008311F0008351F0008391F000838
:100060003D1F0008411F0008451F0008491F0008E8
:100070004D1F0008511F0008551F0008591F000898
:100080005D1F0008611F0008651F0008691F000848
:100090006D1F0008711F0008751F0008791F0008F8
:1000A0007D1F0008811F0008851F0008891F0008A8
:1000B0008D1F0008911F0008951F0008991F000858
:1000C0009D1F0008A11F0008A51F0008A91F000808
:1000D000AD1F0008B11F0008B51F0008B91F0008B8
:1000E000BD1F0008C11F0008C51F0008C91F000868
:1000F000CD1F0008D11F0008D51F0008D91F000818
:10010000DD1F0008E11F0008E51F0008E91F0008C7
:10011000ED1F0008F11F0008F51F0008F91F000877
:10012000FD1F000801200008052000080920000824
:100130000D200008112000081520000819200008D3
:100140001D20000821200008252000082920000883
:100150002D20000831200008352000083920000833
:100160003D200008412000084520000849200008E3
:100170004D20000851200008552000085920000893
:100180005D20000861200008652000086920000843
:100190006D200008712000087520000879200008F3
:1001A0007D200008812000088520000889200008A3
:1001B0008D20000891200008952000089920000853
:1001C0009D200008A12000087CB50400012600F055
:1001D000FBFB0500002C01D101205AE0206A4028D9
:1001E00094F84000012801D1022052E0012084F857
:1001F000400094F8410000280AD1002084F8400013
:10020000200000F0E0FB41F28831200000F0B4FA59
:100210002068006830F4F850A168491E50EA0120B7
:1002200021680860A06C00902B0000222021200093
:1002300000F0A4FA0100C9B2002926D121680A6899
:1002400014490A40616852EA0162E1680A43E169BF
:100250000A43216A0A4321680A6021684A680E49F4
:100260000A40216952EA014261690A43A1690A43CD
:1002700021684A602168096851F001012268116013
:1002800000216164012184F84110002184F84010AC
:10029000C0B276BD2FFFFF00FEF8E0FF10B50400EE
:1002A000002C01D101201AE094F84000012801D16E
:1002B000022014E0012084F8400020680068400813
:1002C000400021680860200000F084FB002060648A
:1002D000002084F84100002084F84000002010BD78
:1002E0002DE9F84304000D0016005FF0010800F04E
:1002F0006BFB0700A8690028E8690028286A002825
:1003000094F84000012801D102203DE0012084F84A
:10031000400094F8410001282FD1002060640220A1
:1003200084F8410000963B0000222021200000F0CC
:1003300025FA81464846C0B2002820D10022290073
:10034000200000F044FA686A002812D100963B00B1
:1003500001220221200000F011FA81464846C0B275
:1003600000280CD102202168C860012084F84100D7
:1003700005E0012084F8410001E05FF0020900205F
:1003800084F840004846C0B2BDE8F2832DE9F84346
:1003900005000C001600002700F016FB80462868B8
:1003A00010F1200995F84000012801D102205EE0FB
:1003B000012085F8400095F84100012850D1002027
:1003C0006864002C45D0122085F841002868006937
:1003D000401CE86228680069401CA8626C622868BA
:1003E000406930F0406029684861E86A002815D00B
:1003F0000096434601220421280000F0BFF90700BF
:100400003800C0B2002809D1686A411C69620078CE
:1004100089F80000E86A401EE862E6E73800C0B2EA
:10042000002812D10096434601220221280000F044
:10043000A5F907003800C0B2002806D102202968BB
:10044000C860280000F04CF90700012085F8410041
:1004500008E0686C50F0080068640120070001E0C3
:1004600002200700002085F840003800C0B2BDE837
:10047000F2832DE9FC4705000C001600002700F070
:10048000A3FA80462868D0F81890286810F1200A4E
:1004900095F84000012801D1022063E0012085F891
:1004A000400095F84100012855D100206864002CD7
:1004B0004AD0222085F8410028680069401CA863C2
:1004C00028680069401C68632C632868406930F024
:1004D000406050F08060296848612868C0F8189032
:1004E000A86B002815D0009643460122062128005B
:1004F00000F044F907003800C0B2002809D1286B89
:10050000411C29639AF800100170A86B401EA86373
:10051000E6E73800C0B2002812D100964346012217
:100520000221280000F02AF907003800C0B2002894
:1005300006D102202968C860280000F0D1F8070021
:10054000012085F8410008E0686C50F008006864FC
:100550000120070001E002200700002085F840008C
:100560003800C0B2BDE8F6872DE9FC4704000D0055
:1005700016001F005FF0010800F026FA8146A86906
:100580000028E8690028286A002894F8400001281B
:1005900001D102204CE0012084F8400094F8410091
:1005A00001283ED100206064422084F84100009779
:1005B0004B4600222021200000F0E0F88246504601
:1005C000C0B200282FD13068216888627068216825
:1005D0004862B0682168C8622068016831F440014F
:1005E0003069014351F4800120680160F068A8621D
:1005F0005FF000622900200000F0E9F800974B4608
:1006000001220821200000F0B9F882465046C0B20D
:10061000002808D108202168C860012084F8410022
:1006200001E05FF0020A002084F840005046C0B2AA
:10063000BDE8F6872DE9F84304000D0016005FF0D1
:10064000010800F0C1F90700A8690028E86900283E
:10065000286A002894F84000012801D102203DE0DA
:10066000012084F8400094F8410001282FD1002097
:100670006064822084F84100A06C00903B0000225E
:100680002021200000F07AF881464846C0B20028B8
:100690001FD12068016831F00801706801432068AB
:1006A0000160706808280BD1306821680863102049
:1006B0002168C8602068006850F4801021680860D4
:1006C0005FF040622900200000F081F801E05FF057
:1006D0000209002084F840004846C0B2BDE8F28319
:1006E0007CB50400002500F06FF9060094F8410085
:1006F00080073ED5002084F840002068006840074D
:1007000011D52068006830F0040021680860E06BB3
:1007100000F07EF905002800C0B2002803D0606C0C
:1007200050F0040060642068006850F00200216806
:100730000860A06C0090330001220221200000F02C
:100740001DF805002800C0B200280BD10220216846
:10075000C860A06C0090330000222021200000F02F
:100760000DF805002800C0B2002802D1012084F84D
:1007700041002800C0B276BD816470472DE9F04188
:1007800005000E0090461F00069C286880683042D5
:1007900001D0012000E000204146C0B2C9B2884229
:1007A00012D014F1010FF0D0002C04D000F00CF99D
:1007B000C01B8442E9D2042085F84100686C50F0E7
:1007C00001006864012000E00020BDE8F08110B461
:1007D0004B6A002B06D0B2F1406F03D08B6A5B1ED0
:1007E000046823618B69002B79D00B6A002B3ED003
:1007F0008B680468E361CB69002B20D0CC6A0B6B5B
:100800001C434B6B1C434B6A1C434B6954EA8344A7
:100810000B691C430B6A1C43CB681C43CB691C430C
:100820008B691C430B681C43144303685C61B2F181
:10083000406F00F0C6804B680468A361C1E0CC6AD9
:100840000B6B1C434B6B1C434B6A1C434B6954EAB8
:1008500083440B691C430B6A1C43CB691C438B69A3
:100860001C430B681C43144303685C61A9E0CB691B
:10087000002B1ED0CC6A0B6B1C434B6B1C434B6A8A
:100880001C434B6954EA83440B6A1C43CB681C43EA
:10089000CB691C438B691C430B681C4314430368DE
:1008A0005C61B2F1406F00F08C804B680468A3611A
:1008B00087E0CC6A0B6B1C434B6B1C434B6A1C439D
:1008C0004B6954EA83440B6A1C43CB691C438B6914
:1008D0001C430B681C43144303685C6171E00B6AA2
:1008E000002B39D08B680468E361CB69002B1DD0E5
:1008F000CC6A0B6B1C434B6B1C434B6A1C434B6910
:1009000054EA83440B691C430B6A1C43CB681C43A9
:10091000CB691C438B691C43144303685C61B2F1CF
:10092000406F4ED04B680468A3614AE0CC6A0B6B01
:100930001C434B6B1C434B6A1C434B6954EA834476
:100940000B691C430B6A1C43CB691C438B691C431A
:10095000144303685C6134E0CB69002B1BD0CC6A84
:100960000B6B1C434B6B1C434B6A1C434B6954EA97
:1009700083440B6A1C43CB681C43CB691C438B69C3
:100980001C43144303685C61B2F1406F19D04B689B
:100990000468A36115E04B6A002B12D0CC6A0B6B84
:1009A0001C434B6B1C434B6A1C434B6954EA834406
:1009B0000B6A1C43CB691C438B691C4314430368BB
:1009C0005C6110BC7047704701480068704700BF09
:1009D000AC000020704730B4002513E050F8042B21
:1009E000D30744BFA9F101039A18091F042942F84B
:1009F000045BFAD213468C0744BF15809B1CC907C1
:100A000048BF1D7050F8041B0029E7D130BC704767
:100A100070B50400A56DFFF7D7FF060094F8350008
:100A2000022806D080206065002084F83400012070
:100A30003BE02068006830F01600216808602068FC
:100A4000406930F0800021684861206C002802D1A4
:100A5000A06C002805D02068006830F008002168EC
:100A6000086020680068400840002168086020682D
:100A70000068C0070ED5FFF7A7FF801B0628F6D336
:100A800020206065002084F83400032084F83500BD
:100A900003200AE03F21E06D8140A960002084F836
:100AA0003400012084F83500002070BD2DE9FC41A0
:100AB00004000026002C01D10120D8E12078C007D5
:100AC0006DD5DFF89405016811F00C01042909D0F7
:100AD000006810F00C0008280ED1DFF880050068CF
:100AE000400209D5DFF86C050068800357D56068BF
:100AF000002854D10120BAE16068B0F5803F06D1EA
:100B0000DFF85005016851F48031016026E060682B
:100B100000280AD1DFF83C05016831F4803101601A
:100B2000016831F48021016018E06068B0F5A02F01
:100B30000AD1DFF82005016851F4802101600168C5
:100B400051F48031016009E0DFF80805016831F4F3
:100B500080310160016831F4802101606068002803
:100B60000ED0FFF731FF0500DFF8E80400688003CE
:100B700015D4FFF729FF401B6528F5D3032076E144
:100B8000FFF722FF0500DFF8CC040068800306D5DC
:100B9000FFF71AFF401B6528F5D3032067E1207893
:100BA000800752D5DFF8B004016811F00C0F09D0AE
:100BB000006810F00C00082816D1DFF8A0040068C7
:100BC000400211D4DFF88C040168890704D5E1687C
:100BD000012901D001204AE1016831F0F8012269C0
:100BE00051EAC201016030E0E06800281AD0DFF865
:100BF0006474386850F001003860FFF7E5FE0500C6
:100C00003868800706D4FFF7DFFE401B0328F7D3C0
:100C100003202CE1386830F0F800216950EAC10067
:100C2000386012E0DFF82C74386840084000386003
:100C3000FFF7CAFE05003868800706D5FFF7C4FE37
:100C4000401B0328F7D3032011E12078000728D5A3
:100C50006069002812D0DFF80874386850F001008D
:100C60003860FFF7B1FE05003868800719D4FFF738
:100C7000ABFE401B0328F7D30320F8E0DFF8E07356
:100C80003868400840003860FFF79EFE050038686D
:100C9000800706D5FFF798FE401B0328F7D30320F3
:100CA000E5E02078400740F18780DFF8C0733868BE
:100CB000C0000AD4386850F080503860386810F0AE
:100CC00080500090009801200600DFF8A483D8F837
:100CD0000000C00513D4D8F8000050F48070C8F8A4
:100CE0000000FFF771FE0500D8F80000C00506D42B
:100CF000FFF76AFE401B6528F6D30320B7E0A06823
:100D0000012806D1DFF86C03016851F00101016090
:100D100025E0A06800280AD1DFF8580301684908D7
:100D200049000160016831F00401016017E0A0682A
:100D300005280AD1DFF83C03016851F00401016085
:100D4000016851F00101016009E0DFF82803016842
:100D5000490849000160016831F004010160A068A0
:100D6000002810D0FFF730FE0500DFF80803006808
:100D7000800719D4FFF728FE401B41F289318842D1
:100D8000F3D3032073E0FFF71FFE0500DFF8E40252
:100D90000068800708D5FFF717FE401B41F2893134
:100DA0008842F3D3032062E03000C0B2012803D1AF
:100DB000386830F080503860A069002856D0DFF8DD
:100DC0009802006810F00C0008284DD0A069022895
:100DD00037D1DFF88072386830F080703860FFF704
:100DE000F3FD80463868800107D5FFF7EDFDB0EBD5
:100DF00008000328F6D3032039E0E169206A0143A3
:100E0000606A51EA8011A06A4008401E51EA004120
:100E1000E06A51EA006151F00051DFF840020160E0
:100E2000386850F080703860FFF7CEFD05003868F4
:100E300080011BD4FFF7C8FD401B0328F7D3032014
:100E400015E0DFF81072386830F080703860FFF716
:100E5000BBFD05003868800108D5FFF7B5FD401BD4
:100E60000328F7D3032002E0012000E00020BDE8C2
:100E7000F6812DE9F04104000D000026002C01D17F
:100E800001209FE0DFF8F071386810F00F00A842F1
:100E90000BD238680009000128433860386810F028
:100EA0000F00A84201D001208CE02078800719D5DE
:100EB0002078400705D5DFF8A001016851F4E05122
:100EC00001602078000705D5DFF88C01016851F436
:100ED00060410160DFF880110A6832F0F002A0681A
:100EE00002430A602078C00737D56068012806D120
:100EF000DFF860010068800311D4012062E06068BF
:100F0000022806D1DFF84C010068800107D40120D7
:100F100058E050480068800701D4012052E0DFF813
:100F20003881D8F800108908890060680143C8F842
:100F30000010FFF749FD0600D8F8000010F00C0083
:100F40006168B0EB810F08D0FFF73EFD801B41F2D6
:100F500089318842F0D3032034E0386810F00F0064
:100F600085420BD238680009000128433860386890
:100F700010F00F00A84201D0012023E020784007A4
:100F800006D535490A6832F4E052E06802430A6047
:100F90002078000707D53048016831F460412269A4
:100FA00051EAC201016000F00FF834492A4A126880
:100FB000C2F30312895CC8402B4908600F2000F07F
:100FC00061F80020BDE8F0812DE9F0410024002502
:100FD000002600272048006810F00C00002804D0EC
:100FE000042804D0082804D031E01E4830E024480A
:100FF0002EE0DFF86880D8F8000010F03F00040011
:10100000D8F8000040020CD5D8F80000C0F38810D2
:101010001B49A1FB00012200002300F059F8050044
:101020000BE0D8F80000C0F388100E49A1FB0001C6
:101030002200002300F04CF80500D8F80000C0F3AF
:101040000140401C40000600B5FBF6F000E00548FA
:10105000BDE8F08100380240083802400438024000
:10106000743802400024F40004000020403802409C
:101070000070004070380240003C0240E41E00084E
:1010800040787D0110B504004FF47A700D4909785D
:10109000B0FBF1F00C490968B1FBF0F000F0B0F9D9
:1010A000002801D001200CE0102C09D200222100E0
:1010B0005FF0FF3000F08FF904480460002000E08A
:1010C000012010BD080000200400002000000020C6
:1010D000BBBBE1B1B2F5803F80F07E80022A1ED911
:1010E0008C46B1FBF2F102FB11C31B0443EA10432F
:1010F000B3FBF2FC02FB1C3380B240EA0343B3FBB8
:10110000F2F002FB103240EA0C4000237047022A42
:1011100005D98446B0FBF2F002FB10C270474AB119
:1011200005D100F0010249085FEA30007047002253
:101130000023704700F078B90B0002000021002066
:101140007047904271EB030CF6D3B3F5803F2FD27A
:10115000F0B5B3FA83F7B1FA81F4A7F10F0E3D1B96
:101160005340CEF1200602FA0EF2F3415340B5F19E
:101170000F0746D80F3C2C444140C4F12006A04044
:10118000F1414140B1FBF3F603FB1611A2FB06450A
:10119000001BA94102D2761E8018594180EA010243
:1011A00021FA0EF362FA0EF200215A403046F0BDE9
:1011B00030B4B1FBF3FC03FB1C11A2FB0C45001B7C
:1011C000A94103D2ACF1010C8018594130BC024650
:1011D0000B46604600217047B2F1807F65D3F0B5C1
:1011E000B2FA82F7B1FA81F4C7F10F063D1B22FA79
:1011F00006F307F1110EF24120355A40B5F10F0701
:10120000B8D94140C4F12006A040F1414140B1FBB2
:10121000F3FC03FB1C11A2FB0C45001BA94103D2EC
:10122000BCF1010C801859410F2F12D30F3FC90395
:1012300041EA5041B1FBF3F603FB1611A2FB064550
:10124000D4EBC030A94102D2761E8018594146EA3B
:10125000CC3C07B34140C7F12006B840F1414140C2
:10126000B1FBF3F603FB1611A2FB0645001BA941D7
:1012700002D2761E8018594180EA010221FA0EF34B
:10128000C7F1200462FA0EF20CFA07F05A402CFA69
:1012900004F13043F0BD80EA010221FA0EF300218F
:1012A00062FA0EF260465A40F0BD8C46B1FBF2F194
:1012B00002FB11C31B0243EA1063B3FBF2FC02FB07
:1012C0001C331B024CEA002043EA1063B3FBF2FC20
:1012D00002FB1C331B024CEA002043EA1063B3FB01
:1012E000F2FC02FB1C331B024CEA002043EA1063B1
:1012F000B3FBF2FC02FB1C324CEA002000237047D7
:1013000010B410F00703DFF8044122684FF6FF0124
:101310000A40DFF8FC1051EA03210A43226010BCA6
:101320007047DFF8E8000068C0F30220704710B48F
:10133000020052B2002A05D40A01364B040064B2FE
:101340001A5508E00A01344B040064B214F00F048B
:10135000234403F8042C10BC704770B4030013F04E
:101360000704D4F10700052801D3042001E0D4F1DB
:101370000700251D072D01D2002500E0E51E0126EE
:1013800016FA00F0401E0140A94016FA05F56D1E40
:101390002A401143080070BC704710B50400601E5D
:1013A000B0F1807F01D301200EE0601E1B49086070
:1013B0000F215FF0FF30FFF7BAFF002018490860E7
:1013C000072018490860002010BD10B50400200057
:1013D000FFF796FF10BD2DE9F04104000D00160047
:1013E0000027FFF79EFF8046320029004046FFF7A6
:1013F000B4FF0100200040B2FFF799FFBDE8F08183
:1014000010B504002000FFF7C8FF10BD0CED00E090
:101410000000FA0500E400E018ED00E014E000E050
:1014200018E000E010E000E07047000010B5CC4C80
:10143000CC4820602000FEF731FF002801D00120B9
:1014400055E000F095F9C8480021C1610021016212
:1014500000214162002141610021C162002101633C
:10146000002141634FF40051C160C0480021016177
:101470000121C160102181605FF480014161012080
:1014800060600420A0601020E0608020B0FA80F04E
:10149000401E20614FF4A06060610020A061002028
:1014A000E061002020622000FEF78EFE002801D0BF
:1014B00001201CE0200000F01BF8002801D00120D2
:1014C00015E0200000F0ACF8002801D001200EE06B
:1014D000200000F04DF8002801D0012007E0200096
:1014E00000F028F8002801D0012000E0002010BD05
:1014F00070B504009C4D4FF48070A8616620286090
:101500000020686241F28836320029002000FEF790
:10151000E7FE002801D001200BE09920286032006E
:1015200029002000FEF7DCFE002801D0012000E0A9
:10153000002070BD1CB504008B494FF440708861D9
:10154000EB2008604FF44060C8615FF04070486273
:101550000A20486100200190002000906A46200087
:10156000FFF768F8002801D0012000E0002016BD38
:1015700030B58FB004004FF4807007908520019043
:1015800000200890002009905FF080700A900020F1
:10159000069001200B9000200C9000200D90002060
:1015A0000E9041F288352A0001A92000FEF798FE2E
:1015B000002801D0012031E02A0069462000FEF712
:1015C00058FF002801D0012028E0200000F09EF8FC
:1015D000002801D0012021E0812001909DF8001019
:1015E00011F00F010A225FF07060B0FA80F08240C3
:1015F00011438DF800102A0001A92000FEF770FEAB
:10160000002801D0012009E02A0069462000FEF7E9
:10161000BDFE002801D0012000E000200FB030BD49
:10162000F0B595B004004FF4807007900020099049
:101630000020069000200C9000200D9000200E90BD
:1016400010201190002013905FF48000149065200A
:101650000190002008905FF080750A9501200B90A2
:101660003F4E41F288373A0001A93000FEF738FEBC
:10167000002801D0012047E03A0069463000FEF71B
:10168000F8FE002801D001203EE006200190002055
:101690000A903A0001A93000FEF722FE002801D08E
:1016A000012031E002200F900220109001201290C2
:1016B000052001900A953B000FAA01A93000FEF712
:1016C00053FF002801D001201EE06120019001207D
:1016D0000B909DF8000010F03F0050F040008DF896
:1016E00000003A0001A93000FEF7FAFD002801D001
:1016F000012009E03A0069463000FEF747FE002865
:1017000001D0012000E0002015B0F0BD70B504004C
:10171000154D4FF44070A8610620286000206862D3
:1017200041F28836320029002000FEF7D9FD00285A
:1017300001D0012013E00D4A022010600220506009
:10174000052028605FF040706862330029002000A7
:10175000FEF70AFF002801D0012000E0002070BD44
:101760000C000020001000A0580000209000002075
:1017700010B586B03648016851F00201016000687A
:1017800010F00200059005983248016851F00201FE
:101790000160016831F0020101602F48016851F0D9
:1017A00002010160016811F00201059105990168CB
:1017B00051F008010160016811F0080105910599D7
:1017C000016851F010010160006810F010000590F0
:1017D0000598402000900A200490022001900120EA
:1017E0000290022003901D4C6946200000F03CF856
:1017F00004200090092004900020029069462000F7
:1018000000F032F84FF40060009009200490144C6E
:101810006946200000F028F84FF48050009009201D
:1018200004906946200000F01FF804200090092071
:10183000049069460B4800F017F84FF400500090F0
:10184000092004906946200000F00EF806B010BD93
:101850003838024018380240303802400004024054
:10186000000C0240001002402DE9F8410022002344
:10187000002400260025102D80F00B81012717FA87
:1018800005F213000A681A4014009C4240F0FF80E1
:101890004A68022A02D04A68122A1FD12A00D208B6
:1018A00000EB8202D2F820C05FF00F0E15F00702A5
:1018B000D2B292001EFA02FE3CEA0E0CD1F810E001
:1018C00015F00702D2B292001EFA02FE5EEA0C0C7C
:1018D00066462A00D20800EB82021662D0F800C0E9
:1018E0005FF0030E2A00D2B252001EFA02F23CEA66
:1018F000020C91F8048018F003082A00D2B25200BA
:1019000018FA02F858EA0C0CC0F800C04A68012A1C
:1019100008D04A68022A05D04A68112A02D04A68CB
:10192000122A1BD186682A00D2B252001EFA02F295
:101930009643D1F80C802A00D2B2520018FA02F86D
:1019400058EA060686604268AF40BA434F68C7F35C
:101950000017AF403A439446C0F804C0C6682A0056
:10196000D2B252001EFA02FE36EA0E068F682A0034
:10197000D2B2520097403E43C6604A68D20040F15E
:101980008680DFF81421176857F4804717601268C3
:1019900012F480420092009ADFF800C12A009208F7
:1019A0005CF822705FF00F0E15F00302D2B29200C5
:1019B0001EFA02FE37EA0E07DFF8E420904201D15A
:1019C000002631E0DFF8DC20904201D101262BE037
:1019D000DFF8D420904201D1022625E0DFF8CC20A8
:1019E000904201D103261FE0DFF8C420904201D1CC
:1019F000042619E02F4A904201D1052614E02E4A10
:101A0000904201D106260FE02C4A904201D10726D0
:101A10000AE02B4A904201D1082605E0294A90426B
:101A200001D1092600E00A26F6B215F00302D2B26F
:101A30009200964037432A0092084CF82270224EBA
:101A40003268A243D1F804C05FEACC3C00D52243FF
:101A500032601E4F3E68A643D1F804C05FEA8C3C5A
:101A600000D526433E601A4F3A68A243D1F804C01D
:101A70005FEACC2C00D522433A60164F3E68A6435D
:101A8000D1F804C05FEA8C2C00D526433E606D1C63
:101A9000F1E6BDE8F1810000443802400838014019
:101AA000000002400004024000080240000C024016
:101AB000001002400014024000180240001C0240C6
:101AC0000020024000240240003C0140043C014050
:101AD000083C01400C3C0140BFF34F8FBFF36F8FB8
:101AE000002049490860BFF34F8FBFF36F8F47480D
:101AF000016851F400310160BFF34F8FBFF36F8F66
:101B00007047BFF34F8FBFF36F8F4048016831F4C8
:101B10000031016000203C490860BFF34F8FBFF3E4
:101B20006F8F704710B4002039490860BFF34F8FA2
:101B300038480168C1F34E32C1F3C900030043F6CF
:101B4000E07010EA421050EA8370334C20601800B5
:101B5000431E0028F3D11000421E0028ECD1BFF331
:101B60004F8F2A48046854F480340460BFF34F8FC9
:101B7000BFF36F8F10BC704710B400202449086079
:101B8000BFF34F8F2148016831F480310160BFF30A
:101B90004F8F20480168C1F34E32C1F3C9000300E2
:101BA00043F6E07010EA421050EA83701B4C20604C
:101BB0001800431E0028F3D11000421E0028ECD16B
:101BC000BFF34F8FBFF36F8F10BC704780B500F02D
:101BD00072F800F07DF800F030F800F027F80028E7
:101BE00001D000F029F800F06CF800200C490860E2
:101BF0000C480D49096801605FF01041096881F3E4
:101C0000088800688047FEE750EF00E014ED00E030
:101C100084ED00E080ED00E060EF00E074EF00E0B4
:101C200010E000E0A80000200400009010B500249F
:101C3000FFF7FCFB204310BDFEE730B591B0002458
:101C4000012005905FF48030069002200B905FF435
:101C500080000C9019200D904FF4D8700E90022047
:101C60000F900820109005A8FEF720FF050028001F
:101C7000C0B2002800D0FEE700F03EF804002000CB
:101C8000C0B2002800D0FEE70F2000900220019093
:101C9000002002904FF4A05003904FF48050049025
:101CA00006216846FFF7E5F80100C9B2002900D017
:101CB000FEE711B030BD80B5FFF70EFFFFF732FF32
:101CC00001BD80B5FFF71DFFFFF756FF01BD000006
:101CD00080B50748016851F4807101600320FFF767
:101CE00074FB0F20FFF7CEF900F004F8002002BDCE
:101CF000003C0240704700007CB500241B4801688E
:101D000051F080510160006810F080500090009800
:101D1000154E306850F480303060FEF755FE0500F7
:101D2000104C2068C00308D4FEF74EFE401B40F262
:101D3000E9318842F4D3032013E0306850F40030D6
:101D40003060FEF741FE06002068800308D4FEF7ED
:101D50003BFE801B40F2E9318842F5D3032000E0CE
:101D6000002076BD04700040007000404038024002
:101D70000F48016851F4700101600E49086850F085
:101D80000100086000200C4A10600A680B480240FD
:101D90000A600B480B4A1060086830F48020086025
:101DA0000020094908605FF000600849086070473A
:101DB00088ED00E00038024008380240FFFFF6FEE0
:101DC00010300024043802400C38024008ED00E0D6
:101DD00030B450F8041B79B10268436802440830FB
:101DE000DC0744BFA9F10104E31852F8045B43F88F
:101DF000045B091FF9D1ECE730BC704710B5074907
:101E000079441831064C7C44163404E00A68081DF5
:101E1000114488470146A142F8D110BD2C000000B2
:101E20004C0000004EF68851CEF20001086840F4E4
:101E300070000860BFF34F8FBFF36F8F4FF00070DB
:101E4000E1EE100A704700008FEBFFFFA4000000D6
:101E50000C0000200000000079FFFFFF0C000000D4
:101E6000B0000000000000200000000000F00DF8AD
:101E7000002801D0FFF7C2FFAFF300800020AFF3CE
:101E80000080FFF7A3FE00F002F80120704700F089
:101E900001B800000746384600F002F8FBE70000F2
:101EA00080B5AFF30080024A11001820ABBEFBE7FB
:101EB0002600020003480168034A1278891801606D
:101EC000704700BFAC000020080000207047FEE70C
:101ED000FEE7FEE7FEE770477047704780B5FFF703
:101EE000E9FF01BD00000000000000000102030442
:101EF000060708090148804701480047711D00088E
:101F0000051F0008AFF30080FFF78CFFFFF7AEFF5F
:101F1000100000000024F40001000000FFF7FEBFE5
:101F2000FFF7FEBFFFF7FEBFFFF7FEBFFFF7FEBFE5
:101F3000FFF7FEBFFFF7FEBFFFF7FEBFFFF7FEBFD5
:101F4000FFF7FEBFFFF7FEBFFFF7FEBFFFF7FEBFC5
:101F5000FFF7FEBFFFF7FEBFFFF7FEBFFFF7FEBFB5
:101F6000FFF7FEBFFFF7FEBFFFF7FEBFFFF7FEBFA5
:101F7000FFF7FEBFFFF7FEBFFFF7FEBFFFF7FEBF95
:101F8000FFF7FEBFFFF7FEBFFFF7FEBFFFF7FEBF85
:101F9000FFF7FEBFFFF7FEBFFFF7FEBFFFF7FEBF75
:101FA000FFF7FEBFFFF7FEBFFFF7FEBFFFF7FEBF65
:101FB000FFF7FEBFFFF7FEBFFFF7FEBFFFF7FEBF55
:101FC000FFF7FEBFFFF7FEBFFFF7FEBFFFF7FEBF45
:101FD000FFF7FEBFFFF7FEBFFFF7FEBFFFF7FEBF35
:101FE000FFF7FEBFFFF7FEBFFFF7FEBFFFF7FEBF25
:101FF000FFF7FEBFFFF7FEBFFFF7FEBFFFF7FEBF15
:10200000FFF7FEBFFFF7FEBFFFF7FEBFFFF7FEBF04
:10201000FFF7FEBFFFF7FEBFFFF7FEBFFFF7FEBFF4
:10202000FFF7FEBFFFF7FEBFFFF7FEBFFFF7FEBFE4
:10203000FFF7FEBFFFF7FEBFFFF7FEBFFFF7FEBFD4
:10204000FFF7FEBFFFF7FEBFFFF7FEBFFFF7FEBFC4
:10205000FFF7FEBFFFF7FEBFFFF7FEBFFFF7FEBFB4
:10206000FFF7FEBFFFF7FEBFFFF7FEBFFFF7FEBFA4
:10207000FFF7FEBFFFF7FEBFFFF7FEBFFFF7FEBF94
:10208000FFF7FEBFFFF7FEBFFFF7FEBFFFF7FEBF84
:10209000FFF7FEBFFFF7FEBFFFF7FEBFFFF7FEBF74
:0420A000FFF7FEBF89
:0200000490006A
:1000000000000520B5050090011E0090031E009021
:10001000051E0090071E0090091E009000000000C1
:10002000000000000000000000000000716C009063
:100030000B1E009000000000116D0090756D009087
:100040000506009005060090050600900506009044
:100050000506009005060090050600900506009034
:100060000506009005060090050600900506009024
:100070000506009005060090050600900506009014
:100080000506009005060090050600900506009004
:1000900005060090050600900506009005060090F4
:1000A00005060090050600900506009005060090E4
:1000B00005060090050600900506009005060090D4
:1000C00005060090050600900506009005060090C4
:1000D00005060090050600900506009005060090B4
:1000E00005060090050600900506009005060090A4
:1000F0000506009005060090050600900506009094
:100100000506009005060090050600900506009083
:1001100005060090050600900D1E00900506009053
:100120000506009005060090050600900506009063
:100130000506009005060090050600900506009053
:100140000506009005060090050600900506009043
:100150000506009005060090050600900506009033
:100160000506009005060090050600900506009023
:100170000506009005060090050600900506009013
:100180000506009005060090050600900506009003
:1001900005060090050600900506009005060090F3
:1001A0001D1E0090050600902D1E00900506009073
:1001B00005060090050600900506009005060090D3
:0801C000050600900506009001
:1001D00010B5054C237833B9044B13B10448AFF381
:1001E00000800123237010BD2801002000000000C2
:1001F00040B6019008B5034B1BB103490348AFF368
:10020000008008BD000000002C01002040B60190D5
:1002100001F0FF01102A2BDB10F0070F08D010F8B7
:10022000013B013A8B422DD010F0070F42B3F6D1BB
:10023000F0B441EA012141EA014122F007047FF0D4
:1002400000070023F0E80256083C85EA010586EA2B
:10025000010685FA47F5A3FA87F586FA47F6A5FA67
:1002600087F68EB9EED1F0BC01F0FF0102F0070273
:1002700032B110F8013B013A83EA010313B1F8D11E
:100280000020704701387047002D06BF35460338FF
:10029000073815F0010F07D1013015F4807F02BF38
:1002A000013015F4C03F0130F0BC0138704700BF89
:1002B00053B94AB9002908BF00281CBF4FF0FF31CD
:1002C0004FF0FF3000F074B9ADF1080C6DE904CEC9
:1002D00000F006F8DDF804E0DDE9022304B0704721
:1002E0002DE9F047089D04468E46002B4DD18A42E9
:1002F000944669D9B2FA82F252B101FA02F3C2F11C
:10030000200120FA01F10CFA02FC41EA030E9440AC
:100310004FEA1C48210CBEFBF8F61FFA8CF708FBCD
:1003200016E341EA034306FB07F199420AD91CEBA5
:10033000030306F1FF3080F01F81994240F21C81D7
:10034000023E63445B1AA4B2B3FBF8F008FB10331F
:1003500044EA034400FB07F7A7420AD91CEB040454
:1003600000F1FF3380F00A81A74240F20781644424
:10037000023840EA0640E41B00261DB1D4400023A9
:10038000C5E900433146BDE8F0878B4209D9002D0D
:1003900000F0EF800026C5E9000130463146BDE897
:1003A000F087B3FA83F6002E4AD18B4202D3824201
:1003B00000F2F980841A61EB030301209E46002DB0
:1003C000E0D0C5E9004EDDE702B9FFDEB2FA82F205
:1003D000002A40F09280A1EB0C014FEA1C471FFA63
:1003E0008CFE0126200CB1FBF7F307FB131140EA4A
:1003F00001410EFB03F0884208D91CEB010103F117
:10040000FF3802D2884200F2CB804346091AA4B2D8
:10041000B1FBF7F007FB101144EA01440EFB00FEAC
:10042000A64508D91CEB040400F1FF3102D2A64511
:1004300000F2BB800846A4EB0E0440EA03409CE7B0
:10044000C6F12007B34022FA07FC4CEA030C20FA5D
:1004500007F401FA06F31C43F9404FEA1C4900FA7D
:1004600006F3B1FBF9F8200C1FFA8CFE09FB1811FA
:1004700040EA014108FB0EF0884202FA06F20BD96D
:100480001CEB010108F1FF3A80F08880884240F2BD
:100490008580A8F102086144091AA4B2B1FBF9F001
:1004A00009FB101144EA014100FB0EFE8E4508D9FC
:1004B0001CEB010100F1FF346CD28E456AD9023881
:1004C000614440EA0840A0FB0294A1EB0E01A14266
:1004D000C846A64656D353D05DB1B3EB080261EBD4
:1004E0000E0101FA07F722FA06F3F1401F43C5E9AE
:1004F000007100263146BDE8F087C2F12003D840E4
:100500000CFA02FC21FA03F3914001434FEA1C4725
:100510001FFA8CFEB3FBF7F007FB10360B0C43EA17
:10052000064300FB0EF69E4204FA02F408D91CEBC7
:10053000030300F1FF382FD29E422DD902386344C5
:100540009B1B89B2B3FBF7F607FB163341EA034165
:1005500006FB0EF38B4208D91CEB010106F1FF38B4
:1005600016D28B4214D9023E6144C91A46EA0046AB
:1005700038E72E46284605E70646E3E61846F8E63D
:100580004B45A9D2B9EB020864EB0C0E0138A3E786
:100590004646EAE7204694E74046D1E7D0467BE767
:1005A000023B614432E7304609E76444023842E7DF
:1005B000704700BFDFF834D0002103E00C4B5B58DC
:1005C000435004310B480C4B42189A42F6D30B4A65
:1005D00002E0002342F8043B094B9A42F9D302F0AF
:1005E00005FF19F0C7FF01F04DF970470000052025
:1005F000D8CB019000000020280100202801002015
:100600000C270120FEE708B500F0E0FC08BD08B5A6
:1006100000F04CFD08BD4068704741607047000025
:100620004FF0E022D2F8FC3D43F08073C2F8FC3D6D
:10063000054B064AD3F8B01F0A43C3F8B02F1A6817
:1006400042F001021A607047001000E055CEACC5C0
:10065000511A01EB5301B1FBF3F07047014B58689D
:10066000704700BF001000E0704710B504460C2131
:1006700019F007FF204610BD036810B51B6904463A
:1006800031B19847A26863689B1A1844606010BD36
:100690009847A060FBE7704730B58DB00D46144613
:1006A00000212C2201A819F0A7FF01A802F0B6FD35
:1006B0009DF8040030B1BDF8063001202B60BDF874
:1006C000103023600DB030BD10B50446042119F080
:1006D000D8FE204610BD000008B54FF488714FF4D5
:1006E000F07002F02DFD28B1034B2021034A04488D
:1006F00019F0F6FE08BD00BFC0B60190E1B601904A
:100700000BB70190032823D8DFE800F0020B131A7F
:10071000104B102110481A68B2FA82F2520903F005
:10072000D6BB0C4B40215A68B2FA82F252090B48F0
:10073000F5E7084B80219A68B2FA82F25209F6E78F
:10074000044B40210648DA68B2FA82F25209E6E721
:10075000704700BF4401002000040240000802402E
:1007600000180240032823D8DFE800F0020B131A18
:10077000104B102110481A68003A18BF012203F0EC
:10078000A6BB0C4B40215A68003A18BF01220B4807
:10079000F5E7084B80219A68003A18BF0122F6E776
:1007A000044B40210648DA68003A18BF0122E6E708
:1007B000704700BF440100200004024000080240CE
:1007C0000018024003280FD8DFE800F00206090BEA
:1007D0001021064803F081BB40210548FAE780213B
:1007E000FBE740210348F5E7704700BF00040240E3
:1007F000000802400018024008B5032813D8DFE8BB
:1008000000F0020A0D0F1021084803F059FB431EA7
:100810005842584108BD40210548F6E78021FBE7D2
:1008200040210448F1E70020F1E700BF0004024046
:10083000000802400018024070B5084D002401264F
:10084000E0B2FFF7D9FF18B12B68012B18BF2E605B
:1008500001340435052CF3D170BD00BF44010020E4
:10086000012380F8741080F87530704700207047BD
:1008700041640039024B18BF01211970704700BF55
:100880006724012000207047836B0BB1084618478E
:1008900070474FF6FF707047406803689B691847C0
:1008A0007047000038B50446FFF7C6FF204600F049
:1008B000CBFC2368094A4FF04041D3F888502046CA
:1008C000074BA8470023074D84F84A302846FFF716
:1008D000A7FE0123256184F86C3038BD00FC03C0FD
:1008E00000F807C05401002008B503680446D3F897
:1008F00080309847236820469B6F984700F032F974
:10090000236820461B6F98474FF48051064803F038
:10091000E4FA0821054803F0E0FA00F023F923681F
:1009200020461B6F9847F8E700200240002802404D
:1009300010B5044609F04AF923682046D3F8AC30D4
:10094000BDE81040184700F067BC00F06BBC000029
:1009500070B500F09FFC10490023C1F88430BFF34C
:100960004F8FD1F8803043F6E074C3F3C900C3F36E
:100970004E335B0103EA0406024646EA8275013AF9
:10098000C1F87452F9D2203B13F1200FF2D1BFF31A
:100990004F8FBFF36F8F70BD00ED00E000F018BC0B
:1009A00000F088BC00F090BC00F01CBC08F076BBE6
:1009B00010B504467C2119F064FD204610BD90F866
:1009C00077301BB1406803681B68184718467047AA
:1009D00090F834100D4B10B590F874401A788C4292
:1009E00009D03AB90A490B4A0888148810800122B4
:1009F0000C801A7010BD002AFCD0064A04491488E5
:100A000008880C8010800022F3E700BF60240120DA
:100A10005E2401205C24012070B50D46194635B9CD
:100A2000094B40F2D221094A094819F059FDC0E9A1
:100A30000F52003A074B18BF01221A700368BDE835
:100A40007040D3F88C301847A0B70190D8B7019008
:100A500026B801906624012008B5094B1B888B42FB
:100A600003D8084B1B88934205D9074B9E21074AA0
:100A7000074819F035FD074B1980074B1A8008BD50
:100A80005C2401205E2401206BB80190CEB8019057
:100A900026B801906224012064240120014608B593
:100AA000034B186801B1012109F0AAF8012008BD23
:100AB00068240120034B00225A609A60024A1A609F
:100AC000704700BF54010020A0B601900121002210
:100AD00008B5084605F018FD0A4B186028B90A4BFE
:100AE00028210A4A0A4819F0FBFC002204210120AF
:100AF00005F0F8FD074B186018B9074B2C21034A85
:100B0000F0E708BD64010020ECB9019035BA01900E
:100B100064BA019060010020DEBA0190024B4FF0F0
:100B2000FF31186805F05ABD64010020014B1868B8
:100B300005F098BD64010020024B0021186805F003
:100B40004DBD00BF64010020FFF7F0BF0023034844
:100B500003491A46006805F01FBE00BF600100206F
:100B60000400002013B50023074C01A91A46206891
:100B700005F05EFE4FF0FF33002201A9206805F06A
:100B800057FE02B010BD00BF6001002003685B6C1F
:100B900018470120704703689B6A18470D4B82B0C5
:100BA0001A6B42F400021A631A6B02F400020192FB
:100BB000019A1A6942F400021A611A6922F40002C9
:100BC0001A61054B054A1A614FF08062044B9A6026
:100BD00002B0704700380240C4120020250C00907B
:100BE00000E100E040F2EF3070470000054B4FF0AD
:100BF00080620360044BC3F88820BFF34F8FBFF3BC
:100C00006F8F7047A8BC019000E100E010B504466A
:100C10004FF45A61FFF7EAFF204619F032FC2046F4
:100C200010BD0000024B1B68586803685B691847D9
:100C30006824012070B504460A4B0C300026254676
:100C4000602260602672667245F8203B294609F0F2
:100C500013F904F55A63EE602435AB42FBD120460C
:100C600070BD00BFA8BC019008B50B290BD8DFE808
:100C700001F01206100A0A0A0A08080808080120EA
:100C800008BD0520FCE7054B6621054A054819F01B
:100C900027FC0020F4E70220F2E700BF20BB019010
:100CA0003BBB019085BB019008B50A2909D8DFE854
:100CB00001F010060E0808080806060606000120C6
:100CC00008BD054B8721054A054819F009FC00209D
:100CD000F6E70220F4E700BF20BB0190FDBB0190C6
:100CE00085BB01902DE9F8434F7F0C46814639467C
:100CF000FFF7BAFF94F81E80054648464146FFF7C5
:100D0000B3FF414606464846FFF7CEFFA18A628BF5
:100D1000424B521A1A649A61228B521A1A61E28A61
:100D2000586342EA014220695A646268D863DA6013
:100D3000216894F81CC080294FEA0C6226D010D894
:100D4000202945EA020462D0402960D004295ED0FF
:100D50002A43324B474542F40032DA615BD0304AD5
:100D600040E0B1F5807F07D0B1F5007FF0D142F4CB
:100D7000003242F0090203E042F4003242F00A027B
:100D8000DA61E2681A625E6258612AE0A4682A4366
:100D9000211D42F40032D962DA6122785E62586124
:100DA00042B1012A21D01F4B40F211111E4A1F48A7
:100DB00019F096FBDA690120618822F47F4201393B
:100DC00022F0100242EA0122DA61144BDA6942F0A1
:100DD0002002DA61DA699206FCD410229A600028B7
:100DE000BDD0134A1A60BDE8F8836288BCF1FF00E9
:100DF000D96902F1FF3418BF012021F47F4222F0AB
:100E0000100242EA042242F01002DA61DDE744F403
:100E10000034DC61B7E740F20122E3E700B00240B2
:100E20000102010048BC019062BC019085BB0190A9
:100E30000102020070B50C46897FFFF735FF174BA2
:100E4000A68AE18A628B41EA06412569921B5863B2
:100E50005964DD631A642668E168082E0DD19A6131
:100E60001A6158620E4A207F42EA0062DA610D4A36
:100E700019625D61DD601A6070BD0022D8614809A9
:100E80001A610A0A00F4FC60C1F3C40102F478425A
:100E900002430A439A63044AEDE700BF00B00240F0
:100EA0000900010001020200010203000120704755
:100EB0000C2070470C2303FB0100083070470C2303
:100EC00003FB01000830704701207047E4207047A1
:100ED000E42303FB010008307047E42303FB010017
:100EE00008307047012070471020704700EB011058
:100EF0000830704700EB011008307047084601F0D9
:100F000085B90000034B10B50446036007F012FEDC
:100F1000204610BD60BD019010B50446FFF7F2FFFA
:100F20001421204619F0ADFA204610BD034B10B530
:100F30000446036007F0FEFD204610BD2CBD019065
:100F400010B50446FFF7F2FFEC21204619F099FA9C
:100F5000204610BD034B10B50446036007F0EAFDC0
:100F6000204610BDF8BC019010B50446FFF7F2FF13
:100F70001821204619F085FA204610BD084B10B5FF
:100F80000446036000F58C70FFF7BCFF04F12C00F1
:100F9000FFF7CCFF04F11400FFF7DCFF204610BD83
:100FA00094BD019008B50248FFF7E8FF08BD00BFF7
:100FB0006C01002010B50446FFF7E0FF4FF42271EA
:100FC000204619F05EFA204610BD00002DE9F341DD
:100FD00000F0A8FF0024054600F0A8FF23460146C4
:100FE0002246284600940DF055FC254B254A204604
:100FF000254D1A6001F09CFA24480DF0B3FB2B78C4
:10100000BFF35B8FDB0735D4284619F03CFA88B371
:101010001F4C204B04F5987604F1140004F12C08C1
:1010200004F58C7723606060C4F80880E76026616F
:1010300007F082FD184B4046636107F07DFD174BBA
:101040003846E36207F078FD154B04F59670C4F856
:10105000183101F0F9FB224604F59671304601F093
:10106000E9FB304601F0D2F80E4819F057FA28464D
:1010700019F015FA0C4802B0BDE8F041FFF712BCB8
:10108000C424012014120020680100200800002060
:101090006C01002094BD0190F8BC01902CBD019022
:1010A00060BD0190A50F0090981100200148FFF746
:1010B0001BBC00BF9811002070B5234E234B244C5D
:1010C0003046244D2360FFF7B5FD284610F0EEFCB6
:1010D000214B00224FF4807120481A861A6683F84B
:1010E0006C201A67DC60C3E912121D49C3E91912AA
:1010F0004FF080715967012183F8781019490B600E
:101100004FF4F0710180184801804FF4887117483E
:10111000C3E90422C3E90622C3E90822C3E90A227B
:10112000C3E90E22C3E91022C3E91422C3E916223F
:10113000C3E9016501800E4883F8342001800D4920
:101140000A700D4A1A6070BDF803002090B7019034
:10115000F403002018120020981100205C240120C4
:101160000100000168240120622401205E24012086
:1011700064240120602401201CB901900148FFF77C
:1011800035BD00BFF80300201049002370B5C1F839
:101190008430BFF34F8FD1F8803043F6E074C3F34F
:1011A000C900C3F34E335B0103EA0406024646EA74
:1011B0008275013AC1F87452F9D2203B13F1200F25
:1011C000F2D1BFF34F8FBFF36F8F70BD00ED00E022
:1011D000034B902283F85A2383F85823704700BFAB
:1011E00000E100E0094A0A49D3680A48C3F30A0348
:1011F000013B9BB20B801169C1F30A0101390180E7
:101200001364536B43F0010353637047006801405C
:101210009412002092120020014BD3F8AC007047CA
:1012200000680140024B0122C3F8AC105A627047BB
:1012300000680140034B5B69DB0301D5FFF7A4BFE6
:10124000704700BF00ED00E070B5044607F07BFF7B
:1012500023685D6E0AF034FF01462046A8472368E4
:101260002046054AD3F888504FF040410023AC4651
:10127000BDE87040604700BF00FC03C007F04ABFF4
:1012800090F84B3013B1024B01221A7007F04EBF99
:101290009012002008B507F007FF044B5B69DB03E1
:1012A00003D5BDE80840FFF76FBF08BD00ED00E0C3
:1012B00008F055B8034B4FF080629A604FF080728F
:1012C0009A60704700E100E0084B4FF08062C3F87D
:1012D0008820BFF34F8FBFF36F8F4FF08072C3F83A
:1012E0008820BFF34F8FBFF36F8F704700E100E09E
:1012F00010B5144C236823B3134B144A1B6C11888C
:101300008B4213D1124B198803F0D8FB226892F854
:101310006630013382F86630FFF718FC206808F069
:1013200055FC0020BDE81040FFF7ECB903F0C6FB08
:10133000206803681B6A98470020BDE81040FFF74B
:1013400011BA10BD682401200068014094120020E9
:101350009212002008B50249002006F0DDFE08BD0B
:101360009D0A0090F0B585B0002400940194029489
:10137000039402F00DF901258DF800508DF801401D
:101380004FF00053019312238DF808308DF8094077
:101390008DF80A4003268DF80B608DF80C508DF8FF
:1013A0000D408DF80E508DF80F50684602F00EF982
:1013B0008DF801504FF0404301931C278DF80870C1
:1013C0008DF80B408DF80E408DF80F40684602F006
:1013D000FDF802238DF8013016238DF808308DF8C2
:1013E0000B608DF80E508DF80F50684602F0EEF845
:1013F0008DF801604FF0104301938DF808708DF85F
:101400000B408DF80E408DF80F40684602F0DEF874
:1014100004278DF8017017238DF808308DF80B60C4
:101420008DF80E508DF80F50684602F0CFF8052366
:101430008DF8013013238DF808308DF80C40684684
:1014400002F0C4F8384602F0B1F805B0F0BD000073
:101450002DE9F04F91B000240B940C940D940E9450
:101460000F945D4B1A6B42F010021A631A6B02F074
:1014700010020092009A1A6B42F002021A631A6B71
:1014800002F002020192019A1A6B42F040021A63C2
:101490001A6B02F040020292029A1A6B42F4007236
:1014A0001A631A6B02F400720392039A1A6B42F0E9
:1014B00008021A631A6B02F008020492049A1A6B6B
:1014C00042F480621A631A6B02F480620592059AF4
:1014D0001A6B42F020021A631A6B02F02002069285
:1014E000069A1A6B42F480721A631A6B02F48072C5
:1014F0000792079A1A6B42F001021A631A6B02F004
:1015000001020892089A1A6B42F080021A631A6B61
:1015100002F080020992099A1A6B42F004021A63DF
:101520001B6B03F004030A930A9BDFF8B4B0224656
:101530001021584602F0CBFCDFF8A8A02246082173
:10154000504602F0C4FCDFF8A090224641F20201AE
:10155000484602F0BCFCDFF894802246C021404699
:1015600002F0B5FC1D4F22464021384602F0AFFC88
:1015700010230B9301250C950D9403260E960BA9B1
:10158000584602F0FBFA08230B930C950D940E9429
:101590000BA9504602F0F2FA41F202030B930C95AC
:1015A0000D940E940BA9484602F0E8FAC0230B9361
:1015B0000C950D940E960BA9404602F0DFFA4023DD
:1015C0000B930C950D940E960BA9384602F0D6FAA3
:1015D00011B0BDE8F08F00BF003802400018024093
:1015E000000402400028024000200240000802409F
:1015F00008B5642004F06AFFFBE7000008B5026844
:10160000034B9A4200D008BD01F034FFFBE700BF56
:1016100000100040FEE7000008B50848084B0360D2
:10162000002303714371436183610123036201F06D
:10163000FDFF00B908BDFFF7EDFF00BFA0120020BD
:101640000030024008B50C480C4B03600023436097
:101650008360C3608362C3620363436302F05EF925
:1016600028B90121044802F027FA10B908BDFFF794
:10167000D1FFFFF7CFFF00BFC412002000B002402F
:1016800000B589B00023019302930393049305935B
:10169000069307931348144A026043608360042250
:1016A000C260102202614021416180218161C361D9
:1016B0000362436283620192029203920492059252
:1016C0000692079201A904F097F838B901F01CFDC1
:1016D00001F0CCFC20B909B05DF804FBFFF79AFFDC
:1016E000FFF798FFAC130020400100A000B58FB0B9
:1016F0003422002101A818F07FFF2648264B036002
:10170000002343608360C360036128224261092291
:1017100082613522C2610B22026240F215224262CE
:1017200040F21B12826240F23522C26240F21D1268
:10173000026380F8343080F8353080F8363003F0BA
:101740009FF818BB002201924FF4F07102910392AE
:101750004FF48873049302200590FF2006900792AF
:101760004FF480600890052009900A920B910C9329
:101770008DF834208DF835208DF8362001A90548E4
:1017800003F067F920B90FB05DF804FBFFF742FFE3
:10179000FFF740FF041300200068014008B50B4824
:1017A0000B4B03604FF4E133436000238360C3605D
:1017B00003610C2242618361C3610362436204F0EE
:1017C000E6FC00B908BDFFF725FF00BFE0130020CD
:1017D0000010014000B595B03022002108A818F093
:1017E0000BFF002303930493059306930793234B66
:1017F0001A6C42F080521A641B6C03F08053019300
:10180000019B1F4B1A6842F440421A601B6803F4A4
:1018100040430293029B012308934FF480330993C2
:1018200002230E934FF480020F92192210924FF46C
:10183000D87211921293139308A803F0A1F9B0B9CA
:1018400003F060F9A8B90F23039302230493002344
:1018500005934FF4A05306934FF480530793072149
:1018600003A803F0F9FB30B915B05DF804FBFFF7EE
:10187000D1FEFFF7CFFEFFF7CDFE00BF00380240DC
:101880000070004008B5FFF76DFDBFF34F8FBFF349
:101890006F8F2D4B0021C3F85012BFF34F8FBFF352
:1018A0006F8F5A6942F400325A61BFF34F8FBFF312
:1018B0006F8FC3F88410BFF34F8FD3F88040C4F309
:1018C0004E3000E01846C4F3C90243F6E07303EA61
:1018D000401343EA82731C49C1F860321346013A4F
:1018E000002BF2D1431E0028ECD1BFF34F8F4B6980
:1018F00043F480334B61BFF34F8FBFF36F8F01F021
:10190000A7FDFFF767FFFFF7A3FDFFF785FEFFF7D2
:1019100099FEFFF7B5FEFFF7E9FEFFF73FFFFEF781
:1019200072FE04F025FD094A0021094804F062FD19
:10193000084B1860084A0021084804F05BFD084B7A
:10194000186004F033FDFEE700ED00E0E0BD01901B
:10195000F11500909C120020BCBD01900F06009074
:1019600098120020F0B587B00023019302930393EF
:10197000049305932B4B1B680BB107B0F0BD294BAB
:1019800001221A60284B9A6B42F001029A639B6B0A
:1019900003F001030093009B4FF68373019302262B
:1019A0000296032504950C24059401A91F4802F012
:1019B000E5F848F233130193029600270397049544
:1019C000059401A91A4802F0D9F84CF20373019367
:1019D000029603970495059401A9164802F0CEF8E3
:1019E0004FF63F030193029603970495059401A9CE
:1019F000114802F0C3F8242301930296039704953B
:101A0000059401A90D4802F0B9F804230193029648
:101A10000397049505940DEB0301094802F0AEF815
:101A2000ABE700BF681400200038024000100240FD
:101A300000180240000C024000140240001C02404A
:101A40000008024008B5144B1B6803B108BD124BD7
:101A500001221A60114A936B23F0010393634FF63E
:101A600083710F4802F086F948F233110D4802F0F5
:101A700081F94CF203710C4802F07CF94FF63F01FA
:101A80000A4802F077F92421094802F073F9042189
:101A9000084802F06FF9D9E76414002000380240CA
:101AA0000010024000180240000C024000140240E6
:101AB000001C02400008024000B583B00D4B1A6CB8
:101AC00042F080521A641A6C02F080520092009A1E
:101AD0005A6C42F480425A645B6C03F48043019375
:101AE000019B00220F216FF0010001F0FBFC03B00D
:101AF0005DF804FB003802400268094B9A4200D0AE
:101B0000704782B003F500631A6B42F480521A6387
:101B10001B6B03F480530193019B02B0704700BF1D
:101B20000030024002680E4B9A4200D0704700B568
:101B300083B0A3F5F0431A6B42F400021A631B6BE7
:101B400003F400030193019B002205215A2001F0B8
:101B5000C9FC5A2001F0FCFC03B05DF804FB00BF97
:101B600000B0024070B5ACB0044600212791289126
:101B700029912A912B91842206A818F03DFD226814
:101B8000474B9A4201D02CB070BD082306936423C2
:101B90000B9305230D9302230C930123109306A8A6
:101BA00003F054FB002878D13E4B5A6C42F080621F
:101BB0005A645A6C02F080620092009A1A6B42F0EA
:101BC00010021A631A6B02F010020192019A1A6B4A
:101BD00042F400721A631A6B02F400720292029AC3
:101BE0001A6B42F480621A631A6B02F480620392E9
:101BF000039A1A6B42F040021A631A6B02F0400219
:101C00000492049A1A6B42F480721A631B6B03F4F9
:101C100080730593059B10232793022428940025A5
:101C200029952A940E262B9627A91F4801F0A6FF76
:101C30004EF6FF732793289429952A942B9627A96B
:101C40001A4801F09BFFF7232793289429952A949B
:101C50002B9627A9164801F091FF4FF48053279344
:101C6000289429952A9409232B9327A9114801F038
:101C700085FF4FF446432793289429952A942B9661
:101C800027A90D4801F07AFF2A460521582001F0C6
:101C900029FC582001F05CFC75E7FFF7BBFC83E7EB
:101CA0000068014000380240001002400024024059
:101CB000002802400018024000200240F0B5ABB0FE
:101CC000044600212591269127912891299184226B
:101CD00004A818F091FC2268224B9A4201D02BB044
:101CE000F0BD4023049304A803F0B0FA002835D1D6
:101CF0001D4B5A6C42F010025A645A6C02F01002EA
:101D00000192019A1A6B42F002021A631A6B02F0F6
:101D100002020292029A1A6B42F001021A631B6BD2
:101D200003F001030393039B802325930227269747
:101D300000262796032528950724299425A90B48D2
:101D400001F01CFF4FF400732593269727962895E2
:101D5000299425A9064801F011FFC0E7FFF75AFCB6
:101D6000C6E700BF001001400038024000040240F6
:101D70000000024008B5FFF7F5FD08BD08B5FFF704
:101D800061FE08BD00B589B001460022362001F091
:101D9000A9FB362001F0DCFB154B1A6C42F0100257
:101DA0001A641B6C03F010030193019B02A903A8A2
:101DB00003F02EFA03F00CFA43000E48A0FB0323B5
:101DC0009B0C013B0C480D4A026040F2E732C260B6
:101DD000436000230361836003F01AFF18B1012000
:101DE00009B05DF804FB044803F070FDF8E700BF9C
:101DF0000038024083DE1B436C14002000100040BA
:101E00007047FEE7FEE7FEE7FEE7704708B50248C9
:101E100003F0A8FD08BD00BF6C14002008B50248FF
:101E200002F0AAFD08BD00BF0413002008B5024857
:101E300001F0A4FD08BD00BFC412002001207047BE
:101E400008B518F07FFB162303604FF0FF3008BD84
:101E500008B54FF0FF31FFF7F3FFFEE770B50C4612
:101E60001646002506E0AFF30080214601F8010B7D
:101E700001350C46B542F6DB304670BD70B50C46F8
:101E80001646002504E014F8010BAFF3008001357D
:101E9000B542F8DB304670BD4FF0FF3070474FF46D
:101EA00000534B60002070470120704700207047AE
:101EB00008B503460B4A126842B10A4A1068034447
:101EC0006A46934206D8074A136008BD054A064988
:101ED0001160F2E718F036FB0C2303604FF0FF307F
:101EE000F3E700BFB814002010270120704710B599
:101EF0000446042118F0C5FA204610BD012908B592
:101F000006D0022908D059B900F05EFB006808BD70
:101F100000F05AFB4068FAE700F056FB8068F6E7ED
:101F20000020F4E70048704718BE01900120704778
:101F300013B5002451B1036801AA01948DF8034040
:101F40009C680DF10303A04702B010BD0846FBE7F3
:101F5000408970478089704780887047837980887E
:101F6000184480B27047C07900F07F007047C07994
:101F7000C0097047704710B50446082118F081FA6F
:101F8000204610BD7047704700F596730868496891
:101F900003C3704770477047416070477047000047
:101FA000064BC0F84401C0F848310023C0F84C315A
:101FB00000F5A073C0F83C31704700BF612000906D
:101FC0000123037270477047704710B4416803469D
:101FD000C2689B68541001EB6200D20748BF0A59DF
:101FE0005DF8044B48BFD358184743682BB183684A
:101FF0002BB9C06800F001007047184670470120F7
:10200000704710B504460C2118F03BFA204610BD6D
:1020100010B50446102118F034FA204610BD10B552
:1020200004464FF4AC7118F02CFA204610BD08B5E8
:102030000AF046F8BDE808400AF0E8BB10B50446CF
:10204000D0F83C0158B10368DB68984738B1D4F840
:102050003C0103689B6898470023C4F83C3110BDDD
:102060002DE9F14FD0E9545A0746A86803681B6A66
:102070009847E32805D8454BA321454A454818F021
:102080002FFA686803681B6A98470F2803D8424BE9
:10209000A4213F4AF2E7E86803681B6A98470B28C7
:1020A00003D83E4BA5213A4AE8E7DFF8F8900AF05A
:1020B00007F80AF00BF8D9F8000010B10368DB68E4
:1020C0009847D9F8000010B103681B689847DFF8FB
:1020D000D880D8F8000010B103685B699847D7F83A
:1020E000380110B103685B689847D8F8000010B158
:1020F00003681B689847D7F8380110B103689B68DC
:102100009847E86800214FF0000B03685B6A984726
:10211000234B0446C0F804B00360594680F808B069
:10212000A86803685B6A9847064600F0B9FB6868D0
:10213000594603685B6A98470546314600F096FBAE
:10214000C9F80040C7F83851C8F80060E5B12B1D48
:10215000CAF8003030463368C5F808A0DB68F5637C
:1021600098472B6828461B689847214630460BF055
:102170008DFB236820461B699847236820465B69CE
:1021800001B0BDE8F04F18472B46E1E73CBE019097
:10219000CABE0190D4BF01901BC00190BEC0019087
:1021A000D0C10190A8240120A4240120F8B5044640
:1021B00017460E4609F0A6FF104B00251C60294665
:1021C0000F4BC4E954760F4E236030680E4BC4E9C0
:1021D0005255C4E950350368C4E94E559B68984789
:1021E000284600F0A5F9336893F876200AB1D86C38
:1021F00000B9986811F041FA2046F8BDB4240120D6
:1022000084C10190682401206CC10190064BC0F884
:102210004401C0F848310023C0F84C3100F5A073E8
:10222000C0F83C31704700BF61200090006A7047E1
:10223000406A704770478B888069DB0A0A6850F8EB
:1022400023001044704710B5C2B1137BB3B1547B67
:10225000D27A240204F4E0641443C26998B202EB17
:10226000840213888B4202D192F9020010BD05D876
:102270000138043280B20028F3D1F7E70020F5E7F7
:1022800010B50446282118F0FCF8204610BD0000C7
:1022900030B589B00446BDF850500695BDF84C5095
:1022A00005959DF8405004959DF83C5003959DF888
:1022B000385002959DF8345001959DF830500095A6
:1022C0000AF044FF064B20462360119BA361129B3A
:1022D000E361159B2362169B636209B030BD00BFAA
:1022E000F4C101907047000030B5164D8DB02C78C8
:1022F000BFF35B8F14F0010420D1284618F0C3F817
:10230000E0B13F23012210490793104B1048069378
:10231000104B08940394CDE904430423CDE9013222
:102320000A230F2200933223CDE90944FFF7B0FFBF
:10233000094818F0F3F8284618F0B1F804480DB031
:1023400030BD00BFBC1400209C10109098CB0190B1
:10235000C0140020A4CB0190E5220090704700003B
:1023600030B5154D8DB02C78BFF35B8F14F00104A0
:102370001ED1284618F087F8D0B13F2301220F491B
:1023800007930F4B0F4806930F4B08940394009448
:10239000CDE904430423CDE90944CDE901320A2300
:1023A000FFF776FF094818F0B9F8284618F077F8D3
:1023B00004480DB030BD00BFE8140020701110902B
:1023C0009CCB0190EC140020A8CB01905D230090E1
:1023D0007047000030B5154D8DB02C78BFF35B8F82
:1023E00014F001041ED1284618F04DF8D0B13F2357
:1023F00001220F4907930F4B0F4806930F4B089488
:1024000003940094CDE904430423CDE90944CDE9C4
:1024100001321423FFF73CFF094818F07FF82846E3
:1024200018F03DF804480DB030BD00BF1415002071
:1024300080111090A0CB019018150020ACCB01901A
:10244000D123009000207047002070470EB403B5E0
:1024500003AB002153F8042B01930AF0A7FC02B050
:102460005DF804EB03B070470CB407B504AB53F848
:10247000042B01930AF09AFC03B05DF804EB02B060
:1024800070470000436C10B5044673B3038F2BB93B
:10249000184BC021184A194818F022F8C38E00EBD7
:1024A00043035B8C0BB30BF021FF238F012B03D86D
:1024B000134BC521134AEEE7E28E40F63F10531C42
:1024C0009BB2092B194688BFA3F10A0104EB410115
:1024D000498C814209D10A2B04EB420228BF002318
:1024E000508C04EB4303588451842046BDE81040CF
:1024F0000BF0FEBD44C201904DC20190F8C20190A4
:1025000042C3019050C301900BF0BBBD10B586B023
:1025100002AC84E806001A460AAB214605930193F3
:10252000099B0093089B09F001F906B010BD00005B
:1025300038B518BB124B13481B681349B3B11A685E
:102540009C681A441C4402605A681A440A600F4B83
:1025500000221A8000F038F8054600F033F80C4BE2
:102560001C600C4B1D600C4B188007E00B4B03608C
:102570000B4B0B600B4B1C68002CE8D138BD00BF27
:102580004015002044150020481500204C1500205F
:10259000B8240120C0240120BC24012094111090F3
:1025A00090111090BC111090044B1B6853F821003F
:1025B000034B1B6803EB4000704700BF4815002029
:1025C0004415002001207047004870475015002036
:1025D00010B5054CFFF7FEFE2060FFF785FE60603A
:1025E000FFF7BEFEA06010BD501500200020704710
:1025F00081807047C1807047018170474181704779
:102600007047704770477047704710B4C4880368BC
:10261000121B84885B6D091B12B25DF8044B09B272
:1026200018474FF6FF7383814FF0FF33036213683F
:10263000C3611060704770477047704770477047BC
:1026400090F825201AB190F8242002B11860704744
:102650007047704710B50446E42117F012FF20467A
:1026600010BD0000D0F8E03001330A2B10B504464D
:10267000C0F8E03006D10221034801F02EFC00230F
:10268000C4F8E03010BD00BF00200240036870B500
:1026900004461B6B154698472368204629465B6B0A
:1026A000BDE87040184770B504461D46BDF910607E
:1026B000FFF7ECFF2368294620469B6B9847236869
:1026C00031462046DB6BBDE870401847094A4FF49D
:1026D0008071026000228184FF21826280F82610CE
:1026E000C0E90122C0E90322C0E90522C0E90722AE
:1026F000704700BFC4C601902DE9F04F04468BB06F
:1027000000250AF017FF26463D4B04F16C08E563EF
:1027100046F8403B3046FFF7D9FF4046FFF7D6FF6B
:102720004FF480734FF0FF394FF4887BA4F8BC302E
:102730004FF07F4A334B04F198072A462946C4F8E4
:1027400098303046304BC4F8C850C4F8C0304FF60B
:10275000FF73A4F8D050A4F8C4304FF47F03C4F83A
:10276000D450C4F8CC304FF4F073C4F8E050CDF836
:1027700000B0C4E93695C4E92755C4E92955C4E930
:102780002B55C4E92D55FFF78EFF4FF4F0732A4601
:1027900029464046C4F868A0CDF800B0FFF783FF93
:1027A0006B2238460721C4F894A0FFF76FFFC4F8E6
:1027B000C8900DF110093946A4F8CC50484607F0EE
:1027C000A7FC04F1D40399E8070083E807000E4B47
:1027D00008A93846ADF82450089307F029FF201DBA
:1027E0003146039006F0BCF94146039806F0B8F96B
:1027F0000398394606F0B4F920460BB0BDE8F08FD7
:102800002CC4019034C6019034BE0190704710B5BD
:1028100004464FF4AC7117F034FE204610BD10B5DD
:102820000446D0F8540100F012F82046BDE81040EC
:1028300009F0F4BA10B50446FFF7B8FC014B204686
:10284000236010BD60C40190002202607047704791
:10285000704704387047704710B50446102117F0D0
:1028600010FE204610BDA0F10400F5E70022C16073
:102870008260044A10B502F108042032046042600C
:1028800010BD00BFA4C4019070477047FFF7E1BEC0
:1028900010B50446E42117F0F4FD204610BD0000F9
:1028A00010B50446FFF728FF014B2046236010BDFA
:1028B000D4C401907047002070477047014B1878CE
:1028C000704700BF6015002008B5FFF7F7FF00B1A3
:1028D00008BD00F08BFA024B01221A70F8E700BF26
:1028E0006015002008B5C82000F0B2FAFFF7ECFF31
:1028F00008BD70B582B0064600248DF80740FFF78A
:10290000E3FF254601E00134E4B285F00103022C27
:102910008CBF002303F0010363B1A821F0B200F0E3
:1029200081FA8DF807009DF80730DBB2512BEAD110
:102930000125E8E79DF8070002B070BD00B583B03F
:1029400000238DF807300221C0B200F06BFA8DF839
:1029500007009DF8073003F00F038DF807309DF84E
:102960000730DBB2052B02D900238DF807309DF824
:102970000720044B5A7000229A709DF8070003B09C
:102980005DF804FB601500202DE9F04782B0154684
:1029900000238DF807304F4A93785278934280F0A5
:1029A00096800F46092B06D8DFE803F0530B131B64
:1029B000232B333B434B4FF00008C146C2464146F0
:1029C0004EE04FF00B084FF00C094FF0090A0A21B6
:1029D00046E04FF011084FF012094FF00F0A102196
:1029E0003EE04FF017084FF018094FF0150A162176
:1029F00036E04FF01D084FF01E094FF01B0A1C2156
:102A00002EE04FF023084FF024094FF0210A222135
:102A100026E04FF029084FF02A094FF0270A282115
:102A20001EE04FF02F084FF030094FF02D0A2E21F5
:102A300016E04FF035084FF036094FF0330A3421D5
:102A40000EE04FF03B084FF03C094FF0390A3A21B5
:102A500006E04FF005084FF006094FF0030A042185
:102A6000C4B2204600F0DEF98DF807009DF807306B
:102A7000194E33805146204600F0D4F98DF80700F6
:102A80009DF807301B0203F47063328813439BB236
:102A900033803B804946204600F0C4F98DF807009A
:102AA0009DF8073033804146204600F0BBF98DF891
:102AB00007009DF807301B0203F47063328813434C
:102AC0009BB233802B80034A93780133937002B01A
:102AD000BDE8F087601500205C15002008B50122D4
:102AE000A421C0B200F08AF908BD08B50022A421D3
:102AF000C0B200F083F908BD08B5FFF7F6FF08BDC6
:102B000010B582B00C4600238DF807300121C0B209
:102B100000F088F98DF807009DF80730236002B0B7
:102B200010BD00002DE9F04182B01D4600238DF854
:102B30000730334B5B788B425ED91646092906D89D
:102B4000DFE801F036090E13181D22272C3100276B
:102B5000B846394630E00E274FF00D0809212BE02A
:102B600014274FF013080F2126E01A274FF01908F9
:102B7000152121E020274FF01F081B211CE02627EC
:102B80004FF02508212117E02C274FF02B08272193
:102B900012E032274FF031082D210DE038274FF099
:102BA0003708332108E03E274FF03D08392103E084
:102BB00008274FF007080321C4B2204600F032F97D
:102BC0008DF807009DF807309B09089A136041466D
:102BD000204600F027F98DF807009DF80730336094
:102BE0003946204600F01EF98DF807009DF80730A1
:102BF0001B0903F004032B6002B0BDE8F08100BFA5
:102C00006015002070B58AB0444B834243D0444CD9
:102C1000236B43F002032363236B03F0020303934C
:102C2000039B4FF4807305931223069300250795A9
:102C300002230893042309933A4E05A9304600F075
:102C40009DFF4FF40073059305A9304600F096FFF1
:102C5000236C43F400132364236C03F400130493E4
:102C6000049B236A43F400132362236A23F40013B2
:102C700023622A460F211F2000F034FC1F2000F0A1
:102C800067FC2A460F21202000F02CFC202000F0B9
:102C90005FFC0AB070BD224C236B43F080032363BA
:102CA000236B03F080030193019B80230593122380
:102CB00006930025079502230893042309931A4ECF
:102CC00005A9304600F05AFF4FF48073059305A91B
:102CD000304600F053FF236C43F400032364236C5D
:102CE00003F400030293029B236A43F4000323626C
:102CF000236A23F4000323622A460F21482000F0B0
:102D0000F1FB482000F024FC2A460F21492000F066
:102D1000E9FB492000F01CFCBBE700BF6415002064
:102D20000038024000040240001C024010B5044676
:102D300001F0C6FCA0B90C4B9C4212D00B4B236097
:102D40000B4B63600023A3600122E2602361636197
:102D5000E36123622046FFF755FF204601F08AFA1F
:102D600010BD044B2360EBE76415002000540040C5
:102D700032279140005C004010B5044601F0D9FABA
:102D80002046FFF7D3FF10BD70B584B005460C4652
:102D90004FF47A710291BDF82410019108990091C5
:102DA000214601F0DFFA064610B9304604B070BD86
:102DB00021462846FFF7E0FFF7E770B584B00546E7
:102DC0000C464FF47A710291BDF8241001910899D4
:102DD0000091214601F09CFB064610B9304604B034
:102DE00070BD21462846FFF7C7FFF7E708B5024840
:102DF000FFF79CFF08BD00BF6415002000B585B03B
:102E00008DF80F20012301930DF10F0200920A4665
:102E100001460348FFF7B8FF05B05DF804FB00BFAB
:102E20006415002000B585B00A4600238DF80F30E8
:102E3000012301930DF10F01009101460348FFF7B3
:102E4000BCFF9DF80F0005B05DF804FB6415002081
:102E500008B500F021FB08BD2DE9F04383B08146A1
:102E60004FF00008CDF80480204C01262660102782
:102E70006760A660C4F80C801D4D4FF6FF722146B6
:102E8000284602F0E7FC304600F006FB02232360F0
:102E90006760A660C4F80C804FF6FF722146284692
:102EA00002F0D8FC0323236067600823A360C4F802
:102EB0000C804FF6FF722146284602F0CBFC4FF4FF
:102EC00008730193042323606760A660019BE3609D
:102ED0004FF6FF722146284602F0BCFC49462846C0
:102EE00002F0D9FC03B0BDE8F08300BFB0150020AC
:102EF0009C16002070B58EB00646534B9A6B42F07C
:102F000001029A639A6B02F001020192019A1A6B14
:102F100042F480021A631A6B02F480020292029A4F
:102F20001A6B42F004021A631A6B02F00402039255
:102F3000039A1A6B42F008021A631A6B02F0080235
:102F40000492049A1A6B42F010021A631A6B02F090
:102F500010020592059A1A6B42F020021A631A6B4E
:102F600002F020020692069A1A6B42F040021A639F
:102F70001A6B02F040020792079A1A6B42F0800225
:102F80001A631B6B03F080030893089B02230A93C8
:102F900001220B920C930C230D930823099309A98A
:102FA0002A4800F0EBFD4CF20373099309A9284865
:102FB00000F0E4FD4FF68373099309A9254800F05A
:102FC000DDFD4FF63F03099309A9234800F0D6FD24
:102FD00048F23313099309A9204800F0CFFD2823B4
:102FE000099309A91E4800F0C9FD1E4C0025656023
:102FF0008023A3604FF40073E3604FF48063236188
:103000004FF4805363614FF48043A361E5614FF453
:103010000033236265620323A362E5622563124BDA
:1030200023603463A663204600F046FC204600F08F
:10303000DDFB2A460F21382000F054FA382000F03A
:1030400087FA0EB070BD00BF003802400008024091
:10305000000C024000100240001402400018024020
:10306000001C02403C1600201064024038B51B4C86
:103070001B4B23601B4D02232B6007216960042238
:10308000AA60E9602B616B61AB6100216160A160A6
:10309000E26010232361402363614FF48073A361D6
:1030A000E1614FF4006323624FF480536362A162D5
:1030B0002046FFF71FFF2946204602F09DFB48B13E
:1030C000094B01221A7040F20360FFF7C5FE064B60
:1030D000187838BD044B00221A70F4E79C160020C3
:1030E000400100A0C01500203500002008B53820A0
:1030F00000F03CFA0248034B036000F0DDFB08BD22
:10310000DC1500201064024008B50A480A4B036031
:1031100002F092FB48B1094B01221A7000210548C8
:10312000FFF7E4FF054B187808BD044B00221A7026
:10313000F4E700BF9C160020400100A034000020EE
:1031400010B50D4B18800D4B19800D4C2368702065
:103150009847636870209847512801D0032010BD1C
:10316000084A14607020084A1070084A082111703B
:10317000E36898470020F2E70217002004170020B8
:103180000C000020FC160020D016002000170020A4
:1031900010B582B004460023019301A91E4B187894
:1031A000FFF7AEFC019B1C2B12D81C2B31D8DFE89B
:1031B00003F0193030303030303030303030303093
:1031C00030301C3030302030303024303030280067
:1031D000402B1AD0492B03D10623A362002019E00B
:1031E000012017E00020A06214E00123A362002068
:1031F00010E00223A36200200CE00323A36200205E
:1032000008E00423A362002004E00523A362002059
:1032100000E0012002B010BDD016002070B592B0C1
:1032200005460023059304930393694B1B681B69B0
:10323000684A107898472870002800F0C68000245B
:103240001FE012AA02EB440232F8241C22F80C1CE4
:1032500032F8301C22F8181C27E09BB25B1A9BB294
:1032600056E092B2921B92B25FE005EB44035980A4
:10327000231D05EB43039E807BE02B190122DA76A8
:1032800001342B78A34240F29D80514B1B685B694F
:1032900006AA02EB440209A901EB44014D4800785B
:1032A00098474D4B1B78012BCBD013F0020F08D061
:1032B00012AA02EB440131F8242CC2F5805221F805
:1032C0000C2C13F0040F08D012AA02EB440131F8C1
:1032D000302CC2F5805221F8182C13F0080F0AD0B8
:1032E00012AB03EB440333F8242C23F8182C33F8E7
:1032F000302C23F80C2C12AB03EB440333F80C1CDA
:10330000364B53F824309942A7D99BB2CB1A9BB2C3
:1033100012AA02EB440232F8186C314A52F8242007
:1033200096429ED992B2B21A92B21344052B05DD91
:103330002A4B43F824102A4B43F82460254B187875
:10334000702892D0254B53F82420264B1B8802FB73
:1033500003F31B0B05EB44025380214B53F824204D
:10336000214B1B8802FB03F31B0B221D05EB4202C2
:10337000938003AB009304AB05AA2146FFF7D2FB71
:103380002B19059A9A75049A83F82020039B032B26
:103390003FF676AF01A252F823F000BF7B320090D7
:1033A000AD330090B5330090BD3300902B1902224D
:1033B000DA7665E72B190322DA7661E72B1900220A
:1033C000DA765DE72846FFF7E3FE12B070BD00BF76
:1033D000FC160020D016002000170020D416002074
:1033E000E8160020021700200417002010B4144A29
:1033F000D2F8883043F47003C2F88830114B196852
:1034000041F001011960002098601C680E492140BC
:1034100019600E495960196821F480211960D8603B
:10342000996B41F0010199634FF020410B6823F043
:1034300001030B604FF0104393605DF8044B70473D
:1034400000ED00E000380240FFFFF6FE10300024DF
:1034500008B5074A136843F480731360032000F033
:103460002FF80020FEF78EFCFEF726FB002008BD9B
:10347000003C0240034A1168034B1B780B44136065
:10348000704700BF081700203C000020014B18685F
:10349000704700BF0817002038B50446FFF7F6FF55
:1034A0000546B4F1FF3F02D0044B1B781C44FFF7E4
:1034B000EDFF401BA042FAD338BD00BF3C00002006
:1034C0000649CB6823F4E0631B041B0C000200F4E4
:1034D000E0600343024A1A43CA60704700ED00E00F
:1034E0000000FA0500B5174BDB68C3F30223C3F1F4
:1034F000070CBCF1040F28BF4FF0040C03F1040EBD
:10350000BEF1060F14D9033B4FF0FF3E0EFA0CFC40
:1035100021EA0C0199400EFA03F322EA030319434E
:10352000002807DB0901C9B2074B19545DF804FBF9
:103530000023E9E700F00F000901C9B2034B195459
:10354000F4E700BF00ED00E000E400E014ED00E06F
:10355000002807DB00F01F02400901239340024AC4
:1035600042F82030704700BF00E100E000280CDB8B
:1035700000F01F024009012393402030034A42F823
:103580002030BFF34F8FBFF36F8F704700E100E033
:10359000BFF35F8F044B5A6A22F480325A620022D2
:1035A000C3F89420704700BF00ED00E040F0010038
:1035B000054BC3F894005A6A42F480325A62BFF352
:1035C0004F8FBFF36F8F704700ED00E04278164BCE
:1035D000C3F898200378FBB14368134AC2F89C30C3
:1035E000017BC37A1B0643EA0173817A43EAC14334
:1035F000417B43EA8143817B43EA4143C17B43EA08
:103600000143417A43EA0123017A43EA4103017805
:103610000B43C2F8A0307047034B0022C3F89C2034
:10362000C3F8A020704700BF00ED00E0002838D0AC
:1036300010B50446437F1BB30223637723791BBB7A
:103640002368194A5A612268936823F0180393602B
:10365000637913BB23684FF0FF321A6122689368C5
:1036600023F0600361690B4393602268936823F041
:103670008003A1690B43936001236377002010BD91
:103680000377FEF739FAD7E7E268A168204600F031
:103690000DF80028DCD00120F1E7236822691A61C7
:1036A000DCE70120704700BFB71DC10410B41F2321
:1036B0001C46013B34B103F01F0C21FA0CFC1CF03A
:1036C000010FF5D0182A22D8DFE802F00F212121BE
:1036D000212121211D2121212121212119212121E6
:1036E000212121210D00062B15D80368596101689D
:1036F0008B6823F018031A438A60002008E0072B28
:10370000F3D9012004E00F2BEFD9012000E00120C4
:103710005DF8044B70470120FAE7000010B401681F
:10372000CAB2103A0A4BA3FB02431B09094CE35CE3
:10373000C3655F2A07D9084B0B4004338365806D4E
:103740005DF8044B7047044B0B408365F7E700BFFF
:10375000ABAAAAAA18C5019000FCFFFF836A826980
:1037600092B9012B0AD0022B02D00BB10020704776
:10377000C36A13F0807F28D100207047C36AB3F179
:10378000C07F24D000207047B2F5005F09D0022B23
:1037900025D9032B25D1C36A13F0807F23D10020C4
:1037A0007047032B03D8DFE803F01404140A002049
:1037B0007047C36A13F0807F0DD100207047C36A41
:1037C000B3F1C07F09D0002070470120704701206D
:1037D0007047012070470120704701207047012089
:1037E00070470020704701207047000070B5044604
:1037F000FFF74CFE002C5BD00546022384F83530E1
:10380000002384F834302268136823F00103136026
:1038100023681A6812F0010F0AD0FFF737FE431B26
:10382000052BF5D920236365032084F8350070BD8E
:103830001A68204810406168A2680A43E1680A4398
:1038400021690A4361690A43A1690A43E1690A439C
:10385000216A0A430243616A04291ED01A6026685D
:10386000756925F00705636A1D43042B07D1A36A18
:103870001D43E36A1BB12046FFF770FF90B97561E5
:103880002046FFF74BFFE26D3F239340836000200B
:103890006065012384F83530C9E7E16A206B014394
:1038A0000A43DBE740236365012084F83500BEE767
:1038B0000120BCE73F8010F000282DD038B5054628
:1038C00090F83500C0B2022825D02A68136823F08A
:1038D000010313602B6800241C602B685C602B685C
:1038E0009C602B68DC602B681C612B6821225A616C
:1038F0002846FFF713FFEA6D3F2393408360EC6394
:103900002C646C64AC64EC642C656C6585F83540A3
:1039100085F83440204638BD0120704738B310B5D3
:10392000044690F83930EBB1022384F8393022682C
:10393000136823F4403361680B4313602268536BB0
:1039400023F00703A1680B4353632268116C094BF2
:103950000B40E1680B4313640020E063012384F80B
:10396000393010BD80F83830FEF7DCF8DCE7012094
:10397000704700BF00C0FFFF7047704770B5044636
:1039800003685D681E6815F0010F16D016F4807F7D
:1039900013D01A6822F480721A60C36B43F00103DB
:1039A000C363036801229A60042380F8393000233E
:1039B00080F83830436903B1984715F0200F18D0CC
:1039C00016F4005F15D02268136823F400531360C7
:1039D000236820229A60E36B43F00203E36304232D
:1039E00084F83930002384F8383063690BB12046FD
:1039F000984715F0080F18D016F4006F15D02268FC
:103A0000136823F400631360236808229A60E36B51
:103A100043F00403E363042384F83930002384F87B
:103A2000383063690BB12046984715F0040F02D077
