:020000040800F2
:10000000B0080020F51E0008CD1E0008CF1E000815
:10001000D11E0008D31E0008D51E000800000000F5
:10002000000000000000000000000000D71E0008D3
:10003000D91E000800000000DB1E0008DD1E0008BD
:100040001D1F0008211F0008251F0008291F000888
:100050002D1F0008311F0008351F0008391F000838
:100060003D1F0008411F0008451F0008491F0008E8
:100070004D1F0008511F0008551F0008591F000898
:100080005D1F0008611F0008651F0008691F000848
:100090006D1F0008711F0008751F0008791F0008F8
:1000A0007D1F0008811F0008851F0008891F0008A8
:1000B0008D1F0008911F0008951F0008991F000858
:1000C0009D1F0008A11F0008A51F0008A91F000808
:1000D000AD1F0008B11F0008B51F0008B91F0008B8
:1000E000BD1F0008C11F0008C51F0008C91F000868
:1000F000CD1F0008D11F0008D51F0008D91F000818
:10010000DD1F0008E11F0008E51F0008E91F0008C7
:10011000ED1F0008F11F0008F51F0008F91F000877
:10012000FD1F000801200008052000080920000824
:100130000D200008112000081520000819200008D3
:100140001D20000821200008252000082920000883
:100150002D20000831200008352000083920000833
:100160003D200008412000084520000849200008E3
:100170004D20000851200008552000085920000893
:100180005D20000861200008652000086920000843
:100190006D200008712000087520000879200008F3
:1001A0007D200008812000088520000889200008A3
:1001B0008D20000891200008952000089920000853
:1001C0009D200008A12000087CB50400012600F055
:1001D000FBFB0500002C01D101205AE0206A4028D9
:1001E00094F84000012801D1022052E0012084F857
:1001F000400094F8410000280AD1002084F8400013
:10020000200000F0E0FB41F28831200000F0B4FA59
:100210002068006830F4F850A168491E50EA0120B7
:1002200021680860A06C00902B0000222021200093
:1002300000F0A4FA0100C9B2002926D121680A6899
:1002400014490A40616852EA0162E1680A43E169BF
:100250000A43216A0A4321680A6021684A680E49F4
:100260000A40216952EA014261690A43A1690A43CD
:1002700021684A602168096851F001012268116013
:1002800000216164012184F84110002184F84010AC
:10029000C0B276BD2FFFFF00FEF8E0FF10B50400EE
:1002A000002C01D101201AE094F84000012801D16E
:1002B000022014E0012084F8400020680068400813
:1002C000400021680860200000F084FB002060648A
:1002D000002084F84100002084F84000002010BD78
:1002E0002DE9F84304000D0016005FF0010800F04E
:1002F0006BFB0700A8690028E8690028286A002825
:1003000094F84000012801D102203DE0012084F84A
:10031000400094F8410001282FD1002060640220A1
:1003200084F8410000963B0000222021200000F0CC
:1003300025FA81464846C0B2002820D10022290073
:10034000200000F044FA686A002812D100963B00B1
:1003500001220221200000F011FA81464846C0B275
:1003600000280CD102202168C860012084F84100D7
:1003700005E0012084F8410001E05FF0020900205F
:1003800084F840004846C0B2BDE8F2832DE9F84346
:1003900005000C001600002700F016FB80462868B8
:1003A00010F1200995F84000012801D102205EE0FB
:1003B000012085F8400095F84100012850D1002027
:1003C0006864002C45D0122085F841002868006937
:1003D000401CE86228680069401CA8626C622868BA
:1003E000406930F0406029684861E86A002815D00B
:1003F0000096434601220421280000F0BFF90700BF
:100400003800C0B2002809D1686A411C69620078CE
:1004100089F80000E86A401EE862E6E73800C0B2EA
:10042000002812D10096434601220221280000F044
:10043000A5F907003800C0B2002806D102202968BB
:10044000C860280000F04CF90700012085F8410041
:1004500008E0686C50F0080068640120070001E0C3
:1004600002200700002085F840003800C0B2BDE837
:10047000F2832DE9FC4705000C001600002700F070
:10048000A3FA80462868D0F81890286810F1200A4E
:1004900095F84000012801D1022063E0012085F891
:1004A000400095F84100012855D100206864002CD7
:1004B0004AD0222085F8410028680069401CA863C2
:1004C00028680069401C68632C632868406930F024
:1004D000406050F08060296848612868C0F8189032
:1004E000A86B002815D0009643460122062128005B
:1004F00000F044F907003800C0B2002809D1286B89
:10050000411C29639AF800100170A86B401EA86373
:10051000E6E73800C0B2002812D100964346012217
:100520000221280000F02AF907003800C0B2002894
:1005300006D102202968C860280000F0D1F8070021
:10054000012085F8410008E0686C50F008006864FC
:100550000120070001E002200700002085F840008C
:100560003800C0B2BDE8F6872DE9FC4704000D0055
:1005700016001F005FF0010800F026FA8146A86906
:100580000028E8690028286A002894F8400001281B
:1005900001D102204CE0012084F8400094F8410091
:1005A00001283ED100206064422084F84100009779
:1005B0004B4600222021200000F0E0F88246504601
:1005C000C0B200282FD13068216888627068216825
:1005D0004862B0682168C8622068016831F440014F
:1005E0003069014351F4800120680160F068A8621D
:1005F0005FF000622900200000F0E9F800974B4608
:1006000001220821200000F0B9F882465046C0B20D
:10061000002808D108202168C860012084F8410022
:1006200001E05FF0020A002084F840005046C0B2AA
:10063000BDE8F6872DE9F84304000D0016005FF0D1
:10064000010800F0C1F90700A8690028E86900283E
:10065000286A002894F84000012801D102203DE0DA
:10066000012084F8400094F8410001282FD1002097
:100670006064822084F84100A06C00903B0000225E
:100680002021200000F07AF881464846C0B20028B8
:100690001FD12068016831F00801706801432068AB
:1006A0000160706808280BD1306821680863102049
:1006B0002168C8602068006850F4801021680860D4
:1006C0005FF040622900200000F081F801E05FF057
:1006D0000209002084F840004846C0B2BDE8F28319
:1006E0007CB50400002500F06FF9060094F8410085
:1006F00080073ED5002084F840002068006840074D
:1007000011D52068006830F0040021680860E06BB3
:1007100000F07EF905002800C0B2002803D0606C0C
:1007200050F0040060642068006850F00200216806
:100730000860A06C0090330001220221200000F02C
:100740001DF805002800C0B200280BD10220216846
:10075000C860A06C0090330000222021200000F02F
:100760000DF805002800C0B2002802D1012084F84D
:1007700041002800C0B276BD816470472DE9F04188
:1007800005000E0090461F00069C286880683042D5
:1007900001D0012000E000204146C0B2C9B2884229
:1007A00012D014F1010FF0D0002C04D000F00CF99D
:1007B000C01B8442E9D2042085F84100686C50F0E7
:1007C00001006864012000E00020BDE8F08110B461
:1007D0004B6A002B06D0B2F1406F03D08B6A5B1ED0
:1007E000046823618B69002B79D00B6A002B3ED003
:1007F0008B680468E361CB69002B20D0CC6A0B6B5B
:100800001C434B6B1C434B6A1C434B6954EA8344A7
:100810000B691C430B6A1C43CB681C43CB691C430C
:100820008B691C430B681C43144303685C61B2F181
:10083000406F00F0C6804B680468A361C1E0CC6AD9
:100840000B6B1C434B6B1C434B6A1C434B6954EAB8
:1008500083440B691C430B6A1C43CB691C438B69A3
:100860001C430B681C43144303685C61A9E0CB691B
:10087000002B1ED0CC6A0B6B1C434B6B1C434B6A8A
:100880001C434B6954EA83440B6A1C43CB681C43EA
:10089000CB691C438B691C430B681C4314430368DE
:1008A0005C61B2F1406F00F08C804B680468A3611A
:1008B00087E0CC6A0B6B1C434B6B1C434B6A1C439D
:1008C0004B6954EA83440B6A1C43CB691C438B6914
:1008D0001C430B681C43144303685C6171E00B6AA2
:1008E000002B39D08B680468E361CB69002B1DD0E5
:1008F000CC6A0B6B1C434B6B1C434B6A1C434B6910
:1009000054EA83440B691C430B6A1C43CB681C43A9
:10091000CB691C438B691C43144303685C61B2F1CF
:10092000406F4ED04B680468A3614AE0CC6A0B6B01
:100930001C434B6B1C434B6A1C434B6954EA834476
:100940000B691C430B6A1C43CB691C438B691C431A
:10095000144303685C6134E0CB69002B1BD0CC6A84
:100960000B6B1C434B6B1C434B6A1C434B6954EA97
:1009700083440B6A1C43CB681C43CB691C438B69C3
:100980001C43144303685C61B2F1406F19D04B689B
:100990000468A36115E04B6A002B12D0CC6A0B6B84
:1009A0001C434B6B1C434B6A1C434B6954EA834406
:1009B0000B6A1C43CB691C438B691C4314430368BB
:1009C0005C6110BC7047704701480068704700BF09
:1009D000AC000020704730B4002513E050F8042B21
:1009E000D30744BFA9F101039A18091F042942F84B
:1009F000045BFAD213468C0744BF15809B1CC907C1
:100A000048BF1D7050F8041B0029E7D130BC704767
:100A100070B50400A56DFFF7D7FF060094F8350008
:100A2000022806D080206065002084F83400012070
:100A30003BE02068006830F01600216808602068FC
:100A4000406930F0800021684861206C002802D1A4
:100A5000A06C002805D02068006830F008002168EC
:100A6000086020680068400840002168086020682D
:100A70000068C0070ED5FFF7A7FF801B0628F6D336
:100A800020206065002084F83400032084F83500BD
:100A900003200AE03F21E06D8140A960002084F836
:100AA0003400012084F83500002070BD2DE9FC41A0
:100AB00004000026002C01D10120D8E12078C007D5
:100AC0006DD5DFF89405016811F00C01042909D0F7
:100AD000006810F00C0008280ED1DFF880050068CF
:100AE000400209D5DFF86C050068800357D56068BF
:100AF000002854D10120BAE16068B0F5803F06D1EA
:100B0000DFF85005016851F48031016026E060682B
:100B100000280AD1DFF83C05016831F4803101601A
:100B2000016831F48021016018E06068B0F5A02F01
:100B30000AD1DFF82005016851F4802101600168C5
:100B400051F48031016009E0DFF80805016831F4F3
:100B500080310160016831F4802101606068002803
:100B60000ED0FFF731FF0500DFF8E80400688003CE
:100B700015D4FFF729FF401B6528F5D3032076E144
:100B8000FFF722FF0500DFF8CC040068800306D5DC
:100B9000FFF71AFF401B6528F5D3032067E1207893
:100BA000800752D5DFF8B004016811F00C0F09D0AE
:100BB000006810F00C00082816D1DFF8A0040068C7
:100BC000400211D4DFF88C040168890704D5E1687C
:100BD000012901D001204AE1016831F0F8012269C0
:100BE00051EAC201016030E0E06800281AD0DFF865
:100BF0006474386850F001003860FFF7E5FE0500C6
:100C00003868800706D4FFF7DFFE401B0328F7D3C0
:100C100003202CE1386830F0F800216950EAC10067
:100C2000386012E0DFF82C74386840084000386003
:100C3000FFF7CAFE05003868800706D5FFF7C4FE37
:100C4000401B0328F7D3032011E12078000728D5A3
:100C50006069002812D0DFF80874386850F001008D
:100C60003860FFF7B1FE05003868800719D4FFF738
:100C7000ABFE401B0328F7D30320F8E0DFF8E07356
:100C80003868400840003860FFF79EFE050038686D
:100C9000800706D5FFF798FE401B0328F7D30320F3
:100CA000E5E02078400740F18780DFF8C0733868BE
:100CB000C0000AD4386850F080503860386810F0AE
:100CC00080500090009801200600DFF8A483D8F837
:100CD0000000C00513D4D8F8000050F48070C8F8A4
:100CE0000000FFF771FE0500D8F80000C00506D42B
:100CF000FFF76AFE401B6528F6D30320B7E0A06823
:100D0000012806D1DFF86C03016851F00101016090
:100D100025E0A06800280AD1DFF8580301684908D7
:100D200049000160016831F00401016017E0A0682A
:100D300005280AD1DFF83C03016851F00401016085
:100D4000016851F00101016009E0DFF82803016842
:100D5000490849000160016831F004010160A068A0
:100D6000002810D0FFF730FE0500DFF80803006808
:100D7000800719D4FFF728FE401B41F289318842D1
:100D8000F3D3032073E0FFF71FFE0500DFF8E40252
:100D90000068800708D5FFF717FE401B41F2893134
:100DA0008842F3D3032062E03000C0B2012803D1AF
:100DB000386830F080503860A069002856D0DFF8DD
:100DC0009802006810F00C0008284DD0A069022895
:100DD00037D1DFF88072386830F080703860FFF704
:100DE000F3FD80463868800107D5FFF7EDFDB0EBD5
:100DF00008000328F6D3032039E0E169206A0143A3
:100E0000606A51EA8011A06A4008401E51EA004120
:100E1000E06A51EA006151F00051DFF840020160E0
:100E2000386850F080703860FFF7CEFD05003868F4
:100E300080011BD4FFF7C8FD401B0328F7D3032014
:100E400015E0DFF81072386830F080703860FFF716
:100E5000BBFD05003868800108D5FFF7B5FD401BD4
:100E60000328F7D3032002E0012000E00020BDE8C2
:100E7000F6812DE9F04104000D000026002C01D17F
:100E800001209FE0DFF8F071386810F00F00A842F1
:100E90000BD238680009000128433860386810F028
:100EA0000F00A84201D001208CE02078800719D5DE
:100EB0002078400705D5DFF8A001016851F4E05122
:100EC00001602078000705D5DFF88C01016851F436
:100ED00060410160DFF880110A6832F0F002A0681A
:100EE00002430A602078C00737D56068012806D120
:100EF000DFF860010068800311D4012062E06068BF
:100F0000022806D1DFF84C010068800107D40120D7
:100F100058E050480068800701D4012052E0DFF813
:100F20003881D8F800108908890060680143C8F842
:100F30000010FFF749FD0600D8F8000010F00C0083
:100F40006168B0EB810F08D0FFF73EFD801B41F2D6
:100F500089318842F0D3032034E0386810F00F0064
:100F600085420BD238680009000128433860386890
:100F700010F00F00A84201D0012023E020784007A4
:100F800006D535490A6832F4E052E06802430A6047
:100F90002078000707D53048016831F460412269A4
:100FA00051EAC201016000F00FF834492A4A126880
:100FB000C2F30312895CC8402B4908600F2000F07F
:100FC00061F80020BDE8F0812DE9F0410024002502
:100FD000002600272048006810F00C00002804D0EC
:100FE000042804D0082804D031E01E4830E024480A
:100FF0002EE0DFF86880D8F8000010F03F00040011
:10100000D8F8000040020CD5D8F80000C0F38810D2
:101010001B49A1FB00012200002300F059F8050044
:101020000BE0D8F80000C0F388100E49A1FB0001C6
:101030002200002300F04CF80500D8F80000C0F3AF
:101040000140401C40000600B5FBF6F000E00548FA
:10105000BDE8F08100380240083802400438024000
:10106000743802400024F40004000020403802409C
:101070000070004070380240003C0240E41E00084E
:1010800040787D0110B504004FF47A700D4909785D
:10109000B0FBF1F00C490968B1FBF0F000F0B0F9D9
:1010A000002801D001200CE0102C09D200222100E0
:1010B0005FF0FF3000F08FF904480460002000E08A
:1010C000012010BD080000200400002000000020C6
:1010D000BBBBE1B1B2F5803F80F07E80022A1ED911
:1010E0008C46B1FBF2F102FB11C31B0443EA10432F
:1010F000B3FBF2FC02FB1C3380B240EA0343B3FBB8
:10110000F2F002FB103240EA0C4000237047022A42
:1011100005D98446B0FBF2F002FB10C270474AB119
:1011200005D100F0010249085FEA30007047002253
:101130000023704700F078B90B0002000021002066
:101140007047904271EB030CF6D3B3F5803F2FD27A
:10115000F0B5B3FA83F7B1FA81F4A7F10F0E3D1B96
:101160005340CEF1200602FA0EF2F3415340B5F19E
:101170000F0746D80F3C2C444140C4F12006A04044
:10118000F1414140B1FBF3F603FB1611A2FB06450A
:10119000001BA94102D2761E8018594180EA010243
:1011A00021FA0EF362FA0EF200215A403046F0BDE9
:1011B00030B4B1FBF3FC03FB1C11A2FB0C45001B7C
:1011C000A94103D2ACF1010C8018594130BC024650
:1011D0000B46604600217047B2F1807F65D3F0B5C1
:1011E000B2FA82F7B1FA81F4C7F10F063D1B22FA79
:1011F00006F307F1110EF24120355A40B5F10F0701
:10120000B8D94140C4F12006A040F1414140B1FBB2
:10121000F3FC03FB1C11A2FB0C45001BA94103D2EC
:10122000BCF1010C801859410F2F12D30F3FC90395
:1012300041EA5041B1FBF3F603FB1611A2FB064550
:10124000D4EBC030A94102D2761E8018594146EA3B
:10125000CC3C07B34140C7F12006B840F1414140C2
:10126000B1FBF3F603FB1611A2FB0645001BA941D7
:1012700002D2761E8018594180EA010221FA0EF34B
:10128000C7F1200462FA0EF20CFA07F05A402CFA69
:1012900004F13043F0BD80EA010221FA0EF300218F
:1012A00062FA0EF260465A40F0BD8C46B1FBF2F194
:1012B00002FB11C31B0243EA1063B3FBF2FC02FB07
:1012C0001C331B024CEA002043EA1063B3FBF2FC20
:1012D00002FB1C331B024CEA002043EA1063B3FB01
:1012E000F2FC02FB1C331B024CEA002043EA1063B1
:1012F000B3FBF2FC02FB1C324CEA002000237047D7
:1013000010B410F00703DFF8044122684FF6FF0124
:101310000A40DFF8FC1051EA03210A43226010BCA6
:101320007047DFF8E8000068C0F30220704710B48F
:10133000020052B2002A05D40A01364B040064B2FE
:101340001A5508E00A01344B040064B214F00F048B
:10135000234403F8042C10BC704770B4030013F04E
:101360000704D4F10700052801D3042001E0D4F1DB
:101370000700251D072D01D2002500E0E51E0126EE
:1013800016FA00F0401E0140A94016FA05F56D1E40
:101390002A401143080070BC704710B50400601E5D
:1013A000B0F1807F01D301200EE0601E1B49086070
:1013B0000F215FF0FF30FFF7BAFF002018490860E7
:1013C000072018490860002010BD10B50400200057
:1013D000FFF796FF10BD2DE9F04104000D00160047
:1013E0000027FFF79EFF8046320029004046FFF7A6
:1013F000B4FF0100200040B2FFF799FFBDE8F08183
:1014000010B504002000FFF7C8FF10BD0CED00E090
:101410000000FA0500E400E018ED00E014E000E050
:1014200018E000E010E000E07047000010B5CC4C80
:10143000CC4820602000FEF731FF002801D00120B9
:1014400055E000F095F9C8480021C1610021016212
:1014500000214162002141610021C162002101633C
:10146000002141634FF40051C160C0480021016177
:101470000121C160102181605FF480014161012080
:1014800060600420A0601020E0608020B0FA80F04E
:10149000401E20614FF4A06060610020A061002028
:1014A000E061002020622000FEF78EFE002801D0BF
:1014B00001201CE0200000F01BF8002801D00120D2
:1014C00015E0200000F0ACF8002801D001200EE06B
:1014D000200000F04DF8002801D0012007E0200096
:1014E00000F028F8002801D0012000E0002010BD05
:1014F00070B504009C4D4FF48070A8616620286090
:101500000020686241F28836320029002000FEF790
:10151000E7FE002801D001200BE09920286032006E
:1015200029002000FEF7DCFE002801D0012000E0A9
:10153000002070BD1CB504008B494FF440708861D9
:10154000EB2008604FF44060C8615FF04070486273
:101550000A20486100200190002000906A46200087
:10156000FFF768F8002801D0012000E0002016BD38
:1015700030B58FB004004FF4807007908520019043
:1015800000200890002009905FF080700A900020F1
:10159000069001200B9000200C9000200D90002060
:1015A0000E9041F288352A0001A92000FEF798FE2E
:1015B000002801D0012031E02A0069462000FEF712
:1015C00058FF002801D0012028E0200000F09EF8FC
:1015D000002801D0012021E0812001909DF8001019
:1015E00011F00F010A225FF07060B0FA80F08240C3
:1015F00011438DF800102A0001A92000FEF770FEAB
:10160000002801D0012009E02A0069462000FEF7E9
:10161000BDFE002801D0012000E000200FB030BD49
:10162000F0B595B004004FF4807007900020099049
:101630000020069000200C9000200D9000200E90BD
:1016400010201190002013905FF48000149065200A
:101650000190002008905FF080750A9501200B90A2
:101660003F4E41F288373A0001A93000FEF738FEBC
:10167000002801D0012047E03A0069463000FEF71B
:10168000F8FE002801D001203EE006200190002055
:101690000A903A0001A93000FEF722FE002801D08E
:1016A000012031E002200F900220109001201290C2
:1016B000052001900A953B000FAA01A93000FEF712
:1016C00053FF002801D001201EE06120019001207D
:1016D0000B909DF8000010F03F0050F040008DF896
:1016E00000003A0001A93000FEF7FAFD002801D001
:1016F000012009E03A0069463000FEF747FE002865
:1017000001D0012000E0002015B0F0BD70B504004C
:10171000154D4FF44070A8610620286000206862D3
:1017200041F28836320029002000FEF7D9FD00285A
:1017300001D0012013E00D4A022010600220506009
:10174000052028605FF040706862330029002000A7
:10175000FEF70AFF002801D0012000E0002070BD44
:101760000C000020001000A0580000209000002075
:1017700010B586B03648016851F00201016000687A
:1017800010F00200059005983248016851F00201FE
:101790000160016831F0020101602F48016851F0D9
:1017A00002010160016811F00201059105990168CB
:1017B00051F008010160016811F0080105910599D7
:1017C000016851F010010160006810F010000590F0
:1017D0000598402000900A200490022001900120EA
:1017E0000290022003901D4C6946200000F03CF856
:1017F00004200090092004900020029069462000F7
:1018000000F032F84FF40060009009200490144C6E
:101810006946200000F028F84FF48050009009201D
:1018200004906946200000F01FF804200090092071
:10183000049069460B4800F017F84FF400500090F0
:10184000092004906946200000F00EF806B010BD93
:101850003838024018380240303802400004024054
:10186000000C0240001002402DE9F8410022002344
:10187000002400260025102D80F00B81012717FA87
:1018800005F213000A681A4014009C4240F0FF80E1
:101890004A68022A02D04A68122A1FD12A00D208B6
:1018A00000EB8202D2F820C05FF00F0E15F00702A5
:1018B000D2B292001EFA02FE3CEA0E0CD1F810E001
:1018C00015F00702D2B292001EFA02FE5EEA0C0C7C
:1018D00066462A00D20800EB82021662D0F800C0E9
:1018E0005FF0030E2A00D2B252001EFA02F23CEA66
:1018F000020C91F8048018F003082A00D2B25200BA
:1019000018FA02F858EA0C0CC0F800C04A68012A1C
:1019100008D04A68022A05D04A68112A02D04A68CB
:10192000122A1BD186682A00D2B252001EFA02F295
:101930009643D1F80C802A00D2B2520018FA02F86D
:1019400058EA060686604268AF40BA434F68C7F35C
:101950000017AF403A439446C0F804C0C6682A0056
:10196000D2B252001EFA02FE36EA0E068F682A0034
:10197000D2B2520097403E43C6604A68D20040F15E
:101980008680DFF81421176857F4804717601268C3
:1019900012F480420092009ADFF800C12A009208F7
:1019A0005CF822705FF00F0E15F00302D2B29200C5
:1019B0001EFA02FE37EA0E07DFF8E420904201D15A
:1019C000002631E0DFF8DC20904201D101262BE037
:1019D000DFF8D420904201D1022625E0DFF8CC20A8
:1019E000904201D103261FE0DFF8C420904201D1CC
:1019F000042619E02F4A904201D1052614E02E4A10
:101A0000904201D106260FE02C4A904201D10726D0
:101A10000AE02B4A904201D1082605E0294A90426B
:101A200001D1092600E00A26F6B215F00302D2B26F
:101A30009200964037432A0092084CF82270224EBA
:101A40003268A243D1F804C05FEACC3C00D52243FF
:101A500032601E4F3E68A643D1F804C05FEA8C3C5A
:101A600000D526433E601A4F3A68A243D1F804C01D
:101A70005FEACC2C00D522433A60164F3E68A6435D
:101A8000D1F804C05FEA8C2C00D526433E606D1C63
:101A9000F1E6BDE8F1810000443802400838014019
:101AA000000002400004024000080240000C024016
:101AB000001002400014024000180240001C0240C6
:101AC0000020024000240240003C0140043C014050
:101AD000083C01400C3C0140BFF34F8FBFF36F8FB8
:101AE000002049490860BFF34F8FBFF36F8F47480D
:101AF000016851F400310160BFF34F8FBFF36F8F66
:101B00007047BFF34F8FBFF36F8F4048016831F4C8
:101B10000031016000203C490860BFF34F8FBFF3E4
:101B20006F8F704710B4002039490860BFF34F8FA2
:101B300038480168C1F34E32C1F3C900030043F6CF
:101B4000E07010EA421050EA8370334C20601800B5
:101B5000431E0028F3D11000421E0028ECD1BFF331
:101B60004F8F2A48046854F480340460BFF34F8FC9
:101B7000BFF36F8F10BC704710B400202449086079
:101B8000BFF34F8F2148016831F480310160BFF30A
:101B90004F8F20480168C1F34E32C1F3C9000300E2
:101BA00043F6E07010EA421050EA83701B4C20604C
:101BB0001800431E0028F3D11000421E0028ECD16B
:101BC000BFF34F8FBFF36F8F10BC704780B500F02D
:101BD00072F800F07DF800F030F800F027F80028E7
:101BE00001D000F029F800F06CF800200C490860E2
:101BF0000C480D49096801605FF01041096881F3E4
:101C0000088800688047FEE750EF00E014ED00E030
:101C100084ED00E080ED00E060EF00E074EF00E0B4
:101C200010E000E0A80000200400009010B500249F
:101C3000FFF7FCFB204310BDFEE730B591B0002458
:101C4000012005905FF48030069002200B905FF435
:101C500080000C9019200D904FF4D8700E90022047
:101C60000F900820109005A8FEF720FF050028001F
:101C7000C0B2002800D0FEE700F03EF804002000CB
:101C8000C0B2002800D0FEE70F2000900220019093
:101C9000002002904FF4A05003904FF48050049025
:101CA00006216846FFF7E5F80100C9B2002900D017
:101CB000FEE711B030BD80B5FFF70EFFFFF732FF32
:101CC00001BD80B5FFF71DFFFFF756FF01BD000006
:101CD00080B50748016851F4807101600320FFF767
:101CE00074FB0F20FFF7CEF900F004F8002002BDCE
:101CF000003C0240704700007CB500241B4801688E
:101D000051F080510160006810F080500090009800
:101D1000154E306850F480303060FEF755FE0500F7
:101D2000104C2068C00308D4FEF74EFE401B40F262
:101D3000E9318842F4D3032013E0306850F40030D6
:101D40003060FEF741FE06002068800308D4FEF7ED
:101D50003BFE801B40F2E9318842F5D3032000E0CE
:101D6000002076BD04700040007000404038024002
:101D70000F48016851F4700101600E49086850F085
:101D80000100086000200C4A10600A680B480240FD
:101D90000A600B480B4A1060086830F48020086025
:101DA0000020094908605FF000600849086070473A
:101DB00088ED00E00038024008380240FFFFF6FEE0
:101DC00010300024043802400C38024008ED00E0D6
:101DD00030B450F8041B79B10268436802440830FB
:101DE000DC0744BFA9F10104E31852F8045B43F88F
:101DF000045B091FF9D1ECE730BC704710B5074907
:101E000079441831064C7C44163404E00A68081DF5
:101E1000114488470146A142F8D110BD2C000000B2
:101E20004C0000004EF68851CEF20001086840F4E4
:101E300070000860BFF34F8FBFF36F8F4FF00070DB
:101E4000E1EE100A704700008FEBFFFFA4000000D6
:101E50000C0000200000000079FFFFFF0C000000D4
:101E6000B0000000000000200000000000F00DF8AD
:101E7000002801D0FFF7C2FFAFF300800020AFF3CE
:101E80000080FFF7A3FE00F002F80120704700F089
:101E900001B800000746384600F002F8FBE70000F2
:101EA00080B5AFF30080024A11001820ABBEFBE7FB
:101EB0002600020003480168034A1278891801606D
:101EC000704700BFAC000020080000207047FEE70C
:101ED000FEE7FEE7FEE770477047704780B5FFF703
:101EE000E9FF01BD00000000000000000102030442
:101EF000060708090148804701480047711D00088E
:101F0000051F0008AFF30080FFF78CFFFFF7AEFF5F
:101F1000100000000024F40001000000FFF7FEBFE5
:101F2000FFF7FEBFFFF7FEBFFFF7FEBFFFF7FEBFE5
:101F3000FFF7FEBFFFF7FEBFFFF7FEBFFFF7FEBFD5
:101F4000FFF7FEBFFFF7FEBFFFF7FEBFFFF7FEBFC5
:101F5000FFF7FEBFFFF7FEBFFFF7FEBFFFF7FEBFB5
:101F6000FFF7FEBFFFF7FEBFFFF7FEBFFFF7FEBFA5
:101F7000FFF7FEBFFFF7FEBFFFF7FEBFFFF7FEBF95
:101F8000FFF7FEBFFFF7FEBFFFF7FEBFFFF7FEBF85
:101F9000FFF7FEBFFFF7FEBFFFF7FEBFFFF7FEBF75
:101FA000FFF7FEBFFFF7FEBFFFF7FEBFFFF7FEBF65
:101FB000FFF7FEBFFFF7FEBFFFF7FEBFFFF7FEBF55
:101FC000FFF7FEBFFFF7FEBFFFF7FEBFFFF7FEBF45
:101FD000FFF7FEBFFFF7FEBFFFF7FEBFFFF7FEBF35
:101FE000FFF7FEBFFFF7FEBFFFF7FEBFFFF7FEBF25
:101FF000FFF7FEBFFFF7FEBFFFF7FEBFFFF7FEBF15
:10200000FFF7FEBFFFF7FEBFFFF7FEBFFFF7FEBF04
:10201000FFF7FEBFFFF7FEBFFFF7FEBFFFF7FEBFF4
:10202000FFF7FEBFFFF7FEBFFFF7FEBFFFF7FEBFE4
:10203000FFF7FEBFFFF7FEBFFFF7FEBFFFF7FEBFD4
:10204000FFF7FEBFFFF7FEBFFFF7FEBFFFF7FEBFC4
:10205000FFF7FEBFFFF7FEBFFFF7FEBFFFF7FEBFB4
:10206000FFF7FEBFFFF7FEBFFFF7FEBFFFF7FEBFA4
:10207000FFF7FEBFFFF7FEBFFFF7FEBFFFF7FEBF94
:10208000FFF7FEBFFFF7FEBFFFF7FEBFFFF7FEBF84
:10209000FFF7FEBFFFF7FEBFFFF7FEBFFFF7FEBF74
:0420A000FFF7FEBF89
:0200000490006A
:1000000000000520397E0090DD270090DF2700905A
:10001000E1270090E3270090E52700900000000012
:10002000000000000000000000000000517200907D
:10003000E727009000000000F172009055730090D7
:10004000897E0090897E0090897E0090897E009054
:10005000897E0090897E0090897E0090897E009044
:10006000897E0090897E0090897E0090897E009034
:10007000897E0090897E0090897E0090897E009024
:10008000897E0090897E0090897E0090897E009014
:10009000897E0090897E0090897E0090897E009004
:1000A000897E0090897E0090897E0090897E0090F4
:1000B000897E0090897E0090897E0090897E0090E4
:1000C000897E0090897E0090897E0090897E0090D4
:1000D000897E0090897E0090897E0090897E0090C4
:1000E000897E0090897E0090897E0090897E0090B4
:1000F000897E0090897E0090897E0090897E0090A4
:10010000897E0090897E0090897E0090897E009093
:10011000897E0090897E0090E9270090897E00907A
:10012000897E0090897E0090897E0090897E009073
:10013000897E0090897E0090897E0090897E009063
:10014000897E0090897E0090897E0090897E009053
:10015000897E0090897E0090897E0090897E009043
:10016000897E0090897E0090897E0090897E009033
:10017000897E0090897E0090897E0090897E009023
:10018000897E0090897E0090897E0090897E009013
:10019000897E0090897E0090897E0090897E009003
:1001A000F5270090897E009001280090897E0090BC
:1001B000897E0090897E0090897E0090897E0090E3
:0801C000897E0090897E009009
:1001D00010B5054C237833B9044B13B10448AFF381
:1001E00000800123237010BD2401002000000000C6
:1001F000B4AB019008B5034B1BB103490348AFF3FF
:10020000008008BD0000000028010020B4AB019070
:1002100053B94AB9002908BF00281CBF4FF0FF316D
:100220004FF0FF3000F072B9ADF1080C6DE904CE6B
:1002300000F006F8DDF804E0DDE9022304B07047C1
:100240002DE9F047089E04468846002B4BD18A4290
:10025000154667D9B2FA82F24AB1C2F1200701FA13
:1002600002F320FA07F7954047EA030894404FEA63
:10027000154E230CB8FBFEF71FFA85FC0EFB178802
:1002800043EA084307FB0CF1994209D9EB1807F13F
:10029000FF3080F01B81994240F21881023F2B44CD
:1002A0005B1AA4B2B3FBFEF00EFB103344EA034426
:1002B00000FB0CFCA44509D92C1900F1FF3380F098
:1002C0000781A44540F2048102382C4440EA0740EB
:1002D000A4EB0C0400271EB1D4400023C6E9004360
:1002E0003946BDE8F0878B4209D9002E00F0EB803B
:1002F0000027C6E9000138463946BDE8F087B3FA61
:1003000083F7002F47D18B4202D3824200F2FA805A
:10031000841A61EB030301209846002EE0D0C6E961
:100320000048DDE702B9FFDEB2FA82F2002A40F0AF
:100330008F80491B4FEA154E1FFA85F80127B1FB44
:10034000FEFC230C0EFB1C1143EA014308FB0CF1DD
:10035000994207D9EB180CF1FF3002D2994200F212
:10036000CD808446591AA3B2B1FBFEF00EFB1014E7
:1003700043EA044408FB00F8A04507D92C1900F112
:10038000FF3302D2A04500F2B6801846A4EB080461
:1003900040EA0C409FE7C7F1200CBB4022FA0CFE5C
:1003A0004EEA030E01FA07F420FA0CF521FA0CF3D9
:1003B0004FEA1E482543B3FBF8F92C0C08FB193310
:1003C0001FFA8EFA44EA034309FB0AF49C4202FA3C
:1003D00007F200FA07F10BD91EEB030309F1FF3016
:1003E00080F087809C4240F28480A9F10209734426
:1003F0001B1BADB2B3FBF8F008FB103345EA034416
:1004000000FB0AFAA24508D91EEB040400F1FF33F1
:100410006BD2A24569D90238744440EA0940A0FB76
:100420000289A4EB0A044C45C2464B4654D351D032
:10043000002E69D0B1EB0A0564EB030404FA0CFC4E
:10044000FD40FC404CEA0505C6E90054002747E79B
:10045000C2F1200320FA03F7954001FA02F021FAD5
:1004600003F34FEA154E3843010CB3FBFEF71FFAB6
:1004700085F80EFB173341EA034107FB08F38B4273
:1004800004FA02F407D9691807F1FF3C2FD28B4216
:100490002DD9023F2944CB1A81B2B3FBFEF00EFBEB
:1004A000103341EA034100FB08F38B4207D9691876
:1004B00000F1FF3C17D28B4215D902382944C91AE2
:1004C00040EA07473BE73746304609E70746E7E695
:1004D0001846FBE64145ABD2B8EB020A69EB0E02C7
:1004E00001381346A4E76046E9E7184695E76746F2
:1004F000D1E781467CE702382C4447E7ACF1020C97
:100500002B442FE7384608E73746E9E6704700BF37
:1005100001F0FF01102A2BDB10F0070F08D010F8B4
:10052000013B013A8B422DD010F0070F42B3F6D1B8
:10053000F0B441EA012141EA014122F007047FF0D1
:1005400000070023F0E80256083C85EA010586EA28
:10055000010685FA47F5A3FA87F586FA47F6A5FA64
:1005600087F68EB9EED1F0BC01F0FF0102F0070270
:1005700032B110F8013B013A83EA010313B1F8D11B
:100580000020704701387047002D06BF35460338FC
:10059000073815F0010F07D1013015F4807F02BF35
:1005A000013015F4C03F0130F0BC0138704700BF86
:1005B000704770477047704700F09EB810B504460A
:1005C000E42119F00DFB204610BD000010B50446D3
:1005D00000F0ECF8014B2046236010BD14AC0190F4
:1005E000704704387047704710B50446102119F061
:1005F000F7FA204610BDA0F10400F5E70022C16023
:100600008260044A10B502F108042032046042609E
:1006100010BD00BF40AC01900022026070477047DF
:10062000704700F596730868496803C370477047C0
:1006300000F0DEB910B504464FF4AC7119F0D0FAF1
:10064000204610BD10B50446D0F85401FFF7E7FF6F
:100650002046BDE810400AF0B7BD10B50446D0F8FA
:100660003C0158B10368DB68984738B1D4F83C01C5
:1006700003689B6898470023C4F83C3110BD000014
:1006800010B5044600F07CF9014B2046236010BDF4
:1006900070AC01900020704781807047C180704726
:1006A00001817047418170477047704770477047BC
:1006B0007047C388D21A8388C91A036812B209B274
:1006C00010B45DF8044B5B6D18474FF6FF738381E0
:1006D0004FF0FF3303621368C361106070477047C7
:1006E0007047704790F825201AB190F8242002B185
:1006F0001860704770477047704710B5044608216E
:1007000019F06EFA204610BD10B50446E42119F028
:1007100067FA204610BD000010B5D0F8E03004465E
:1007200001330A2BC0F8E03006D10221034804F05F
:100730000EFA0023C4F8E03010BD00BF00200240D4
:1007400070B50368044615461B6B98472368294615
:1007500020465B6BBDE87040184770B503680446DF
:1007600015469B6B9847236829462046DB6BBDE8FE
:10077000704018470121002280F825100A49828024
:100780000160FF21C280028142818281C281028296
:100790004282C2610284428480F8242080F82610BC
:1007A0008262C0E90522704780BB01902DE9F047C5
:1007B000044686B000250CF093F826464B4B04F116
:1007C0006C08E56346F8403B3046FFF7D3FF4046F0
:1007D000FFF7D0FF0123DFF81CA14FF47F0284F85C
:1007E000BD302946424B3046A4F89C504FF07F491B
:1007F000C4F898304FF6FF73A4F89E5004F19807A0
:10080000A4F8C430A4F8D830A4F8DA30A4F8A05082
:10081000A4F8A250A4F8A450A4F8A650A4F8A85094
:10082000A4F8AA50C4F8B450A4F8B850A4F8BA5028
:1008300084F8BC50C4F8C850C4F8CC202A4684F8C8
:10084000D05084F8D150A4F8D450A4F8D650C4F8AD
:10085000C0A0C4E92B55C4E93755FFF771FF3046F6
:100860004FF488724FF4F071FFF777FFC4F8689087
:100870002A4629464046FFF763FF40464FF48872F8
:100880004FF4F071FFF769FFC4F894906B2238467B
:100890000721E946FFF754FF4FF0FF33A4F8CC508F
:1008A0003946C4F8C830484608F000FE04F1D403C5
:1008B00099E80700ADF81450251DCDF810A083E885
:1008C000070004A9384609F073F83146284607F0B6
:1008D00015FB4146284607F011FB2846394607F02C
:1008E0000DFB204606B0BDE8F08700BFCCAC019000
:1008F000F0BA0190BCAC01907047704770474160FE
:10090000704770470123037270477047704710B4F7
:10091000C468034641686210E4079B6801EB02006B
:1009200048BF8A585DF8044B48BFD35818474368FE
:100930002BB183682BB9C06800F0010070471846DE
:1009400070470120704710B504460C2119F048F992
:10095000204610BD10B504464FF4AC7119F040F9B3
:10096000204610BD10B50446102119F039F9204673
:1009700010BD08B50AF07AFDBDE808400BF01CB9BF
:10098000F8B5044617460E460AF092FD144B0025B2
:10099000C4F854611C602946124B134E2360134B5C
:1009A0003068C4F83851C4F83C51C4F84031C4F838
:1009B0004451C4F84851C4F84C51C4F8507103680C
:1009C0009B689847284600F0B3FA336893F876207E
:1009D0000AB1D86C00B9986812F0FBF82046F8BD4F
:1009E0001022012018AD0190C421012000AD01901A
:1009F000064BC0F84401C0F848310023C0F84C3120
:100A000000F5A073C0F83C31704700BF4D0B00905B
:100A10002DE9F047074690689946884603681546D1
:100A2000DDF820A01B6A9847E32805D8414BA32195
:100A3000414A424819F0E0F8686803681B6A984721
:100A40000F2803D83E4BA4213B4AF2E7E86803682D
:100A50001B6A98470B2803D83A4BA521364AE8E78A
:100A60000AF004FD0AF008FDD9F8000010B103688F
:100A7000DB689847D9F8000010B103681B689847F5
:100A8000386810B103685B699847D8F8000010B166
:100A900003685B689847386810B103681B6898471B
:100AA000D8F8000010B103689B689847E8680021F7
:100AB00003685B6A9847044620B1002343600372D1
:100AC000214B0360A868002103685B6A98470646CB
:100AD00008B1FFF77BFD6868002103685B6A9847EF
:100AE000054610B13146FFF789FDC9F80040C8F846
:100AF00000503E60E5B12B1DCAF800303046C5F805
:100B000008A03368F563DB6898472B6828461B68A4
:100B10009847214630460CF08FF8236820461B6921
:100B20009847236820465B6998472846BDE8F087C8
:100B30002B46E1E780AD019095AF01900EAE01909C
:100B40004FAE0190F2AE019064AD019007B5D0F8C0
:100B5000543100F59C710093044BD0F850210448A7
:100B6000FFF756FF03B05DF804FB00BF042201202D
:100B70000022012013B5002249B102AB019203F813
:100B8000052D0268946801AAA04702B010BD08466E
:100B9000FBE7408970478089704780887047837978
:100BA0008088184480B27047C07900F07F00704799
:100BB000C079C0097047006A7047406A7047704743
:100BC0008B888069DB0A0A6850F82300104470475C
:100BD00010B5C2B1137BB3B1547BD27A240204F4B2
:100BE000E0641443C26998B202EB840213888B421A
:100BF00002D192F9020010BD05D80138043280B24A
:100C00000028F3D1F7E70020F5E710B504462821C6
:100C100018F0E6FF204610BD30B589B00446BDF897
:100C200050500695BDF84C5005959DF840500495E0
:100C30009DF83C5003959DF8385002959DF834502E
:100C400001959DF8305000950BF056FC064B204660
:100C50002360119BA361129BE361159B2362169B8A
:100C6000636209B030BD00BFA8B0019030B5164D29
:100C70008DB02C78BFF35B8F14F0010420D128468F
:100C800018F086FFE0B13F23012210490793104B73
:100C9000089406930F4B039400940F48CDE9044346
:100CA0000423CDE90944CDE901320A23FFF7B4FF5B
:100CB000284618F079FF094A0949074818F08BFFC0
:100CC00005480DB030BD00BF400100204800109025
:100CD00050C0019058C00190440100200000002045
:100CE000BF0B009030B5174D8DB02C78BFF35B8FE4
:100CF00014F0010422D1284618F04AFFF0B13F2336
:100D0000012211490793114B08940693104B039449
:100D10001048CDE904430423CDE901320A230F2210
:100D200000933223CDE90944FFF776FF284618F0F7
:100D30003BFF094A0949074818F04DFF05480DB027
:100D400030BD00BF6C0100205800109054C00190CD
:100D500060C001907001002000000020BF0B0090D7
:100D600030B5164D8DB02C78BFF35B8F14F00104B5
:100D700020D1284618F00CFFE0B13F230122104992
:100D80000793104B089406930F4B039400940F485D
:100D9000CDE904430423CDE90944CDE9013214230C
:100DA000FFF73AFF284618F0FFFE094A09490748AD
:100DB00018F011FF05480DB030BD00BF98010020AC
:100DC000801110905CC0019064C001909C010020D3
:100DD00000000020BF0B0090704710B504460421AE
:100DE00018F0FEFE204610BD012908B508D003D337
:100DF000022909D0002002E000F012F8006808BDC6
:100E000000F00EF84068FAE700F00AF88068F6E7AC
:100E1000004870470CB101900120704701207047D5
:100E200000487047C401002010B5054CFFF798FF3B
:100E30002060FFF757FF6060FFF718FFA06010BD4C
:100E4000C401002000207047002070470EB403B595
:100E500003AB002153F8042B01930BF07DF902B092
:100E60005DF804EB03B070470CB407B504AB53F85E
:100E7000042B01930BF070F903B05DF804EB02B0A2
:100E80007047000010B5436C044673B3038F2BB951
:100E9000184BC021184A194818F0AEFEC38E00EB5B
:100EA00043035B8C0BB30CF0F7FB238F012B03D8B0
:100EB000134BC521134AEEE7E28E40F63F10531C58
:100EC0009BB2092B194688BFA3F10A0104EB41012B
:100ED000498C814209D10A2B04EB420228BF00232E
:100EE000508C04EB4303588451842046BDE81040E5
:100EF0000CF0D4BA20B101904DB2019029B101900B
:100F00006DB101907BB101900CF091BA10B586B033
:100F100002AC84E806001A460AAB21460593019309
:100F2000099B0093089B09F0D7FD06B010BD000097
:100F300038B5D8B9114B12481B681249BBB11A68B1
:100F40009C681A441C4402605A681A440A606CB1D6
:100F50000D4B00221A80FFF763FF0546FFF75EFF87
:100F60000A4B1C600A4B1D600A4B188038BD0A4BA7
:100F700003600A4B0B600A4B1C68E8E7D0010020B5
:100F8000D4010020D8010020DC010020142201201F
:100F90001C220120182201209C1110909011109009
:100FA00098111090044B1B6853F82100034B1B68E9
:100FB00003EB4000704700BFD8010020D40100209F
:100FC000012380F8741080F8753070470020704756
:100FD00041640031024B18BF01211970704700BFF6
:100FE000C321012000207047836B0BB108461847CE
:100FF00070474FF6FF707047406803689B69184759
:10100000134A0023F0B5C2F88430BFF34F8FD2F8F3
:10101000803043F6E076C3F3C904C3F34E33A5072B
:101020005B0103EA060C284621464CEA0007013919
:1010300000F14040C2F874724F1CF6D1203B13F10E
:10104000200FEED1BFF34F8FBFF36F8FF0BD00BF06
:1010500000ED00E0034B902283F85A2383F85823D5
:10106000704700BF00E100E0094A0A49D3680A4816
:10107000C3F30A03013B9BB20B801169C1F30A0160
:10108000013901801364536B43F0010353637047CC
:1010900000680140E2010020E0010020014B986A55
:1010A000704700BF84680140024B0122996243F8F7
:1010B000602C704784680140034B5B69DB0301D5FA
:1010C000FFF79EBF704700BF00ED00E070B504461B
:1010D00007F007FA23685D6E0AF0C8F9014620465A
:1010E000A84723682046054AD3F888504FF040416E
:1010F0000023AC46BDE87040604700BF00FC03C061
:1011000010B531B90A4B40F2D2210A4A0A4818F008
:1011100073FDC0E90F120032084918BF01220A709E
:1011200019460268BDE81040D2F88C20104700BF75
:101130005BB3019015B4019093B30190C2210120DB
:1011400008B5094B1B888B4203D8084B1B88934278
:1011500005D9074B9E21074A074818F04DFD074B5C
:101160001980074B1A8008BDB8210120BA2101203F
:10117000F8B20190D2B3019093B30190BE21012047
:10118000C021012007F094B990F84B3013B1024B05
:1011900001221A7007F098B9DE01002008B507F0A7
:1011A00051F9044B5B69DB0303D5BDE80840FFF749
:1011B00027BF08BD00ED00E007F09FBA10B5044658
:1011C00007F0D2FE23682046D3F8AC30BDE81040CB
:1011D000184790F877301BB1406803681B681847C0
:1011E0001846704710B590F8744090F834100C4BC6
:1011F0008C421A7809D03AB90A490B4A08881488EF
:10120000108001220C801A7010BD002AFCD0064A02
:101210000449148808880C8010800022F3E700BF7E
:10122000BC210120BA210120B8210120034B4FF03D
:1012300080629A604FF080729A60704700E100E02F
:10124000084B4FF08062C3F88820BFF34F8FBFF385
:101250006F8F4FF08072C3F88820BFF34F8FBFF3BA
:101260006F8F704700E100E010B5144C236823B382
:10127000134B144A1B6C11888B4213D1124B1988E3
:1012800002F0C4F9226892F86630013382F86630C1
:1012900000F002FA206807F067FE0020BDE8104069
:1012A00000F07EBC02F0B2F9206803681B6A984720
:1012B0000020BDE8104000F0A3BC10BDC4210120F7
:1012C00000680140E2010020E001002003685B6C3F
:1012D00018470120704703689B6A18470D4B82B07E
:1012E0001A6B42F400021A631A6B02F400020192B4
:1012F000019A1A6942F400021A611A6922F4000282
:101300001A61054B054A1A614FF08062044B9A60DE
:1013100002B0704700380240242401202D130090B1
:1013200000E100E040F2EF3070470000024B1B6824
:10133000586803685B691847C421012008B50B2869
:101340000BD8DFE800F01206100A0A0A0A0808089B
:101350000808012008BD0520FCE7054B6621054A69
:10136000054818F049FC0020F4E70220F2E700BF2E
:101370007DB401904EB5019098B4019008B50A284B
:1013800009D8DFE800F010060E080808080606066F
:101390000600012008BD054B8721054A054818F0C5
:1013A0002BFC0020F6E70220F4E700BF7DB401909B
:1013B00098B5019098B40190F8B50C46487FFFF7B6
:1013C000BDFF0546A77F3846FFF7B8FF06463846FB
:1013D000FFF7D4FFA38A628BD21A494B1A64A18A01
:1013E000628B521A9A61A18A228B521A1A6158632F
:1013F000A18AE28A42EA01425A642269DA63626897
:10140000DA602268402A70D010D8042A3BD0202A03
:101410006BD0237F45EA0365394B45F40035DD6128
:10142000617FA27F914267D0364A4BE0B2F5807F60
:101430001BD0B2F5007F23D0802AEAD1A068021D1C
:10144000DA62227F45EA026545F40035DD615E62BD
:1014500022695A610278EAB1012A35D02A4B40F25A
:1014600011112A4A2A4818F0C7FB217F294A42EA6B
:101470000162DA61E2681A625E6222695A6120E002
:10148000217F254AF3E7227F45EA026545F40035CE
:10149000DD61F1E7D9694288501E21F47F420121C4
:1014A00022F0100242EA0022DA61154BDA6942F0BA
:1014B0002002DA61DA699206FCD410229A600029CF
:1014C000B2D0164A1A60F8BDDA69408822F47F4229
:1014D000217F013822F01002FF3942F0100218BFBC
:1014E000012142EA0022DA61DFE7237F45EA036552
:1014F000034B45F40035CBE740F20122E2E700BFA1
:1015000000B002400102010063B4019010B50190E7
:1015100098B401900A0002000900020001020200D2
:1015200010B5887F0C46FFF729FF1C4B5863A18A32
:10153000E28A42EA01425A642269DA63628BA18A32
:10154000521A1A642268082A16D1A18A628B521A8A
:101550009A61A18A628B521A1A615862104A217FDD
:1015600042EA0162DA61E2681A6222695A6122691A
:10157000DA600C4A1A6010BD0022D8611A61E16875
:101580000A0A4809C1F3C40102F4784200F4FC607D
:1015900002430A439A63044AECE700BF00B00240EA
:1015A000090001000102020001020300054B4FF097
:1015B00080620360044BC3F88820BFF34F8FBFF3F2
:1015C0006F8F7047C8B4019000E100E010B5044689
:1015D000FFF7ECFF4FF45A61204618F001FB20465C
:1015E00010BD000070B505460A4B0C3000262C4695
:1015F000602268602E726E7244F8203B214607F02C
:1016000009FE05F55A63E6602434A342FBD128465F
:1016100070BD00BFC8B401900121002208B5084682
:1016200005F022FB0A4B186028B90A4B28210A4A08
:101630000A4818F0E1FA00220421012005F0DEFB3F
:10164000074B186018B9074B2C21034AF0E708BD77
:10165000E8010020E3B5019097B601902CB6019007
:10166000E401002055B60190024B4FF0FF3118689D
:1016700005F050BBE8010020014B186805F086BB5F
:10168000E8010020024B0021186805F043BB00BFB1
:10169000E8010020FFF7F0BF0023034803491A4682
:1016A000006805F0F1BB00BFE40100200400002049
:1016B00013B50023074C01A91A46206805F026FC43
:1016C0004FF0FF33002201A9206805F01FFC02B093
:1016D00010BD00BFE4010020704770477047012033
:1016E00070470C2070470C2303FB01000830704743
:1016F0000C2303FB01000830704701207047E420F1
:101700007047E42303FB010008307047E42303FB28
:10171000010008307047012070471020704700EB2F
:1017200001100830704700EB011008307047084680
:10173000FFF75EB9034B10B50446036006F0C8FB23
:10174000204610BD38B7019010B50446FFF7F2FFF0
:101750001421204618F044FA204610BD034B10B562
:101760000446036006F0B4FB204610BD04B70190A8
:1017700010B50446FFF7F2FFEC21204618F030FACE
:10178000204610BD034B10B50446036006F0A0FBD5
:10179000204610BDD0B6019010B50446FFF7F2FF09
:1017A0001821204618F01CFA204610BD084B10B531
:1017B0000446036000F58C70FFF7BCFF04F12C00B9
:1017C000FFF7CCFF04F11400FFF7DCFF204610BD4B
:1017D0006CB7019010B50446FFF7E8FF4FF4227193
:1017E000204618F0FDF9204610BD00002DE9F34118
:1017F000FFF70EFB00240546FFF70EFB23460146CC
:101800002246284600940CF01BFA274B274A204614
:10181000274D1A60FFF78CFB26480CF079F92B78DE
:10182000BFF35B8FDB0738D4284618F0B1F90028E6
:1018300033D0214C214B04F5987604F1140004F1C7
:101840002C0804F58C776060C4F80880E760266196
:10185000236006F03FFB1A4B4046636106F03AFBFB
:10186000184B3846E36206F035FB174B04F59670CB
:10187000C4F81831FEF7D0FE224604F596713046C2
:10188000FEF7FEFE3046FFF7B3F8284618F08CF955
:101890000E4A0F49204618F09EF90E4802B0BDE8E6
:1018A000F04100F0D5B800BF20220120981200209E
:1018B000EC01002008000020F00100206CB701902E
:1018C000D0B6019004B7019038B701900000002015
:1018D000AD1700901C120020014800F0DBB800BFDB
:1018E0001C12002010B50446042118F079F9204696
:1018F00010BD10B50446782118F072F9204610BDCD
:1019000010B504467C2118F06BF9204610BD00008C
:10191000F8B53A4C3A4D3B4B22463B4F28463B49A3
:101920002B6018F058F93A4E3846FFF75BFE224616
:101930003849384618F04FF930460FF063FB22461D
:101940003549304618F047F922463449344818F0F2
:1019500042F93448002301223349C560038580F8E9
:101960002A30C362038680F8483080F8492080F826
:101970004A3080F84B30416680F8683080F8693032
:1019800080F86A3080F86B302849C0E90176C0E9F8
:101990000433C0E90633C0E90833C0E90E33C0E9B7
:1019A0001033C0E91333C0E91533C0E9173380F8A9
:1019B0006C3080F8772080F878201D4A036710602B
:1019C0004FF4F07280F874300A801A4980F875304C
:1019D0000A804FF48872184980F876300A801749D7
:1019E00080F834300A80164A164913702246164B86
:1019F0000360BDE8F84018F0EEB800BF000000201A
:101A000078040020A4B801907C040020D91600902E
:101A10009C120020AD150090DB160090D90D0090AF
:101A2000080000201C12002001000001B821012044
:101A3000C4210120BE210120BA210120C0210120A2
:101A4000BC210120DD16009080B701907047000096
:101A500038B5044600F03EF92046FFF737FB23680F
:101A6000094A4FF04041D3F888502046074BA84719
:101A70000023074D84F84A30284600F071F901230D
:101A8000256184F86C3038BD00FC03C000F807C045
:101A90001413002008B503680446D3F88030984733
:101AA000236820469B6F9847FFF702FE2368204675
:101AB0001B6F98474FF48051064803F048F80821FF
:101AC000054803F044F8FFF7F3FD236820461B6F39
:101AD0009847F8E70020024000280240FFF7DEBAEE
:101AE000FFF7E2BAF8B5FFF759FB134A0023C2F833
:101AF0008430BFF34F8FD2F8803043F6E076C3F3E3
:101B0000C904C3F34E33A5075B0103EA060C28465C
:101B100021464CEA0007013900F14040C2F87472D6
:101B20004F1CF6D1203B13F1200FEED1BFF34F8FA6
:101B3000BFF36F8FF8BD00BF00ED00E0FFF78ABA7A
:101B4000FFF774BBFFF77CBBFFF78EBA06F074BCDF
:101B500008B5054B01461B6800B10121184607F086
:101B60001DFA012008BD00BFC421012010B50446A4
:101B70000C2118F035F8204610BD00000448002361
:101B8000044A43608360044B0449036018F023B89F
:101B90001413002000000020E8B801904D1A0090B6
:101BA000032823D8DFE800F0020B131A104B102192
:101BB00010481A68B2FA82F2520902F0C3BF0C4B05
:101BC00040215A68B2FA82F252090B48F5E7084BF5
:101BD00080219A68B2FA82F25209F6E7044B40215A
:101BE0000648DA68B2FA82F25209E6E7704700BFA7
:101BF00020130020000402400008024000180240A8
:101C0000032823D8DFE800F0020B131A104B102131
:101C100010481A68003218BF012202F093BF0C4B23
:101C200040215A68003218BF01220B48F5E7084BE3
:101C300080219A68003218BF0122F6E7044B402148
:101C40000648DA68003218BF0122E6E7704700BF95
:101C50002013002000040240000802400018024047
:101C600003280FD8DFE800F00206090B1021064810
:101C700002F06DBF40210548FAE78021FBE74021D3
:101C80000348F5E7704700BF000402400008024027
:101C90000018024008B5032813D8DFE800F0020A54
:101CA0000D0F1021084802F047FF431E58425841CB
:101CB00008BD40210548F6E78021FBE740210448A4
:101CC000F1E70020F1E700BF0004024000080240F5
:101CD0000018024070B50024074D0126E0B2FFF75E
:101CE000D9FF28B155F82430012B18BF45F82460DE
:101CF0000134052CF2D170BD2013002030B58DB019
:101D00000D46144600212C2201A817F0EAFF01A875
:101D100005F0B8FE9DF8040030B1BDF80630012092
:101D20002B60BDF8103023600DB030BD08B54FF406
:101D300088714FF4F07005F04DFE28B1034B20215F
:101D4000034A044817F058FF08BD00BF50B801907F
:101D5000B4B8019071B80190406870474160704715
:101D6000094A136843F080731360A2F54E42074B93
:101D70004C3A11680B431360A2F57B62136843F081
:101D800001031360704700BFFCED00E055CEACC509
:101D9000521A02EB5302B2FBF3F07047014B186882
:101DA000704700BF041000E010B5036804461B69CB
:101DB00031B19847A26863689B1A1844606010BDEF
:101DC0009847A060FBE7000014490020D1F8883054
:101DD00043F47003C1F88830114B1A6842F00102D5
:101DE0001A6098601A6822F0847222F480321A60B5
:101DF0000C4A5A601A6822F480221A60D8609A6BE2
:101E000042F001029A634FF02042136823F001036D
:101E100013604FF010438B60704700BF00ED00E08F
:101E2000003802401030002408B5642004F002FF9E
:101E3000FBE7000010B594B030220021022408A86E
:101E400017F04FFF1422002103A817F04AFF1F4B81
:101E5000012119201A6C42F080521A641B6C03F0A5
:101E600080530193019B1A4B1A6842F440421A6056
:101E70001B6803F440430293029B4FF48033CDE987
:101E800008134FF48003CDE90E434FF4D873CDE926
:101E9000100308A8CDE9124401F076FC00B1FEE77A
:101EA00001F0D4FB00B1FEE70F234FF4A0520590E0
:101EB000072103A8CDE903344FF48053CDE906236D
:101EC00001F044FE00B1FEE714B010BD003802403E
:101ED0000070004080B598B01022002101240BA8AA
:101EE0001C2617F0FEFE032502F0BAFB4FF0005C43
:101EF000C04B0BA8ADF82C4040F20117CDE90CC344
:101F0000BD4B0E9302F0CEFB8DF82D404FF04043B9
:101F100000240BA80C938DF834608DF83740ADF891
:101F20003A4002F0BFFB02230BA88DF837508DF822
:101F30002D301623ADF83A708DF8343002F0B2FB34
:101F40004FF010430BA88DF8346004260C938DF8E5
:101F50002D508DF83740ADF83A4002F0A3FB17231F
:101F60000BA88DF82D608DF834308DF83750ADF812
:101F70003A7002F097FB05230BA88DF838408DF8D6
:101F80002D3013238DF8343002F08CFB304602F0F4
:101F900077FBBFF34F8FBFF36F8F984BC3F850425F
:101FA000BFF34F8FBFF36F8F5A6942F400325A610B
:101FB000BFF34F8FBFF36F8FC3F88440BFF34F8FD2
:101FC000D3F8802043F6E076C2F3C904C2F34E3260
:101FD000A507520102EA060C2846214640EA0C07F2
:101FE000013900F14040C3F860724F1CF6D1203A2D
:101FF00012F1200FEED1BFF34F8F5A6942F48032B5
:102000005A61BFF34F8FBFF36F8F00F0FFFB0024C7
:10201000FFF710FF142200210BA817F062FE784B87
:10202000102178481A6B01264FF00308102542F062
:10203000100240271A631A6B02F010020092009AF5
:102040001A6B42F002021A631A6B02F0020201924A
:10205000019A1A6B42F040021A631A6B02F04002B6
:102060000292029A1A6B42F400721A631A6B02F41B
:1020700000720392039A1A6B42F008021A631A6BF9
:1020800002F008020492049A1A6B42F480621A6306
:102090001A6B02F480620592059A1A6B42F02002D4
:1020A0001A631A6B02F020020692069A1A6B42F427
:1020B00080721A631A6B02F480720792079A1A6B85
:1020C00042F001021A631A6B02F001020892089AA8
:1020D0001A6B42F080021A631A6B02F080020992B6
:1020E000099A1A6B42F004021A6300221B6B03F078
:1020F00004030A930A9B02F025FD002208214248AE
:1021000002F020FD002241F20201404802F01AFDD7
:102110000022C0213E4802F015FD002240213D482A
:1021200002F010FD0BA93748CDE90B56CDE90D485B
:1021300002F080FB08230BA93348CDE90B36CDE92B
:102140000D4402F077FB41F202030BA92F48CDE9C1
:102150000B36CDE90D4402F06DFBC0230BA92C48D2
:10216000CDE90B36CDE90D4802F064FB29480BA9F7
:10217000CDE90B76CDE90D4802F05CFB2648274BF4
:10218000848003600662C0E9054401F059F800B19B
:10219000FEE7234C234BC4E90200C4E90030C4E944
:1021A0000A00C4E90C00204602F0DAFC00B1FEE7A8
:1021B0003146204602F094FD00B1FEE71A4B0BA910
:1021C0001A4A986098625F611195C3E90020042261
:1021D000C3E903258022C3E90800C3E906201846A5
:1021E000CDE90B55CDE90D55CDE90F5501F066FA56
:1021F000F0B1FEE7120000030100010100ED00E074
:102200000038024000040240002802400020024042
:102210000008024000180240D02201200030024095
:102220002424012000B0024064240120400100A0C9
:1022300005F0B8FB05F068FB054600B1FEE7342267
:1022400001460BA8364C17F04CFD364B2826352797
:1022500040F2152C40F2352E25612046A58684F8E3
:102260003650C4E900350923C4E905630B23C4E9EA
:10227000077340F21B13C4E909C340F21D13C4E9FC
:102280000255C4E90BE301F0BBF8024600B1FEE7DA
:102290004FF4F0714FF488730B904FF480651693F0
:1022A000ADF85C208DF85E20CDE90C100220CDE960
:1022B0000E30FF20CDE910020520CDE91421CDE933
:1022C00012500BA9204601F078F900B1FEE7164B39
:1022D0004FF4E132154918615862C3E900120C222B
:1022E000C3E90200C3E90520C3E90700184600F06E
:1022F000D2FC00B1FEE702F0F0FE04F00BFC0C4A49
:1023000000210C4804F040FC0B4B0C4A00211860E3
:102310000B4804F039FC0B4B186004F015FCFEE789
:10232000F422012000680140A02301200010014098
:1023300044B90190291E0090CC22012020B90190BF
:10234000DF5000909C2301200268034B9A4201D188
:1023500000F06EBA704700BF00100040FEE70000BA
:1023600010B5014688B00022362002F025F936204B
:1023700002F054F9144B01A903A81A6C134C42F053
:1023800010021A641B6C03F010030293029B01F00D
:102390009FFC01F07DFC0E4B4000236040F2E733D0
:1023A000E3600C4BB0FBF3F0013800236060204683
:1023B0002361A36002F03EFE20B9204602F0DCFC5F
:1023C00008B010BD0120FBE700380240982401202E
:1023D0000010004040420F000D4B82B00F216FF003
:1023E00001001A6C42F080521A641A6C02F080529A
:1023F0000092009A5A6C42F480425A6400225B6C4C
:1024000003F480430193019B02B002F0D5B800BFF2
:1024100000380240026882B0084B9A420BD1D3F8D0
:10242000302803F5006342F480521A631B6B03F4F7
:1024300080530193019B02B0704700BF00300240FF
:1024400007B50E4B02689A4215D1A3F5F04305215A
:102450005A201A6B42F400021A6300221B6B03F429
:1024600000030193019B02F0A7F85A2003B05DF826
:1024700004EB02F0D3B803B05DF804FB00B00240F7
:1024800070B5ACB004461422002106A817F029FC50
:10249000842200210BA817F024FC2268464B9A42A4
:1024A00040F08880082305200B93642310930223B7
:1024B000CDE9113001230BA8159300F01DFC08B1E4
:1024C000FFF74CFF3D4B022400250E265A6C06A94F
:1024D0003B4842F080625A645A6C02F0806200927B
:1024E000009A1A6B42F010021A631A6B02F0100283
:1024F0000192019A1A6B42F400721A631A6B02F489
:1025000000720292029A1A6B42F480621A631A6B8A
:1025100002F480620392039A1A6B42F040021A633B
:102520001A6B02F040020492049A1A6B42F4807211
:102530001A631B6B03F480730593059B1023CDE98D
:102540000634CDE908540A9602F074F94EF6FF738A
:1025500006A91C480A96CDE90634CDE9085402F0D4
:1025600069F9F72306A918480A96CDE90634CDE99A
:10257000085402F05FF94FF4805306A91348CDE9DF
:1025800006340923CDE908540A9302F053F94FF4B5
:10259000464306A90E480A96CDE90634CDE908540B
:1025A00002F048F958202A46052102F005F8582083
:1025B00002F034F82CB070BD0068014000380240D1
:1025C000001002400024024000280240001802408F
:1025D00000200240F0B5ABB004461422002104A84C
:1025E00017F07FFB8422002109A817F07AFB2268EC
:1025F000204B9A423CD1402309A8099300F07CFB70
:1026000008B1FFF7ABFE1C4B0227002603255A6CCE
:10261000072404A9194842F010025A645A6C02F0C7
:1026200010020192019A1A6B42F002021A631A6BAD
:1026300002F002020292029A1A6B42F001021A633D
:102640001B6B089403F001030393039B8023CDE9E4
:102650000665CDE9043702F0EDF84FF4007304A9E4
:1026600007480894CDE90437CDE9066502F0E2F8A1
:102670002BB0F0BD001001400038024000040240C1
:1026800000000240F0B587B01422002101A817F025
:1026900028FB2A4B1E68002E4ED10122022703255B
:1026A0000C241A6001A9264B26489A6B42F00102BD
:1026B0009A639B6B03F001030093009B4FF68373B7
:1026C000CDE90454CDE9013702F0B4F848F23313F0
:1026D00001A91D480594CDE90137CDE9036502F054
:1026E000A9F84CF2037301A918480594CDE9013704
:1026F000CDE9036502F09EF84FF63F0301A91448A7
:102700000594CDE90137CDE9036502F093F8242360
:1027100001A910480594CDE90137CDE9036502F020
:1027200089F804230C480DEB03010594CDE901372A
:10273000CDE9036502F07EF807B0F0BD3413002048
:10274000003802400010024000180240000C024015
:1027500000140240001C02400008024008B5144B5F
:102760001A6822BB01224FF6837112481A60124A7E
:10277000936B23F00103936302F044F948F23311A1
:102780000E4802F03FF94CF203710D4802F03AF99D
:102790004FF63F010B4802F035F924210A4802F0B8
:1027A00031F904210948BDE8084002F02BB908BD01
:1027B0003013002000100240003802400018024090
:1027C000000C024000140240001C024000080240BD
:1027D0000149002003F01ABD511B00907047FEE72D
:1027E000FEE7FEE7FEE77047014802F009BB00BFC5
:1027F00098240120014800F07FBE00BFF422012090
:10280000014802F0DDB900BF24240120074A03205B
:1028100008B5136843F48073136001F0BBFE002019
:10282000FFF79EFDFFF7D8FD002008BD003C0240E9
:10283000034A044B11681B780B441360704700BFB8
:10284000E424012010000020014B1868704700BFED
:10285000E424012038B50446FFF7F6FF0546631C63
:102860001EBF044B1B78E418FFF7EEFF401BA0428D
:10287000FAD338BD1000002010B504460168226963
:10288000A3680868134362691343E2691343874AE4
:10289000024013430B602268E168536823F44053FD
:1028A0000B4353602168A3698A68206A22F430626E
:1028B000034313437E4A8B602368934215D17D4BBB
:1028C0007D4AD3F8903003F00303D35CE269B2F59C
:1028D000004F40F0B580082B00F2A480DFE803F041
:1028E000878F95A292A2A2A2A400744A934206D115
:1028F000704B734AD3F8903003F00C03E5E7714A4C
:10290000934210D16B4BD3F8903003F03003102B6F
:102910006BD002D8002BD9D033E0202B63D0302BE2
:102920002FD10823D2E7684A93420BD1614BD3F8E9
:10293000903003F0C003402B57D0EBD9802B52D0FE
:10294000C02BEDE7614A93420ED15A4BD3F8903039
:1029500003F44073B3F5807F47D0DBD9B3F5007F34
:1029600041D0B3F5407FDBE7594A934213D1514B35
:10297000D3F8903003F44063B3F5806F35D002D8BC
:102980003BB11023A2E7B3F5006F2CD0B3F5406F35
:10299000C6E701239AE74F4A934212D1454BD3F839
:1029A000903003F44053B3F5805F1ED003D8002B62
:1029B000E7D100238AE7B3F5005F14D0B3F5405F99
:1029C000AEE7454A9342DCD13A4BD3F8903003F45A
:1029D0004043B3F5804F08D09CD9B3F5004F02D0E7
:1029E000B3F5404F9CE7022370E704236EE701F044
:1029F0004FF958B900200023C4E9193310BD01F084
:102A000057F9F6E701F074F8F3E7344862685308C1
:102A100003EB40004FF6EF73B0FBF2F0A0F11002B1
:102A20009A4204D90120E6E74FF40040EEE720F097
:102A30000F03C0F3420022689BB21843D060D9E76D
:102A4000082BEFD801A252F823F000BF912A009082
:102A50009B2A0090A72A0090252A0090A12A009086
:102A6000252A0090252A0090252A0090712A00909E
:102A70004FF40040636800EB5300B0FBF3F04FF6F7
:102A8000EF73A0F110029A42CCD82368D860B1E766
:102A900001F0FEF80028EDD1ACE701F009F9F9E703
:102AA00001F026F8F6E70D48E4E700BFF369FFEF11
:102AB000001001400038024081B9019000440040FC
:102AC00085B9019000480040004C00400050004093
:102AD0000014014000780040007C00400024F40015
:102AE000436ADA0706D50268816A536823F4003323
:102AF0000B435360436A9B0706D50268C16A53685B
:102B000023F480330B435360436A590706D50268A8
:102B1000016B536823F480230B435360436A1A0705
:102B200006D50268416B536823F400430B4353609E
:102B3000436ADB0606D50268816B936823F48053F1
:102B40000B439360436A990606D50268C16B93688C
:102B500023F400530B439360436A5A0611D502686D
:102B6000016C536823F480130B435360036CB3F57B
:102B7000801F06D10268416C536823F4C0030B43E5
:102B80005360436A1B0606D50268816C536823F4C0
:102B900000230B43536070472DE9F041069D044626
:102BA0000F46164698462168CA6937EA02030CBFE9
:102BB00001220022B24201D0002024E0681CF3D0A0
:102BC000FFF742FEA0EB0800A84201D82068E5B953
:102BD000226852E8003F23F4D07342E80031002914
:102BE000F6D1216801F1080353E8003F23F0010307
:102BF000083141E80032002AF3D12023A367E367BC
:102C0000032084F87420BDE8F08103685A07CAD510
:102C1000C3691B05C7D54FF400630362226852E8FD
:102C2000003F23F4D07342E800310029F6D1216837
:102C300001F1080353E8003F23F00103083141E8A4
:102C40000032002AF3D12023A367E367C4F8803061
:102C5000D6E737B500250446C0F88050FFF7F4FDED
:102C6000226803461268120708D420230020A367B5
:102C700084F87400E367206603B030BD6FF07E42D5
:102C80004FF40011204600922A46FFF785FF0028E6
:102C9000EBD00320F0E710B5044650B3836F1BB9A7
:102CA00080F87430FFF796FC226824232046A3673F
:102CB000136823F001031360FFF7DEFD012818D02D
:102CC000636A13B12046FFF70BFF22682046536862
:102CD00023F4904353602268936823F02A0393609F
:102CE0002268136843F001031360BDE81040FFF74A
:102CF000B0BF012010BD00002DE9F743066804466F
:102D000016F001060CD0B34B9A6822F400029A60C8
:102D10009A68416B0A439A60466BB6FA86F6760962
:102D2000256815F4002511D0AA4AE16BD2F88C3041
:102D300023F440130B43C2F88C30E56BB5F5801FCC
:102D400013BFB5FA85F5002501266D092368DF025A
:102D500010D5A04A216CD2F88C3023F440030B43E9
:102D6000C2F88C30236CB3F5800F00F09B81002BF0
:102D700008BF0125236813F0807F18BF012698063D
:102D800032D5944B944F1A6C42F080521A641B6CEB
:102D900003F080530193019B3B6843F480733B60D5
:102DA000FFF752FD80463B68D90540F17D81894F90
:102DB0003B6F13F4407340F08281226B02F4407346
:102DC000B3F5407F834B40F0A081996822F07042B8
:102DD00021F4F81122F440720A439A60226B196FB1
:102DE000C2F30B020A431A672368D8060CD5794B45
:102DF000D3F88C2022F08072C3F88C20D3F88C207A
:102E0000A16B0A43C3F88C202368590408D5714A82
:102E1000616ED2F8903023F440330B43C2F8903007
:102E200023681A0408D56B4AA16ED2F8903023F4B7
:102E300040230B43C2F890302368DB0308D5654A72
:102E4000E16ED2F8903023F440130B43C2F8903077
:102E500023689F0308D55F4A216FD2F8903023F48E
:102E600040030B43C2F890302368580608D5594AEE
:102E7000616CD2F8903023F003030B43C2F890301A
:102E80002368190608D5534AA16CD2F8903023F074
:102E90000C030B43C2F890302368DA0508D54D4A7D
:102EA000E16CD2F8903023F030030B43C2F890303D
:102EB00023689B0508D5474A216DD2F8903023F04E
:102EC000C0030B43C2F8903023685F0508D5414A20
:102ED000616DD2F8903023F440730B43C2F8903008
:102EE0002368180508D53B4AA16DD2F8903023F429
:102EF00040630B43C2F890302368D90408D5354AA3
:102F0000E16DD2F8903023F440530B43C2F8903077
:102F100023689A0408D52F4A216ED2F8903023F402
:102F200040430B43C2F8903023685B0208D5294A1E
:102F3000A16FD2F8903023F080630B43C2F8903039
:102F400023689F020DD5234AE16FD2F8903023F019
:102F500000630B43C2F89030E36FB3F1006F08BF1A
:102F60000125236813F0080F18BF0125580308D561
:102F7000184A616FD2F8903023F040730B43C2F8C7
:102F800090302368190209D5124AD4F88010D2F87B
:102F9000903023F080530B43C2F89030012E00F0A4
:102FA000B88023689A0100F1B480012D78D1094DD1
:102FB0002B6823F080532B60FFF746FC06462B68F6
:102FC0009F0000F12D8123681D0307D5E26B4AB1F4
:102FD00004E000BF0038024000700040D8021DD558
:102FE000236CDBB99549D1F88830D1F8882003F4F7
:102FF000403302F0E0421343626943EA8213A2695C
:1030000043EA0263C1F88830D1F88C30A26A23F415
:10301000F853013A43EA0223C1F88C30236899023D
:1030200015D5E36FB3F1006F11D1844AD2F888301F
:10303000D2F8881003F0706301F0E0410B4361693E
:1030400043EA8113216A43EA0143C2F888302368C6
:103050001A0719D57949D1F88820D1F8883002F0BB
:10306000706203F440331343626943EA8213E269F6
:1030700043EA0273C1F88830D1F88C30E26A23F455
:1030800040331343C1F88C306C4C236843F08053B9
:103090002360FFF7D9FB054623689B0040F1C780FA
:1030A000002009E0012665E6FFF7CEFBA0EB080053
:1030B00064287FF678AE032003B0BDE8F083226B6E
:1030C00002F4407293423FF478AE3B6F3A6F23F4C0
:1030D000407342F480323A673A6F22F480323A67A2
:1030E0003B673B6FDA077FF568AEFFF7ADFB41F258
:1030F000883980463B6F9B073FF55FAEFFF7A4FB27
:10310000A0EB08004845F5D9D5E79A6822F4F812F3
:1031100063E64A4E336823F080633360FFF794FB25
:10312000074633681B0175D42368DF0712D5636B2C
:1031300083B9D6F88430D6F8842003F4403302F003
:1031400070621343626843EA8213A26843EA02731F
:10315000C6F8843023681E0303D5E26BB2F5801FE6
:1031600005D0D8021ED5236CB3F5800F1AD1334A8F
:10317000D2F88430D2F8841003F4403301F0E041F7
:103180000B43616843EA8113E16843EA0163C2F8D3
:103190008430D2F88C10636A21F01F01013B0B438D
:1031A000C2F88C302368D90111D5244AD2F8843072
:1031B000D2F8841003F0706301F0E0410B436168C2
:1031C00043EA8113216943EA0143C2F8843023684A
:1031D0009A010DD5236962681B0443EA8213E268F1
:1031E00043EA0263A26843EA0273144AC2F88430D5
:1031F000124E336843F080633360FFF725FB0746C8
:1032000033681B013FF5D1AEFFF71EFBC01B6428DE
:10321000F6D950E7FFF718FBC01B642881D94AE7AD
:10322000FFF712FB801B64287FF6C9AE43E7FFF768
:103230000BFB401B64287FF62FAF3CE700380240B1
:1032400010B5044608B9012010BD437F03F0FF020A
:1032500013B90277FFF7DEF8022363772379FBB90E
:103260002368144A5A612268936823F01803936014
:1032700062792368E2B94FF0FF321A6100202268B8
:103280006169936823F060030B4393602268A1692E
:10329000936823F080030B43936001236377D3E7A4
:1032A000D4E90212204601F0F5FE0028E0D0CAE77A
:1032B0002269E2E7B71DC104F0B5D20105684C6888
:1032C000EB688432C3F30B4315441C446B6803F46E
:1032D00070436B6005680E68EB6815440136C3F3F4
:1032E0000B43334443EA04436B600568CC68EB68E6
:1032F000C3F30A031C44AB189D6805F470459D6038
:1033000005688B68EE6815440133C6F30A0633443A
:1033100043EA0443AB600025036813441C6924F0AE
:1033200007041C6103680C6913441C61046891F86C
:103330003260144491F83170D1F818C0A369A561C6
:10334000046891F83030144443EA0C6343EA0723DD
:1033500043EA0643A361036813445C6924F0FF0455
:103360005C6103684C6913445C6104681444E3695C
:1033700023F4E06323F00703E3610368D1E9074620
:1033800013443443DC61036813449C6A9D62036800
:103390004C6A13449C620B6963B3012B2CD09C1EB6
:1033A000022C2BD9072B14BF0124022403681344D9
:1033B000DD6A05F0E025DD6203689D18D1E9006350
:1033C0009B1B8E6A63437443033343EA0443EB62FB
:1033D00004681444236B23F4FF6323F0070323637F
:1033E0000368C96A1344196301688B5843F00103E9
:1033F0008B50F0BD0424D9E70324D7E70224D5E796
:1034000038B50446002870D090F8A13003F0FF02D0
:103410001BB980F8A020FFF733F82268022384F854
:10342000A130936923F0704393612268D4E901309D
:1034300091690343E0680343206903430B439361AD
:1034400021682B4A8B6813408B60216860698B6808
:1034500043EA0043A06903438B602168CB681340B3
:10346000CB602168E069CB6843EA0043206A0343EC
:10347000CB6021680B6913400B6121680B69606A9E
:1034800043EA0043A06A03430B6121684B691A4079
:103490004A612268E16A536943EA0143216B0B43A5
:1034A0005361216894F83600CA6A94F8355002F0E6
:1034B0007F42CA62226894F83430D16A0B4343EAEF
:1034C000052343EA00430020D3622268536B43F094
:1034D000060353632268936943F001039361012358
:1034E000C4F8A40084F8A13038BD0120FCE700BF77
:1034F00000F800F07047704770B5036804469E6B93
:103500005D6B720715D5690713D55A6B22F004025B
:103510005A6304220368DA63D0F8A43043F001034D
:10352000C0F8A430002380F8A12080F8A030FFF775
:10353000E1FFB20717D5AB0715D522682046536BBC
:1035400023F00203536302222368DA63D4F8A43021
:103550001343C4F8A430042384F8A130002384F872
:10356000A030FFF7C7FFF00711D5E9070FD5226894
:103570002046536B23F00103536301232268D36376
:1035800084F8A130002384F8A030FDF76DFE3207E7
:1035900012D52B0710D522682046536B23F0080361
:1035A000536308222368DA63012384F8A1300023DF
:1035B00084F8A030FFF79FFF70BDF8B590F8A030F9
:1035C00006468C469646012B4FF002001DD034244F
:1035D00001270D4686F8A10004FB026486F8A0705E
:1035E00038340FCD0FC40FCD0FC40FCD0FC42B68CF
:1035F0003046724661462360FFF75EFE3368002066
:103600005F6286F8A17086F8A000F8BD10B590F84A
:10361000A030012B4FF0020314D00468012280F87F
:10362000A13080F8A020636B23F001036363064B95
:10363000196401684B6B13434B63002380F8A1208E
:1036400080F8A030184610BD00680140194B37B50E
:103650001A6C194C42F080521A641B6C03F08053B0
:103660000193019B236843F480332360FFF7ECF858
:1036700005466368DA030CD5236843F400332360FE
:10368000FFF7E2F80C4C054663689B030AD500205F
:1036900006E0FFF7D9F8401BB0F57A7FE9D903209F
:1036A00003B030BDFFF7D0F8401BB0F57A7FEBD9FF
:1036B000F5E700BF003802400070004038B50D4605
:1036C0000446C8B190F82C3003F0FF021BB980F813
:1036D0002D20FEF7D7FF0223211D206884F82C300F
:1036E00001F006F862682946206801F035F80123E8
:1036F000002084F82C3038BD0120FCE710B50446CA
:10370000FFF72CF8D4E9000101F068F8002084F8F4
:103710002C0084F82D0010BD70B5054690F82C00E3
:103720000E46C0B2022810D000F0FB04012C10D1CC
:103730000223286885F82C3001F05FF83368022BEB
:1037400004D1052385F82C30002070BD85F82C406D
:10375000FAE70120F9E738B5044690F82C00C0B22A
:1037600002280DD094F82C50EDB2012D09D102237E
:10377000206884F82C3001F052F8002084F82C5096
:1037800038BD0120FCE700002DE9F341044608B9EB
:10379000012041E00368D80710D4236899075CD45E
:1037A0002368190700F1A18023685A0700F1C2803D
:1037B000A069002840F0288100202DE0904B9A68F5
:1037C00002F00C02042A07D09A6802F00C02082AC0
:1037D0000AD15B685A0207D5894B1B689B03DCD56D
:1037E0006368002BD9D1D3E76268854BB2F5803F7F
:1037F00015D11A6842F480321A60636803B3FFF788
:1038000023F87F4D06462B689F03C6D4FFF71CF8AC
:10381000801B6428F7D9032002B0BDE8F0813AB9D3
:103820001A6822F480321A601A6822F48022E3E7D0
:10383000B2F5A02F1A68F4D142F480221A60D8E7BA
:10384000FFF702F86E4D06462B689803A5D5FEF7E4
:10385000FBFF801B6428F7D9DDE7694B9A6812F0FB
:103860000C0F07D09A6802F00C02082A11D15B688D
:1038700059020ED4624B1A68920702D5E268012AF7
:1038800086D11A68216922F0F80242EAC1021A6060
:1038900086E7E3685A4DBBB12B6843F001032B6008
:1038A000FEF7D2FF06462B689F0707D52B682269D3
:1038B00023F0F80343EAC2032B6071E7FEF7C4FF6D
:1038C000801B0228EFD9A6E72B6823F001032B60A9
:1038D000FEF7BAFF06462B6898077FF561AFFEF743
:1038E000B3FF801B0228F6D995E76369444D83B185
:1038F0006B6F43F001036B67FEF7A6FF06466B6F25
:103900009B073FF551AFFEF79FFF801B0228F6D9BA
:1039100081E76B6F23F001036B67FEF795FF0646A7
:103920006B6F9F077FF540AFFEF78EFF801B02286D
:10393000F6D970E7324B1A6CD0002AD41A6C0126E3
:1039400042F080521A641B6C03F080530193019B78
:103950002C4D2B68D9051ED5A268294B012A2AD1E6
:103960001A6F42F001021A67A368002B39D0FEF7E4
:103970006BFF234D074641F288382B6F9B072AD5F2
:10398000002E3FF415AF1E4A136C23F080531364CE
:103990000EE70026DCE72B6843F480732B60FEF70C
:1039A00053FF07462B68DA05D6D4FEF74DFFC01B40
:1039B0006428F7D92FE73AB91A6F22F001021A6783
:1039C0001A6F22F00402CEE7052A1A6FF5D142F0F1
:1039D00004021A67C4E7FEF737FFC01B4045CCD985
:1039E00019E7FEF731FF064D074641F288382B6F85
:1039F0009807C5D5FEF728FFC01B4045F7D90AE751
:103A00000038024000700040384DAB6803F00C03F2
:103A1000082B41D02B68022823F080732B602ED115
:103A2000FEF712FF06462B68990122D4D4E907322B
