:020000040800F2
:10000000B0080020F51E0008CD1E0008CF1E000815
:10001000D11E0008D31E0008D51E000800000000F5
:10002000000000000000000000000000D71E0008D3
:10003000D91E000800000000DB1E0008DD1E0008BD
:100040001D1F0008211F0008251F0008291F000888
:100050002D1F0008311F0008351F0008391F000838
:100060003D1F0008411F0008451F0008491F0008E8
:100070004D1F0008511F0008551F0008591F000898
:100080005D1F0008611F0008651F0008691F000848
:100090006D1F0008711F0008751F0008791F0008F8
:1000A0007D1F0008811F0008851F0008891F0008A8
:1000B0008D1F0008911F0008951F0008991F000858
:1000C0009D1F0008A11F0008A51F0008A91F000808
:1000D000AD1F0008B11F0008B51F0008B91F0008B8
:1000E000BD1F0008C11F0008C51F0008C91F000868
:1000F000CD1F0008D11F0008D51F0008D91F000818
:10010000DD1F0008E11F0008E51F0008E91F0008C7
:10011000ED1F0008F11F0008F51F0008F91F000877
:10012000FD1F000801200008052000080920000824
:100130000D200008112000081520000819200008D3
:100140001D20000821200008252000082920000883
:100150002D20000831200008352000083920000833
:100160003D200008412000084520000849200008E3
:100170004D20000851200008552000085920000893
:100180005D20000861200008652000086920000843
:100190006D200008712000087520000879200008F3
:1001A0007D200008812000088520000889200008A3
:1001B0008D20000891200008952000089920000853
:1001C0009D200008A12000087CB50400012600F055
:1001D000FBFB0500002C01D101205AE0206A4028D9
:1001E00094F84000012801D1022052E0012084F857
:1001F000400094F8410000280AD1002084F8400013
:10020000200000F0E0FB41F28831200000F0B4FA59
:100210002068006830F4F850A168491E50EA0120B7
:1002200021680860A06C00902B0000222021200093
:1002300000F0A4FA0100C9B2002926D121680A6899
:1002400014490A40616852EA0162E1680A43E169BF
:100250000A43216A0A4321680A6021684A680E49F4
:100260000A40216952EA014261690A43A1690A43CD
:1002700021684A602168096851F001012268116013
:1002800000216164012184F84110002184F84010AC
:10029000C0B276BD2FFFFF00FEF8E0FF10B50400EE
:1002A000002C01D101201AE094F84000012801D16E
:1002B000022014E0012084F8400020680068400813
:1002C000400021680860200000F084FB002060648A
:1002D000002084F84100002084F84000002010BD78
:1002E0002DE9F84304000D0016005FF0010800F04E
:1002F0006BFB0700A8690028E8690028286A002825
:1003000094F84000012801D102203DE0012084F84A
:10031000400094F8410001282FD1002060640220A1
:1003200084F8410000963B0000222021200000F0CC
:1003300025FA81464846C0B2002820D10022290073
:10034000200000F044FA686A002812D100963B00B1
:1003500001220221200000F011FA81464846C0B275
:1003600000280CD102202168C860012084F84100D7
:1003700005E0012084F8410001E05FF0020900205F
:1003800084F840004846C0B2BDE8F2832DE9F84346
:1003900005000C001600002700F016FB80462868B8
:1003A00010F1200995F84000012801D102205EE0FB
:1003B000012085F8400095F84100012850D1002027
:1003C0006864002C45D0122085F841002868006937
:1003D000401CE86228680069401CA8626C622868BA
:1003E000406930F0406029684861E86A002815D00B
:1003F0000096434601220421280000F0BFF90700BF
:100400003800C0B2002809D1686A411C69620078CE
:1004100089F80000E86A401EE862E6E73800C0B2EA
:10042000002812D10096434601220221280000F044
:10043000A5F907003800C0B2002806D102202968BB
:10044000C860280000F04CF90700012085F8410041
:1004500008E0686C50F0080068640120070001E0C3
:1004600002200700002085F840003800C0B2BDE837
:10047000F2832DE9FC4705000C001600002700F070
:10048000A3FA80462868D0F81890286810F1200A4E
:1004900095F84000012801D1022063E0012085F891
:1004A000400095F84100012855D100206864002CD7
:1004B0004AD0222085F8410028680069401CA863C2
:1004C00028680069401C68632C632868406930F024
:1004D000406050F08060296848612868C0F8189032
:1004E000A86B002815D0009643460122062128005B
:1004F00000F044F907003800C0B2002809D1286B89
:10050000411C29639AF800100170A86B401EA86373
:10051000E6E73800C0B2002812D100964346012217
:100520000221280000F02AF907003800C0B2002894
:1005300006D102202968C860280000F0D1F8070021
:10054000012085F8410008E0686C50F008006864FC
:100550000120070001E002200700002085F840008C
:100560003800C0B2BDE8F6872DE9FC4704000D0055
:1005700016001F005FF0010800F026FA8146A86906
:100580000028E8690028286A002894F8400001281B
:1005900001D102204CE0012084F8400094F8410091
:1005A00001283ED100206064422084F84100009779
:1005B0004B4600222021200000F0E0F88246504601
:1005C000C0B200282FD13068216888627068216825
:1005D0004862B0682168C8622068016831F440014F
:1005E0003069014351F4800120680160F068A8621D
:1005F0005FF000622900200000F0E9F800974B4608
:1006000001220821200000F0B9F882465046C0B20D
:10061000002808D108202168C860012084F8410022
:1006200001E05FF0020A002084F840005046C0B2AA
:10063000BDE8F6872DE9F84304000D0016005FF0D1
:10064000010800F0C1F90700A8690028E86900283E
:10065000286A002894F84000012801D102203DE0DA
:10066000012084F8400094F8410001282FD1002097
:100670006064822084F84100A06C00903B0000225E
:100680002021200000F07AF881464846C0B20028B8
:100690001FD12068016831F00801706801432068AB
:1006A0000160706808280BD1306821680863102049
:1006B0002168C8602068006850F4801021680860D4
:1006C0005FF040622900200000F081F801E05FF057
:1006D0000209002084F840004846C0B2BDE8F28319
:1006E0007CB50400002500F06FF9060094F8410085
:1006F00080073ED5002084F840002068006840074D
:1007000011D52068006830F0040021680860E06BB3
:1007100000F07EF905002800C0B2002803D0606C0C
:1007200050F0040060642068006850F00200216806
:100730000860A06C0090330001220221200000F02C
:100740001DF805002800C0B200280BD10220216846
:10075000C860A06C0090330000222021200000F02F
:100760000DF805002800C0B2002802D1012084F84D
:1007700041002800C0B276BD816470472DE9F04188
:1007800005000E0090461F00069C286880683042D5
:1007900001D0012000E000204146C0B2C9B2884229
:1007A00012D014F1010FF0D0002C04D000F00CF99D
:1007B000C01B8442E9D2042085F84100686C50F0E7
:1007C00001006864012000E00020BDE8F08110B461
:1007D0004B6A002B06D0B2F1406F03D08B6A5B1ED0
:1007E000046823618B69002B79D00B6A002B3ED003
:1007F0008B680468E361CB69002B20D0CC6A0B6B5B
:100800001C434B6B1C434B6A1C434B6954EA8344A7
:100810000B691C430B6A1C43CB681C43CB691C430C
:100820008B691C430B681C43144303685C61B2F181
:10083000406F00F0C6804B680468A361C1E0CC6AD9
:100840000B6B1C434B6B1C434B6A1C434B6954EAB8
:1008500083440B691C430B6A1C43CB691C438B69A3
:100860001C430B681C43144303685C61A9E0CB691B
:10087000002B1ED0CC6A0B6B1C434B6B1C434B6A8A
:100880001C434B6954EA83440B6A1C43CB681C43EA
:10089000CB691C438B691C430B681C4314430368DE
:1008A0005C61B2F1406F00F08C804B680468A3611A
:1008B00087E0CC6A0B6B1C434B6B1C434B6A1C439D
:1008C0004B6954EA83440B6A1C43CB691C438B6914
:1008D0001C430B681C43144303685C6171E00B6AA2
:1008E000002B39D08B680468E361CB69002B1DD0E5
:1008F000CC6A0B6B1C434B6B1C434B6A1C434B6910
:1009000054EA83440B691C430B6A1C43CB681C43A9
:10091000CB691C438B691C43144303685C61B2F1CF
:10092000406F4ED04B680468A3614AE0CC6A0B6B01
:100930001C434B6B1C434B6A1C434B6954EA834476
:100940000B691C430B6A1C43CB691C438B691C431A
:10095000144303685C6134E0CB69002B1BD0CC6A84
:100960000B6B1C434B6B1C434B6A1C434B6954EA97
:1009700083440B6A1C43CB681C43CB691C438B69C3
:100980001C43144303685C61B2F1406F19D04B689B
:100990000468A36115E04B6A002B12D0CC6A0B6B84
:1009A0001C434B6B1C434B6A1C434B6954EA834406
:1009B0000B6A1C43CB691C438B691C4314430368BB
:1009C0005C6110BC7047704701480068704700BF09
:1009D000AC000020704730B4002513E050F8042B21
:1009E000D30744BFA9F101039A18091F042942F84B
:1009F000045BFAD213468C0744BF15809B1CC907C1
:100A000048BF1D7050F8041B0029E7D130BC704767
:100A100070B50400A56DFFF7D7FF060094F8350008
:100A2000022806D080206065002084F83400012070
:100A30003BE02068006830F01600216808602068FC
:100A4000406930F0800021684861206C002802D1A4
:100A5000A06C002805D02068006830F008002168EC
:100A6000086020680068400840002168086020682D
:100A70000068C0070ED5FFF7A7FF801B0628F6D336
:100A800020206065002084F83400032084F83500BD
:100A900003200AE03F21E06D8140A960002084F836
:100AA0003400012084F83500002070BD2DE9FC41A0
:100AB00004000026002C01D10120D8E12078C007D5
:100AC0006DD5DFF89405016811F00C01042909D0F7
:100AD000006810F00C0008280ED1DFF880050068CF
:100AE000400209D5DFF86C050068800357D56068BF
:100AF000002854D10120BAE16068B0F5803F06D1EA
:100B0000DFF85005016851F48031016026E060682B
:100B100000280AD1DFF83C05016831F4803101601A
:100B2000016831F48021016018E06068B0F5A02F01
:100B30000AD1DFF82005016851F4802101600168C5
:100B400051F48031016009E0DFF80805016831F4F3
:100B500080310160016831F4802101606068002803
:100B60000ED0FFF731FF0500DFF8E80400688003CE
:100B700015D4FFF729FF401B6528F5D3032076E144
:100B8000FFF722FF0500DFF8CC040068800306D5DC
:100B9000FFF71AFF401B6528F5D3032067E1207893
:100BA000800752D5DFF8B004016811F00C0F09D0AE
:100BB000006810F00C00082816D1DFF8A0040068C7
:100BC000400211D4DFF88C040168890704D5E1687C
:100BD000012901D001204AE1016831F0F8012269C0
:100BE00051EAC201016030E0E06800281AD0DFF865
:100BF0006474386850F001003860FFF7E5FE0500C6
:100C00003868800706D4FFF7DFFE401B0328F7D3C0
:100C100003202CE1386830F0F800216950EAC10067
:100C2000386012E0DFF82C74386840084000386003
:100C3000FFF7CAFE05003868800706D5FFF7C4FE37
:100C4000401B0328F7D3032011E12078000728D5A3
:100C50006069002812D0DFF80874386850F001008D
:100C60003860FFF7B1FE05003868800719D4FFF738
:100C7000ABFE401B0328F7D30320F8E0DFF8E07356
:100C80003868400840003860FFF79EFE050038686D
:100C9000800706D5FFF798FE401B0328F7D30320F3
:100CA000E5E02078400740F18780DFF8C0733868BE
:100CB000C0000AD4386850F080503860386810F0AE
:100CC00080500090009801200600DFF8A483D8F837
:100CD0000000C00513D4D8F8000050F48070C8F8A4
:100CE0000000FFF771FE0500D8F80000C00506D42B
:100CF000FFF76AFE401B6528F6D30320B7E0A06823
:100D0000012806D1DFF86C03016851F00101016090
:100D100025E0A06800280AD1DFF8580301684908D7
:100D200049000160016831F00401016017E0A0682A
:100D300005280AD1DFF83C03016851F00401016085
:100D4000016851F00101016009E0DFF82803016842
:100D5000490849000160016831F004010160A068A0
:100D6000002810D0FFF730FE0500DFF80803006808
:100D7000800719D4FFF728FE401B41F289318842D1
:100D8000F3D3032073E0FFF71FFE0500DFF8E40252
:100D90000068800708D5FFF717FE401B41F2893134
:100DA0008842F3D3032062E03000C0B2012803D1AF
:100DB000386830F080503860A069002856D0DFF8DD
:100DC0009802006810F00C0008284DD0A069022895
:100DD00037D1DFF88072386830F080703860FFF704
:100DE000F3FD80463868800107D5FFF7EDFDB0EBD5
:100DF00008000328F6D3032039E0E169206A0143A3
:100E0000606A51EA8011A06A4008401E51EA004120
:100E1000E06A51EA006151F00051DFF840020160E0
:100E2000386850F080703860FFF7CEFD05003868F4
:100E300080011BD4FFF7C8FD401B0328F7D3032014
:100E400015E0DFF81072386830F080703860FFF716
:100E5000BBFD05003868800108D5FFF7B5FD401BD4
:100E60000328F7D3032002E0012000E00020BDE8C2
:100E7000F6812DE9F04104000D000026002C01D17F
:100E800001209FE0DFF8F071386810F00F00A842F1
:100E90000BD238680009000128433860386810F028
:100EA0000F00A84201D001208CE02078800719D5DE
:100EB0002078400705D5DFF8A001016851F4E05122
:100EC00001602078000705D5DFF88C01016851F436
:100ED00060410160DFF880110A6832F0F002A0681A
:100EE00002430A602078C00737D56068012806D120
:100EF000DFF860010068800311D4012062E06068BF
:100F0000022806D1DFF84C010068800107D40120D7
:100F100058E050480068800701D4012052E0DFF813
:100F20003881D8F800108908890060680143C8F842
:100F30000010FFF749FD0600D8F8000010F00C0083
:100F40006168B0EB810F08D0FFF73EFD801B41F2D6
:100F500089318842F0D3032034E0386810F00F0064
:100F600085420BD238680009000128433860386890
:100F700010F00F00A84201D0012023E020784007A4
:100F800006D535490A6832F4E052E06802430A6047
:100F90002078000707D53048016831F460412269A4
:100FA00051EAC201016000F00FF834492A4A126880
:100FB000C2F30312895CC8402B4908600F2000F07F
:100FC00061F80020BDE8F0812DE9F0410024002502
:100FD000002600272048006810F00C00002804D0EC
:100FE000042804D0082804D031E01E4830E024480A
:100FF0002EE0DFF86880D8F8000010F03F00040011
:10100000D8F8000040020CD5D8F80000C0F38810D2
:101010001B49A1FB00012200002300F059F8050044
:101020000BE0D8F80000C0F388100E49A1FB0001C6
:101030002200002300F04CF80500D8F80000C0F3AF
:101040000140401C40000600B5FBF6F000E00548FA
:10105000BDE8F08100380240083802400438024000
:10106000743802400024F40004000020403802409C
:101070000070004070380240003C0240E41E00084E
:1010800040787D0110B504004FF47A700D4909785D
:10109000B0FBF1F00C490968B1FBF0F000F0B0F9D9
:1010A000002801D001200CE0102C09D200222100E0
:1010B0005FF0FF3000F08FF904480460002000E08A
:1010C000012010BD080000200400002000000020C6
:1010D000BBBBE1B1B2F5803F80F07E80022A1ED911
:1010E0008C46B1FBF2F102FB11C31B0443EA10432F
:1010F000B3FBF2FC02FB1C3380B240EA0343B3FBB8
:10110000F2F002FB103240EA0C4000237047022A42
:1011100005D98446B0FBF2F002FB10C270474AB119
:1011200005D100F0010249085FEA30007047002253
:101130000023704700F078B90B0002000021002066
:101140007047904271EB030CF6D3B3F5803F2FD27A
:10115000F0B5B3FA83F7B1FA81F4A7F10F0E3D1B96
:101160005340CEF1200602FA0EF2F3415340B5F19E
:101170000F0746D80F3C2C444140C4F12006A04044
:10118000F1414140B1FBF3F603FB1611A2FB06450A
:10119000001BA94102D2761E8018594180EA010243
:1011A00021FA0EF362FA0EF200215A403046F0BDE9
:1011B00030B4B1FBF3FC03FB1C11A2FB0C45001B7C
:1011C000A94103D2ACF1010C8018594130BC024650
:1011D0000B46604600217047B2F1807F65D3F0B5C1
:1011E000B2FA82F7B1FA81F4C7F10F063D1B22FA79
:1011F00006F307F1110EF24120355A40B5F10F0701
:10120000B8D94140C4F12006A040F1414140B1FBB2
:10121000F3FC03FB1C11A2FB0C45001BA94103D2EC
:10122000BCF1010C801859410F2F12D30F3FC90395
:1012300041EA5041B1FBF3F603FB1611A2FB064550
:10124000D4EBC030A94102D2761E8018594146EA3B
:10125000CC3C07B34140C7F12006B840F1414140C2
:10126000B1FBF3F603FB1611A2FB0645001BA941D7
:1012700002D2761E8018594180EA010221FA0EF34B
:10128000C7F1200462FA0EF20CFA07F05A402CFA69
:1012900004F13043F0BD80EA010221FA0EF300218F
:1012A00062FA0EF260465A40F0BD8C46B1FBF2F194
:1012B00002FB11C31B0243EA1063B3FBF2FC02FB07
:1012C0001C331B024CEA002043EA1063B3FBF2FC20
:1012D00002FB1C331B024CEA002043EA1063B3FB01
:1012E000F2FC02FB1C331B024CEA002043EA1063B1
:1012F000B3FBF2FC02FB1C324CEA002000237047D7
:1013000010B410F00703DFF8044122684FF6FF0124
:101310000A40DFF8FC1051EA03210A43226010BCA6
:101320007047DFF8E8000068C0F30220704710B48F
:10133000020052B2002A05D40A01364B040064B2FE
:101340001A5508E00A01344B040064B214F00F048B
:10135000234403F8042C10BC704770B4030013F04E
:101360000704D4F10700052801D3042001E0D4F1DB
:101370000700251D072D01D2002500E0E51E0126EE
:1013800016FA00F0401E0140A94016FA05F56D1E40
:101390002A401143080070BC704710B50400601E5D
:1013A000B0F1807F01D301200EE0601E1B49086070
:1013B0000F215FF0FF30FFF7BAFF002018490860E7
:1013C000072018490860002010BD10B50400200057
:1013D000FFF796FF10BD2DE9F04104000D00160047
:1013E0000027FFF79EFF8046320029004046FFF7A6
:1013F000B4FF0100200040B2FFF799FFBDE8F08183
:1014000010B504002000FFF7C8FF10BD0CED00E090
:101410000000FA0500E400E018ED00E014E000E050
:1014200018E000E010E000E07047000010B5CC4C80
:10143000CC4820602000FEF731FF002801D00120B9
:1014400055E000F095F9C8480021C1610021016212
:1014500000214162002141610021C162002101633C
:10146000002141634FF40051C160C0480021016177
:101470000121C160102181605FF480014161012080
:1014800060600420A0601020E0608020B0FA80F04E
:10149000401E20614FF4A06060610020A061002028
:1014A000E061002020622000FEF78EFE002801D0BF
:1014B00001201CE0200000F01BF8002801D00120D2
:1014C00015E0200000F0ACF8002801D001200EE06B
:1014D000200000F04DF8002801D0012007E0200096
:1014E00000F028F8002801D0012000E0002010BD05
:1014F00070B504009C4D4FF48070A8616620286090
:101500000020686241F28836320029002000FEF790
:10151000E7FE002801D001200BE09920286032006E
:1015200029002000FEF7DCFE002801D0012000E0A9
:10153000002070BD1CB504008B494FF440708861D9
:10154000EB2008604FF44060C8615FF04070486273
:101550000A20486100200190002000906A46200087
:10156000FFF768F8002801D0012000E0002016BD38
:1015700030B58FB004004FF4807007908520019043
:1015800000200890002009905FF080700A900020F1
:10159000069001200B9000200C9000200D90002060
:1015A0000E9041F288352A0001A92000FEF798FE2E
:1015B000002801D0012031E02A0069462000FEF712
:1015C00058FF002801D0012028E0200000F09EF8FC
:1015D000002801D0012021E0812001909DF8001019
:1015E00011F00F010A225FF07060B0FA80F08240C3
:1015F00011438DF800102A0001A92000FEF770FEAB
:10160000002801D0012009E02A0069462000FEF7E9
:10161000BDFE002801D0012000E000200FB030BD49
:10162000F0B595B004004FF4807007900020099049
:101630000020069000200C9000200D9000200E90BD
:1016400010201190002013905FF48000149065200A
:101650000190002008905FF080750A9501200B90A2
:101660003F4E41F288373A0001A93000FEF738FEBC
:10167000002801D0012047E03A0069463000FEF71B
:10168000F8FE002801D001203EE006200190002055
:101690000A903A0001A93000FEF722FE002801D08E
:1016A000012031E002200F900220109001201290C2
:1016B000052001900A953B000FAA01A93000FEF712
:1016C00053FF002801D001201EE06120019001207D
:1016D0000B909DF8000010F03F0050F040008DF896
:1016E00000003A0001A93000FEF7FAFD002801D001
:1016F000012009E03A0069463000FEF747FE002865
:1017000001D0012000E0002015B0F0BD70B504004C
:10171000154D4FF44070A8610620286000206862D3
:1017200041F28836320029002000FEF7D9FD00285A
:1017300001D0012013E00D4A022010600220506009
:10174000052028605FF040706862330029002000A7
:10175000FEF70AFF002801D0012000E0002070BD44
:101760000C000020001000A0580000209000002075
:1017700010B586B03648016851F00201016000687A
:1017800010F00200059005983248016851F00201FE
:101790000160016831F0020101602F48016851F0D9
:1017A00002010160016811F00201059105990168CB
:1017B00051F008010160016811F0080105910599D7
:1017C000016851F010010160006810F010000590F0
:1017D0000598402000900A200490022001900120EA
:1017E0000290022003901D4C6946200000F03CF856
:1017F00004200090092004900020029069462000F7
:1018000000F032F84FF40060009009200490144C6E
:101810006946200000F028F84FF48050009009201D
:1018200004906946200000F01FF804200090092071
:10183000049069460B4800F017F84FF400500090F0
:10184000092004906946200000F00EF806B010BD93
:101850003838024018380240303802400004024054
:10186000000C0240001002402DE9F8410022002344
:10187000002400260025102D80F00B81012717FA87
:1018800005F213000A681A4014009C4240F0FF80E1
:101890004A68022A02D04A68122A1FD12A00D208B6
:1018A00000EB8202D2F820C05FF00F0E15F00702A5
:1018B000D2B292001EFA02FE3CEA0E0CD1F810E001
:1018C00015F00702D2B292001EFA02FE5EEA0C0C7C
:1018D00066462A00D20800EB82021662D0F800C0E9
:1018E0005FF0030E2A00D2B252001EFA02F23CEA66
:1018F000020C91F8048018F003082A00D2B25200BA
:1019000018FA02F858EA0C0CC0F800C04A68012A1C
:1019100008D04A68022A05D04A68112A02D04A68CB
:10192000122A1BD186682A00D2B252001EFA02F295
:101930009643D1F80C802A00D2B2520018FA02F86D
:1019400058EA060686604268AF40BA434F68C7F35C
:101950000017AF403A439446C0F804C0C6682A0056
:10196000D2B252001EFA02FE36EA0E068F682A0034
:10197000D2B2520097403E43C6604A68D20040F15E
:101980008680DFF81421176857F4804717601268C3
:1019900012F480420092009ADFF800C12A009208F7
:1019A0005CF822705FF00F0E15F00302D2B29200C5
:1019B0001EFA02FE37EA0E07DFF8E420904201D15A
:1019C000002631E0DFF8DC20904201D101262BE037
:1019D000DFF8D420904201D1022625E0DFF8CC20A8
:1019E000904201D103261FE0DFF8C420904201D1CC
:1019F000042619E02F4A904201D1052614E02E4A10
:101A0000904201D106260FE02C4A904201D10726D0
:101A10000AE02B4A904201D1082605E0294A90426B
:101A200001D1092600E00A26F6B215F00302D2B26F
:101A30009200964037432A0092084CF82270224EBA
:101A40003268A243D1F804C05FEACC3C00D52243FF
:101A500032601E4F3E68A643D1F804C05FEA8C3C5A
:101A600000D526433E601A4F3A68A243D1F804C01D
:101A70005FEACC2C00D522433A60164F3E68A6435D
:101A8000D1F804C05FEA8C2C00D526433E606D1C63
:101A9000F1E6BDE8F1810000443802400838014019
:101AA000000002400004024000080240000C024016
:101AB000001002400014024000180240001C0240C6
:101AC0000020024000240240003C0140043C014050
:101AD000083C01400C3C0140BFF34F8FBFF36F8FB8
:101AE000002049490860BFF34F8FBFF36F8F47480D
:101AF000016851F400310160BFF34F8FBFF36F8F66
:101B00007047BFF34F8FBFF36F8F4048016831F4C8
:101B10000031016000203C490860BFF34F8FBFF3E4
:101B20006F8F704710B4002039490860BFF34F8FA2
:101B300038480168C1F34E32C1F3C900030043F6CF
:101B4000E07010EA421050EA8370334C20601800B5
:101B5000431E0028F3D11000421E0028ECD1BFF331
:101B60004F8F2A48046854F480340460BFF34F8FC9
:101B7000BFF36F8F10BC704710B400202449086079
:101B8000BFF34F8F2148016831F480310160BFF30A
:101B90004F8F20480168C1F34E32C1F3C9000300E2
:101BA00043F6E07010EA421050EA83701B4C20604C
:101BB0001800431E0028F3D11000421E0028ECD16B
:101BC000BFF34F8FBFF36F8F10BC704780B500F02D
:101BD00072F800F07DF800F030F800F027F80028E7
:101BE00001D000F029F800F06CF800200C490860E2
:101BF0000C480D49096801605FF01041096881F3E4
:101C0000088800688047FEE750EF00E014ED00E030
:101C100084ED00E080ED00E060EF00E074EF00E0B4
:101C200010E000E0A80000200400009010B500249F
:101C3000FFF7FCFB204310BDFEE730B591B0002458
:101C4000012005905FF48030069002200B905FF435
:101C500080000C9019200D904FF4D8700E90022047
:101C60000F900820109005A8FEF720FF050028001F
:101C7000C0B2002800D0FEE700F03EF804002000CB
:101C8000C0B2002800D0FEE70F2000900220019093
:101C9000002002904FF4A05003904FF48050049025
:101CA00006216846FFF7E5F80100C9B2002900D017
:101CB000FEE711B030BD80B5FFF70EFFFFF732FF32
:101CC00001BD80B5FFF71DFFFFF756FF01BD000006
:101CD00080B50748016851F4807101600320FFF767
:101CE00074FB0F20FFF7CEF900F004F8002002BDCE
:101CF000003C0240704700007CB500241B4801688E
:101D000051F080510160006810F080500090009800
:101D1000154E306850F480303060FEF755FE0500F7
:101D2000104C2068C00308D4FEF74EFE401B40F262
:101D3000E9318842F4D3032013E0306850F40030D6
:101D40003060FEF741FE06002068800308D4FEF7ED
:101D50003BFE801B40F2E9318842F5D3032000E0CE
:101D6000002076BD04700040007000404038024002
:101D70000F48016851F4700101600E49086850F085
:101D80000100086000200C4A10600A680B480240FD
:101D90000A600B480B4A1060086830F48020086025
:101DA0000020094908605FF000600849086070473A
:101DB00088ED00E00038024008380240FFFFF6FEE0
:101DC00010300024043802400C38024008ED00E0D6
:101DD00030B450F8041B79B10268436802440830FB
:101DE000DC0744BFA9F10104E31852F8045B43F88F
:101DF000045B091FF9D1ECE730BC704710B5074907
:101E000079441831064C7C44163404E00A68081DF5
:101E1000114488470146A142F8D110BD2C000000B2
:101E20004C0000004EF68851CEF20001086840F4E4
:101E300070000860BFF34F8FBFF36F8F4FF00070DB
:101E4000E1EE100A704700008FEBFFFFA4000000D6
:101E50000C0000200000000079FFFFFF0C000000D4
:101E6000B0000000000000200000000000F00DF8AD
:101E7000002801D0FFF7C2FFAFF300800020AFF3CE
:101E80000080FFF7A3FE00F002F80120704700F089
:101E900001B800000746384600F002F8FBE70000F2
:101EA00080B5AFF30080024A11001820ABBEFBE7FB
:101EB0002600020003480168034A1278891801606D
:101EC000704700BFAC000020080000207047FEE70C
:101ED000FEE7FEE7FEE770477047704780B5FFF703
:101EE000E9FF01BD00000000000000000102030442
:101EF000060708090148804701480047711D00088E
:101F0000051F0008AFF30080FFF78CFFFFF7AEFF5F
:101F1000100000000024F40001000000FFF7FEBFE5
:101F2000FFF7FEBFFFF7FEBFFFF7FEBFFFF7FEBFE5
:101F3000FFF7FEBFFFF7FEBFFFF7FEBFFFF7FEBFD5
:101F4000FFF7FEBFFFF7FEBFFFF7FEBFFFF7FEBFC5
:101F5000FFF7FEBFFFF7FEBFFFF7FEBFFFF7FEBFB5
:101F6000FFF7FEBFFFF7FEBFFFF7FEBFFFF7FEBFA5
:101F7000FFF7FEBFFFF7FEBFFFF7FEBFFFF7FEBF95
:101F8000FFF7FEBFFFF7FEBFFFF7FEBFFFF7FEBF85
:101F9000FFF7FEBFFFF7FEBFFFF7FEBFFFF7FEBF75
:101FA000FFF7FEBFFFF7FEBFFFF7FEBFFFF7FEBF65
:101FB000FFF7FEBFFFF7FEBFFFF7FEBFFFF7FEBF55
:101FC000FFF7FEBFFFF7FEBFFFF7FEBFFFF7FEBF45
:101FD000FFF7FEBFFFF7FEBFFFF7FEBFFFF7FEBF35
:101FE000FFF7FEBFFFF7FEBFFFF7FEBFFFF7FEBF25
:101FF000FFF7FEBFFFF7FEBFFFF7FEBFFFF7FEBF15
:10200000FFF7FEBFFFF7FEBFFFF7FEBFFFF7FEBF04
:10201000FFF7FEBFFFF7FEBFFFF7FEBFFFF7FEBFF4
:10202000FFF7FEBFFFF7FEBFFFF7FEBFFFF7FEBFE4
:10203000FFF7FEBFFFF7FEBFFFF7FEBFFFF7FEBFD4
:10204000FFF7FEBFFFF7FEBFFFF7FEBFFFF7FEBFC4
:10205000FFF7FEBFFFF7FEBFFFF7FEBFFFF7FEBFB4
:10206000FFF7FEBFFFF7FEBFFFF7FEBFFFF7FEBFA4
:10207000FFF7FEBFFFF7FEBFFFF7FEBFFFF7FEBF94
:10208000FFF7FEBFFFF7FEBFFFF7FEBFFFF7FEBF84
:10209000FFF7FEBFFFF7FEBFFFF7FEBFFFF7FEBF74
:0420A000FFF7FEBF89
:0200000490006A
:1000000000000520798B009055300090573000900B
:10001000593000905B3000905D300090000000008F
:10002000000000000000000000000000917F009030
:100030005F300090000000003180009095800090BB
:10004000C98B0090C98B0090C98B0090C98B009020
:10005000C98B0090C98B0090C98B0090C98B009010
:10006000C98B0090C98B0090C98B0090C98B009000
:10007000C98B0090C98B0090C98B0090C98B0090F0
:10008000C98B0090C98B0090C98B0090C98B0090E0
:10009000C98B0090C98B0090C98B0090C98B0090D0
:1000A000C98B0090C98B0090C98B0090C98B0090C0
:1000B000C98B0090C98B0090C98B0090C98B0090B0
:1000C000C98B0090C98B0090C98B0090C98B0090A0
:1000D000C98B0090C98B0090C98B0090C98B009090
:1000E000C98B0090C98B0090C98B0090C98B009080
:1000F000C98B0090C98B0090C98B0090C98B009070
:10010000C98B0090C98B0090C98B0090C98B00905F
:10011000C98B0090C98B009061300090C98B009012
:10012000C98B0090C98B0090C98B0090C98B00903F
:10013000C98B0090C98B0090C98B0090C98B00902F
:10014000C98B0090C98B0090C98B0090C98B00901F
:10015000C98B0090C98B0090C98B0090C98B00900F
:10016000C98B0090C98B0090C98B0090C98B0090FF
:10017000C98B0090C98B0090C98B0090C98B0090EF
:10018000C98B0090C98B0090C98B0090C98B0090DF
:10019000C98B0090C98B0090C98B0090C98B0090CF
:1001A0006D300090C98B009079300090C98B009021
:1001B000C98B0090C98B0090C98B0090C98B0090AF
:0801C000C98B0090C98B00906F
:1001D00010B5054C237833B9044B13B10448AFF381
:1001E00000800123237010BD2401002000000000C6
:1001F000F4EB019008B5034B1BB103490348AFF37F
:10020000008008BD0000000028010020F4EB0190F0
:1002100081F0004102E000BF83F0004330B54FEAB7
:1002200041044FEA430594EA050F08BF90EA020F24
:100230001FBF54EA000C55EA020C7FEA645C7FEAB7
:10024000655C00F0E2804FEA5454D4EB5555B8BFDA
:100250006D420CDD2C4480EA020281EA030382EA4B
:10026000000083EA010180EA020281EA0303362DDD
:1002700088BF30BD11F0004F4FEA01314FF4801CB0
:100280004CEA113102D0404261EB410113F0004FC2
:100290004FEA03334CEA133302D0524263EB430379
:1002A00094EA050F00F0A780A4F10104D5F1200E17
:1002B0000DDB02FA0EFC22FA05F2801841F1000172
:1002C00003FA0EF2801843FA05F359410EE0A5F146
:1002D00020050EF1200E012A03FA0EFC28BF4CF077
:1002E000020C43FA05F3C01851EBE37101F000452D
:1002F00007D54FF0000EDCF1000C7EEB00006EEB3A
:100300000101B1F5801F1BD3B1F5001F0CD34908C3
:100310005FEA30004FEA3C0C04F101044FEA44521A
:1003200012F5800F80F09A80BCF1004F08BF5FEAA1
:10033000500C50F1000041EB045141EA050130BD81
:100340005FEA4C0C404141EB010111F4801FA4F124
:100350000104E9D191F0000F04BF01460020B1FA79
:1003600081F308BF2033A3F10B03B3F120020CDAB1
:100370000C3208DD02F1140CC2F10C0201FA0CF08F
:1003800021FA02F10CE002F11402D8BFC2F1200CF4
:1003900001FA02F120FA0CFCDCBF41EA0C019040AA
:1003A000E41AA2BF01EB0451294330BD6FEA0404F3
:1003B0001F3C1CDA0C340EDC04F11404C4F12002DE
:1003C00020FA04F001FA02F340EA030021FA04F3F0
:1003D00045EA030130BDC4F10C04C4F1200220FA47
:1003E00002F001FA04F340EA0300294630BD21FA85
:1003F00004F0294630BD94F0000F83F4801306BF4B
:1004000081F480110134013D4EE77FEA645C18BF3E
:100410007FEA655C29D094EA050F08BF90EA020FD5
:1004200005D054EA000C04BF1946104630BD91EACD
:10043000030F1EBF0021002030BD5FEA545C05D1D0
:100440004000494128BF41F0004130BD14F580040F
:100450003CBF01F5801130BD01F0004545F0FE4183
:1004600041F470014FF0000030BD7FEA645C1ABFB8
:10047000194610467FEA655C1CBF0B46024650EAEF
:10048000013406BF52EA033591EA030F41F400211B
:1004900030BD00BF90F0000F04BF0021704730B5A1
:1004A0004FF4806404F132044FF000054FF0000176
:1004B00050E700BF90F0000F04BF0021704730B537
:1004C0004FF4806404F1320410F0004548BF40420C
:1004D0004FF000013EE700BF42004FEAE2014FEA61
:1004E00031014FEA02701FBF12F07F4393F07F4F3C
:1004F00081F06051704732F07F4208BF704793F03F
:100500007F4F04BF41F40021704730B54FF4607451
:1005100001F0004521F000411CE700BF50EA010254
:1005200008BF704730B54FF000050AE050EA0102FD
:1005300008BF704730B511F0004502D5404261EB6D
:1005400041014FF4806404F132045FEA915C3FF4AE
:10055000D8AE4FF003025FEADC0C18BF03325FEA4B
:10056000DC0C18BF033202EBDC02C2F1200300FAFC
:1005700003FC20FA02F001FA03FE40EA0E0021FA21
:1005800002F11444BDE600BF70B54FF0FF0C4CF40F
:10059000E06C1CEA11541DBF1CEA135594EA0C0FC1
:1005A00095EA0C0F00F0DEF82C4481EA030621EAFC
:1005B0004C5123EA4C5350EA013518BF52EA033537
:1005C00041F4801143F4801338D0A0FB02CE4FF0E9
:1005D0000005E1FB02E506F00042E0FB03E54FF019
:1005E0000006E1FB03569CF0000F18BF4EF0010E11
:1005F000A4F1FF04B6F5007F64F5407404D25FEA0D
:100600004E0E6D4146EB060642EAC62141EA5551BF
:100610004FEAC52040EA5E504FEACE2EB4F1FD0C01
:1006200088BFBCF5E06F1ED8BEF1004F08BF5FEA7F
:10063000500E50F1000041EB045170BD06F0004631
:1006400046EA010140EA020081EA0301B4EB5C04DE
:10065000C2BFD4EB0C0541EA045170BD41F48011D6
:100660004FF0000E013C00F3AB8014F1360FDEBFFB
:10067000002001F0004170BDC4F10004203C35DAD7
:100680000C341BDC04F11404C4F1200500FA05F35A
:1006900020FA04F001FA05F240EA020001F00042FB
:1006A00021F0004110EBD37021FA04F642EB060171
:1006B0005EEA430E08BF20EAD37070BDC4F10C049B
:1006C000C4F1200500FA04F320FA05F001FA04F25F
:1006D00040EA020001F0004110EBD37041F100014B
:1006E0005EEA430E08BF20EAD37070BDC4F1200556
:1006F00000FA05F24EEA020E20FA04F301FA05F2BE
:1007000043EA020321FA04F001F0004121FA04F265
:1007100020EA020000EBD3705EEA430E08BF20EA35
:10072000D37070BD94F0000F0FD101F0004640006F
:1007300041EB010111F4801F08BF013CF7D041EAF1
:10074000060195F0000F18BF704703F000465200F5
:1007500043EB030313F4801F08BF013DF7D043EAC6
:100760000603704794EA0C0F0CEA135518BF95EA7C
:100770000C0F0CD050EA410618BF52EA4306D1D103
:1007800081EA030101F000414FF0000070BD50EA22
:10079000410606BF1046194652EA430619D094EAAC
:1007A0000C0F02D150EA013613D195EA0C0F05D196
:1007B00052EA03361CBF104619460AD181EA0301EA
:1007C00001F0004141F0FE4141F470014FF00000A2
:1007D00070BD41F0FE4141F4780170BD70B54FF03D
:1007E000FF0C4CF4E06C1CEA11541DBF1CEA1355BD
:1007F00094EA0C0F95EA0C0F00F0A7F8A4EB05049F
:1008000081EA030E52EA03354FEA013100F0888095
:100810004FEA03334FF0805545EA131343EA12635E
:100820004FEA022245EA111545EA10654FEA002613
:100830000EF000419D4208BF964244F1FD0404F5CC
:10084000407402D25B084FEA3202B61A65EB030528
:100850005B084FEA32024FF480104FF4002CB6EBE5
:10086000020E75EB030E22BFB61A754640EA0C0065
:100870005B084FEA3202B6EB020E75EB030E22BFA5
:10088000B61A754640EA5C005B084FEA3202B6EBE6
:10089000020E75EB030E22BFB61A754640EA9C00A5
:1008A0005B084FEA3202B6EB020E75EB030E22BF75
:1008B000B61A754640EADC0055EA060E18D04FEA33
:1008C000051545EA16754FEA06164FEAC30343EAD3
:1008D00052734FEAC2025FEA1C1CC0D111F4801FA0
:1008E0000BD141EA00014FF000004FF0004CB6E799
:1008F00011F4801F04BF01430020B4F1FD0C88BF38
:10090000BCF5E06F3FF6AFAEB5EB030C04BFB6EB42
:10091000020C5FEA500C50F1000041EB045170BD35
:100920000EF0004E4EEA113114EB5C04C2BFD4EB62
:100930000C0541EA045170BD41F480114FF0000EE6
:10094000013C90E645EA060E8DE60CEA135594EA62
:100950000C0F08BF95EA0C0F3FF43BAF94EA0C0F65
:100960000AD150EA01347FF434AF95EA0C0F7FF4DA
:1009700025AF104619462CE795EA0C0F06D152EA2E
:1009800003353FF4FDAE1046194622E750EA410612
:1009900018BF52EA43067FF4C5AE50EA41047FF423
:1009A0000DAF52EA43057FF4EBAE12E74FEA410286
:1009B00012F5001215D211D56FF47873B3EB6252B1
:1009C00012D94FEAC12343F0004343EA505311F0D8
:1009D000004F23FA02F018BF404270474FF000006A
:1009E000704750EA013005D111F0004008BF6FF0A8
:1009F000004070474FF00000704700BF53B94AB93C
:100A0000002908BF00281CBF4FF0FF314FF0FF3016
:100A100000F072B9ADF1080C6DE904CE00F006F8F3
:100A2000DDF804E0DDE9022304B070472DE9F0476A
:100A3000089E04468846002B4BD18A42154667D94A
:100A4000B2FA82F24AB1C2F1200701FA02F320FAA7
:100A500007F7954047EA030894404FEA154E230CE8
:100A6000B8FBFEF71FFA85FC0EFB178843EA084324
:100A700007FB0CF1994209D9EB1807F1FF3080F020
:100A80001B81994240F21881023F2B445B1AA4B2A9
:100A9000B3FBFEF00EFB103344EA034400FB0CFCF6
:100AA000A44509D92C1900F1FF3380F00781A44532
:100AB00040F2048102382C4440EA0740A4EB0C04C5
:100AC00000271EB1D4400023C6E900433946BDE8E3
:100AD000F0878B4209D9002E00F0EB800027C6E991
:100AE000000138463946BDE8F087B3FA83F7002F96
:100AF00047D18B4202D3824200F2FA80841A61EB22
:100B0000030301209846002EE0D0C6E90048DDE747
:100B100002B9FFDEB2FA82F2002A40F08F80491B50
:100B20004FEA154E1FFA85F80127B1FBFEFC230C96
:100B30000EFB1C1143EA014308FB0CF1994207D953
:100B4000EB180CF1FF3002D2994200F2CD808446BE
:100B5000591AA3B2B1FBFEF00EFB101443EA044491
:100B600008FB00F8A04507D92C1900F1FF3302D289
:100B7000A04500F2B6801846A4EB080440EA0C40F9
:100B80009FE7C7F1200CBB4022FA0CFE4EEA030E91
:100B900001FA07F420FA0CF521FA0CF34FEA1E488B
:100BA0002543B3FBF8F92C0C08FB19331FFA8EFA16
:100BB00044EA034309FB0AF49C4202FA07F200FAF2
:100BC00007F10BD91EEB030309F1FF3080F087809A
:100BD0009C4240F28480A9F1020973441B1BADB210
:100BE000B3FBF8F008FB103345EA034400FB0AFAB4
:100BF000A24508D91EEB040400F1FF336BD2A245D5
:100C000069D90238744440EA0940A0FB0289A4EB88
:100C10000A044C45C2464B4654D351D0002E69D0ED
:100C2000B1EB0A0564EB030404FA0CFCFD40FC4044
:100C30004CEA0505C6E90054002747E7C2F1200346
:100C400020FA03F7954001FA02F021FA03F34FEA84
:100C5000154E3843010CB3FBFEF71FFA85F80EFB67
:100C6000173341EA034107FB08F38B4204FA02F40D
:100C700007D9691807F1FF3C2FD28B422DD9023FCB
:100C80002944CB1A81B2B3FBFEF00EFB103341EACC
:100C9000034100FB08F38B4207D9691800F1FF3CC0
:100CA00017D28B4215D902382944C91A40EA07479E
:100CB0003BE73746304609E70746E7E61846FBE6D6
:100CC0004145ABD2B8EB020A69EB0E02013813467C
:100CD000A4E76046E9E7184695E76746D1E781460D
:100CE0007CE702382C4447E7ACF1020C2B442FE799
:100CF000384608E73746E9E6704700BF00000000C5
:100D000001F0FF01102A2BDB10F0070F08D010F8BC
:100D1000013B013A8B422DD010F0070F42B3F6D1C0
:100D2000F0B441EA012141EA014122F007047FF0D9
:100D300000070023F0E80256083C85EA010586EA30
:100D4000010685FA47F5A3FA87F586FA47F6A5FA6C
:100D500087F68EB9EED1F0BC01F0FF0102F0070278
:100D600032B110F8013B013A83EA010313B1F8D123
:100D70000020704701387047002D06BF3546033804
:100D8000073815F0010F07D1013015F4807F02BF3D
:100D9000013015F4C03F0130F0BC0138704700BF8E
:100DA000704770477047704700F0A4B810B504460C
:100DB0004FF40F711CF05AF8204610BD10B50446D0
:100DC00000F010F9014B2046236010BD54EC019057
:100DD000704704387047704710B5044610211CF066
:100DE00045F8204610BDA0F10400F5E70022C160DF
:100DF0008260044A10B502F10804203204604260A7
:100E000010BD00BF80EC0190002202607047704767
:100E1000704700F596730868496803C370477047C8
:100E200000F0D8B910B504464FF4AC711CF01EF8B0
:100E3000204610BD10B50446D0F85401FFF7E7FF77
:100E40002046BDE810400AF02DBC10B50446D0F88D
:100E50003C0158B10368DB68984738B1D4F83C01CD
:100E600003689B6898470023C4F83C3110BD00001C
:100E700010B5044600F07AF9014B2046236010BDFE
:100E8000B0EC019090F8252012B103685B69184717
:100E900070470020704781807047C1807047018192
:100EA000704741817047704770477047704770477F
:100EB000C388D21A8388C91A036812B209B210B45F
:100EC0005DF8044B5B6D18474FF6FF7383814FF05D
:100ED000FF3303621368C361106070477047704747
:100EE000704790F825201AB190F8242002B11860BC
:100EF00070477047704710B504464FF40F711BF0F0
:100F0000B5FF204610BD000038B5D0F838120446B1
:100F100001310A29C0F8381220D1154804F09CFC90
:100F2000E8B9134804F0EDFCFFF7B4FA0022114BC6
:100F3000FFF72AFB0CA3D3E90023FFF74FFCFFF7D1
:100F400035FD05460A4804F009FC0A22294604F149
:100F5000980007F0D0FE0023C4F8383238BD0025D1
:100F6000F3E700BFAFF300800000000000FEAF40D9
:100F7000FC2401200000594070B503680446154662
:100F80001B6B98472368294620465B6BBDE8704081
:100F9000184770B50368044615469B6B984723684D
:100FA00029462046DB6BBDE870401847012100222E
:100FB00080F825100A4982800160FF21C2800281E9
:100FC00042818281C28102824282C2610284428461
:100FD00080F8242080F826108262C0E9052270473C
:100FE00008FC01902DE9F043054685B000260BF082
:100FF000CBFF2F463A4B05F16C0805F19804EE63E0
:101000004FF07F4947F8403B3846FFF7CFFF404657
:10101000FFF7CCFF204609F001FAC5F838623246E6
:1010200031463846FFF7A8FF38464FF488724FF430
:10103000F071FFF7AEFF324631464046C5F8689082
:10104000FFF79AFF4FF4887240464FF4F071FFF7B4
:10105000A0FF04A92046C5F8949021F8046D07F07C
:101060003EFF20460B227321FFF786FFFB2220461E
:101070001146FFF78EFF7D222046114609F079FACE
:1010800020465A226FF0590109F0FCFA33460096C7
:1010900064223146204607F0D3FD204632212E1D22
:1010A00009F096FA37230B222046012109F04CFA69
:1010B0002046012109F0EAF92046012109F0E9F969
:1010C0003946304607F078FF4146304607F074FF56
:1010D0003046214607F070FF284605B0BDE8F08392
:1010E000FCEC019070477047704741607047704753
:1010F0000123037270477047704710B4C4680346F9
:1011000041686210E4079B6801EB020048BF8A58FF
:101110005DF8044B48BFD358184743682BB1836828
:101120002BB9C06800F001007047184670470120D5
:10113000704710B504460C211BF098FE204610BDE8
:1011400010B504464FF4AC711BF090FE204610BD64
:1011500010B5044610211BF089FE204610BD08B5CD
:101160000AF0F2FBBDE808400AF0D0BF70B50446B3
:101170000D4616460AF046FC124A0021C4F85451A6
:101180001460114D114AC4F838112260104A2868C1
:10119000C4F83C11C4F84021C4F84411C4F8481103
:1011A000C4F84C11C4F850610268926890472B68EB
:1011B00093F876200AB1D86C00B9986812F025F837
:1011C000204670BD682301201C23012048ED0190BA
:1011D00030ED0190064BC0F84401C0F848310023BF
:1011E000C0F84C3100F5A073C0F83C31704700BF27
:1011F000351300902DE9F0470746906899468846D8
:1012000003681546DDF820A01B6A9847B0F50F7FEC
:1012100005D2424BA321424A42481CF00DFD6868AA
:1012200003681B6A98470F2803D83F4BA4213C4A08
:10123000F2E7E86803681B6A98470B2803D83B4B22
:10124000A521374AE8E70AF07FFB0AF0BEFBD9F890
:10125000000010B10368DB689847D9F8000010B1AE
:1012600003681B689847386810B103685B69984742
:10127000D8F8000010B103685B689847386810B16F
:1012800003681B689847D8F8000010B103689B6892
:101290009847E868002103685B6A9847044620B1D4
:1012A000002343600372224B0360A8680021036897
:1012B0005B6A9847064608B1FFF780FD6868002121
:1012C00003685B6A9847054610B13146FFF78EFD0B
:1012D000C9F80040C8F800503E60E5B12B1DCAF8BF
:1012E00000303046C5F808A03368F563DB689847DE
:1012F0002B6828461B689847214630460BF0F0FFC4
:10130000236820461B699847236820465B699847F5
:101310002846BDE8F0872B46E1E700BFB0ED01901D
:10132000C5EF01903EEE01907FEE019022EF01901B
:1013300094ED019007B5D0F8543100F59C710093FD
:10134000044BD0F850210448FFF754FF03B05DF878
:1013500004FB00BF5C2301205823012013B50022A9
:1013600049B102AB019203F8052D0268946801AA05
:10137000A04702B010BD0846FBE74089704780894E
:1013800070478088704783798088184480B270479E
:10139000C07900F07F007047C079C0097047006ACB
:1013A0007047406A704770478B888069DB0A0A681B
:1013B00050F823001044704710B5C2B1137BB3B18D
:1013C000547BD27A240204F4E0641443C26998B2D4
:1013D00002EB840213888B4202D192F9020010BD05
:1013E00005D80138043280B20028F3D1F7E7002095
:1013F000F5E710B5044628211BF038FD204610BD46
:1014000030B589B00446BDF850500695BDF84C5033
:1014100005959DF8405004959DF83C5003959DF826
:10142000385002959DF8345001959DF83050009544
:101430000BF00CFB064B20462360119BA361129B13
:10144000E361159B2362169B636209B030BD00BF48
:10145000D8F0019030B5164D8DB02C78BFF35B8F6E
:1014600014F0010420D128461BF0D7FCE0B13F2343
:10147000012210490793104B089406930F4B0394D5
:1014800000940F48CDE904430423CDE90944CDE994
:1014900001320A23FFF7B4FF28461BF0CAFC094AB1
:1014A000094907481BF0DDFC05480DB030BD00BF01
:1014B0004001002060011090480902904409029008
:1014C0004401002000000020A713009030B5164D05
:1014D0008DB02C78BFF35B8F14F0010420D1284627
:1014E0001BF09BFCE0B13F23012210490793104BF6
:1014F000089406930F4B039400940F48CDE90443DE
:101500000423CDE90944CDE901322823FFF778FF10
:1015100028461BF08EFC094A094907481BF0A1FC2C
:1015200005480DB030BD00BF6C010020880110904F
:101530004009029050090290700100200000002034
:10154000A713009030B5164D8DB02C78BFF35B8F8C
:1015500014F0010420D128461BF05FFCE0B13F23CA
:10156000012210490793104B089406930F4B0394E4
:1015700000940F48CDE904430423CDE90944CDE9A3
:1015800001321423FFF73CFF28461BF052FC094AA6
:10159000094907481BF065FC05480DB030BD00BF88
:1015A00098010020980110904C0902905409029073
:1015B0009C01002000000020A7130090704710B588
:1015C000044604211BF052FC204610BD012908B539
:1015D00008D003D3022909D0002002E000F012F85D
:1015E000006808BD00F00EF84068FAE700F00AF85D
:1015F0008068F6E7004870473CF101900220704790
:101600000020704700487047C401002010B5054C09
:10161000FFF798FF2060FFF759FF6060FFF71AFFA0
:10162000A06010BDC401002000207047002070475A
:101630000EB403B503AB002153F8042B01930BF058
:1016400035F802B05DF804EB03B070470CB407B591
:1016500004AB53F8042B01930BF028F803B05DF8AA
:1016600004EB02B07047000010B5436C044673B33E
:10167000038F2BB9184BC021184A19481CF0DCFA0B
:10168000C38E00EB43035B8C0BB30CF021FB238F69
:10169000012B03D8134BC521134AEEE7E28E40F627
:1016A0003F10531C9BB2092B194688BFA3F10A01B6
:1016B00004EB4101498C814209D10A2B04EB42021F
:1016C00028BF0023508C04EB4303588451842046E8
:1016D000BDE810400CF0FEB964F1019091F2019068
:1016E0006DF10190B1F10190BFF101900CF0BBB927
:1016F00038B5D8B9114B12481B681249BBB11A68EA
:101700009C681A441C4402605A681A440A606CB10E
:101710000D4B00221A80FFF775FF0546FFF770FF9B
:101720000A4B1C600A4B1D600A4B188038BD0A4BDF
:1017300003600A4B0B600A4B1C68E8E7D0010020ED
:10174000D4010020D8010020DC0100206C230120FE
:101750007423012070230120B4011090A80110907F
:10176000B0011090012380F8741080F87530704734
:101770000020704741640031024B18BF01211970ED
:10178000704700BF1B23012000207047836B0BB103
:101790000846184770474FF6FF7070474068036867
:1017A0009B691847134A0023F0B5C2F88430BFF391
:1017B0004F8FD2F8803043F6E076C3F3C904C3F309
:1017C0004E33A5075B0103EA060C284621464CEA86
:1017D0000007013900F14040C2F874724F1CF6D185
:1017E000203B13F1200FEED1BFF34F8FBFF36F8F6C
:1017F000F0BD00BF00ED00E0034B902283F85A23B8
:1018000083F85823704700BF00E100E0094A0A4905
:10181000D3680A48C3F30A03013B9BB20B801169EA
:10182000C1F30A01013901801364536B43F00103D2
:101830005363704700680140E2010020E00100208E
:10184000014B986A704700BF84680140024B012237
:10185000996243F8602C704784680140034B5B69D0
:10186000DB0301D5FFF79EBF704700BF00ED00E02E
:1018700070B5044607F093FE23685D6E0AF064F8C5
:1018800001462046A84723682046054AD3F88850D9
:101890004FF040410023AC46BDE87040604700BFB8
:1018A00000FC03C010B531B90A4B40F2D2210A4AFC
:1018B0000A481CF0C1F9C0E90F120032084918BFEC
:1018C00001220A7019460268BDE81040D2F88C2047
:1018D000104700BF9FF3019059F40190D7F3019096
:1018E0001A23012008B5094B1B888B4203D8084BEB
:1018F0001B88934205D9074B9E21074A07481CF0D5
:101900009BF9074B1980074B1A8008BD1023012053
:10191000122301203CF3019016F40190D7F30190BB
:10192000162301201823012007F020BE90F84B3029
:1019300013B1024B01221A7007F024BEDE01002011
:1019400008B507F0DDFD044B5B69DB0303D5BDE89B
:101950000840FFF727BF08BD00ED00E007F02BBFF0
:1019600010B5044608F05EFB23682046D3F8AC307F
:10197000BDE81040184790F877301BB14068036805
:101980001B6818471846704710B590F8744090F8D7
:1019900034100C4B8C421A7809D03AB90A490B4AD8
:1019A00008881488108001220C801A7010BD002A4B
:1019B000FCD0064A0449148808880C801080002254
:1019C000F3E700BF1423012012230120102301207C
:1019D000034B4FF080629A604FF080729A607047BC
:1019E00000E100E0084B4FF08062C3F88820BFF3AD
:1019F0004F8FBFF36F8F4FF08072C3F88820BFF313
:101A00004F8FBFF36F8F704700E100E010B5144CAB
:101A1000236823B3134B144A1B6C11888B4213D1D8
:101A2000124B198802F0F8F8226892F866300133F8
:101A300082F8663000F002FA206808F0F3FA00201D
:101A4000BDE8104000F084BC02F0E6F820680368AE
:101A50001B6A98470020BDE8104000F0A9BC10BDEB
:101A60001C23012000680140E2010020E001002069
:101A700003685B6C18470120704703689B6A18472E
:101A80000D4B82B01A6B42F400021A631A6B02F417
:101A900000020192019A1A6942F400021A611A695D
:101AA00022F400021A61054B054A1A614FF0806268
:101AB000044B9A6002B0704700380240CC250120E8
:101AC000D11A009000E100E040F2EF3070470000D2
:101AD000024B1B68586803685B6918471C23012088
:101AE00008B50B280BD8DFE800F01206100A0A0A26
:101AF0000A0808080808012008BD0520FCE7054B76
:101B00006621054A05481CF097F80020F4E70220FA
:101B1000F2E700BFC1F4019092F50190DCF401906E
:101B200008B50A2809D8DFE800F010060E080808F2
:101B3000080606060600012008BD054B8721054A58
:101B400005481CF079F80020F6E70220F4E700BF12
:101B5000C1F40190DCF50190DCF40190F8B50C467D
:101B6000487FFFF7BDFF0546A77F3846FFF7B8FF60
:101B700006463846FFF7D4FFA38A628BD21A494B38
:101B80001A64A18A628B521A9A61A18A228B521A14
:101B90001A615863A18AE28A42EA01425A642269C0
:101BA000DA636268DA602268402A70D010D8042AAA
:101BB0003BD0202A6BD0237F45EA0365394B45F49F
:101BC0000035DD61617FA27F914267D0364A4BE0EC
:101BD000B2F5807F1BD0B2F5007F23D0802AEAD1F6
:101BE000A068021DDA62227F45EA026545F40035ED
:101BF000DD615E6222695A610278EAB1012A35D05C
:101C00002A4B40F211112A4A2A481CF015F8217F6C
:101C1000294A42EA0162DA61E2681A625E62226976
:101C20005A6120E0217F254AF3E7227F45EA0265D9
:101C300045F40035DD61F1E7D9694288501E21F491
:101C40007F42012122F0100242EA0022DA61154BA4
:101C5000DA6942F02002DA61DA699206FCD41022D5
:101C60009A600029B2D0164A1A60F8BDDA69408835
:101C700022F47F42217F013822F01002FF3942F026
:101C8000100218BF012142EA0022DA61DFE7237F58
:101C900045EA0365034B45F40035CBE740F20122EA
:101CA000E2E700BF00B0024001020100A7F401908A
:101CB00054F50190DCF401900A00020009000200D2
:101CC0000102020010B5887F0C46FFF729FF1C4B6C
:101CD0005863A18AE28A42EA01425A642269DA63BD
:101CE000628BA18A521A1A642268082A16D1A18A24
:101CF000628B521A9A61A18A628B521A1A615862D7
:101D0000104A217F42EA0162DA61E2681A622269BE
:101D10005A612269DA600C4A1A6010BD0022D8614B
:101D20001A61E1680A0A4809C1F3C40102F4784261
:101D300000F4FC6002430A439A63044AECE700BFE4
:101D400000B002400900010001020200010203008C
:101D5000054B4FF080620360044BC3F88820BFF34B
:101D60004F8FBFF36F8F70470CF5019000E100E0DB
:101D700010B50446FFF7ECFF4FF45A6120461BF004
:101D800075F8204610BD000070B505460A4B0C30B2
:101D900000262C46602268602E726E7244F8203B4A
:101DA000214608F0ADFA05F55A63E6602434A342F3
:101DB000FBD1284670BD00BF0CF501900121002227
:101DC00008B5084605F0F2FD0A4B186028B90A4B21
:101DD00028210A4A0A481BF02FFF00220421012073
:101DE00005F0AEFE074B186018B9074B2C21034ACB
:101DF000F0E708BDE801002027F60190DBF601902E
:101E000070F60190E401002099F60190024B4FF02A
:101E1000FF31186805F020BEE8010020014B18686A
:101E200005F056BEE8010020024B0021186805F0BD
:101E300013BE00BFE8010020FFF7F0BF00230348F6
:101E400003491A46006805F0C1BE00BFE401002046
:101E50000400002013B50023074C01A91A4620688E
:101E600005F0F6FE4FF0FF33002201A9206805F0CF
:101E7000EFFE02B010BD00BFE401002070477047C4
:101E80007047012070470C2070470C2303FB0100B2
:101E9000083070470C2303FB010008307047012015
:101EA00070474FF40F7070474FF40F7303FB01003E
:101EB000083070474FF40F7303FB01000830704780
:101EC000012070471020704700EB01100830704768
:101ED00000EB0110083070470846FFF77BB900009F
:101EE000034B10B50446036006F092FE204610BD79
:101EF0007CF7019010B50446FFF7F2FF142120464D
:101F00001AF0B4FF204610BD034B10B50446036021
:101F100006F07EFE204610BD48F7019010B504463D
:101F2000FFF7F2FF4FF4117120461AF09FFF204691
:101F300010BD0000034B10B50446036006F068FEB8
:101F4000204610BD14F7019010B50446FFF7F2FFCC
:101F5000182120461AF08AFF204610BD084B10B504
:101F60000446036000F51C70FFF7BAFF04F12C0073
:101F7000FFF7CAFF04F11400FFF7DCFF204610BD95
:101F8000B0F7019010B50446FFF7E8FF4FF4787101
:101F900020461AF06BFF204610BD00002DE9F341EA
:101FA000FFF728FB00240546FFF728FB23460146E0
:101FB0002246284600940CF05FF9274B274A20461A
:101FC000274D1A60FFF794FB26480CF0BDF82B78DC
:101FD000BFF35B8FDB0738D428461AF01EFF0028BA
:101FE00033D0214C214B04F5227604F1140004F186
:101FF0002C0804F51C776060C4F80880E76026614F
:10200000236006F007FE1A4B4046636106F002FEAD
:10201000184B3846E36206F0FDFD174B04F52170BE
:10202000C4F87032FEF7F0FE224604F52171304606
:10203000FEF71EFF3046FFF7CDF828461AF0F9FEEE
:102040000E4A0F4920461AF00CFF0E4802B0BDE8B8
:10205000F04100F0D5B800BF78230120F013002034
:10206000EC01002008000020F0010020B0F70190F2
:1020700014F7019048F701907CF7019000000020D0
:102080005D1F009074130020014800F0DBB800BF12
:102090007413002010B5044604211AF0E7FE204610
:1020A00010BD10B5044678211AF0E0FE204610BDA0
:1020B00010B504467C211AF0D9FE204610BD000060
:1020C000F8B53A4C3A4D3B4B22463B4F28463B49EC
:1020D0002B601AF0C6FE3A4E3846FFF755FE2246F0
:1020E000384938461AF0BDFE30460FF0A7FA2246AE
:1020F000354930461AF0B5FE2246344934481AF0C4
:10210000B0FE3448002301223349C560038580F8BE
:102110002A30C362038680F8483080F8492080F86E
:102120004A3080F84B30416680F8683080F869307A
:1021300080F86A3080F86B302849C0E90176C0E940
:102140000433C0E90633C0E90833C0E90E33C0E9FF
:102150001033C0E91333C0E91533C0E9173380F8F1
:102160006C3080F8772080F878201D4A0367106073
:102170004FF4F07280F874300A801A4980F8753094
:102180000A804FF48872184980F876300A8017491F
:1021900080F834300A80164A164913702246164BCE
:1021A0000360BDE8F8401AF05CBE00BF00000020EC
:1021B000D0050020E8F80190D40500207D1E009095
:1021C000F4130020511D00907F1E0090BD1500905B
:1021D00008000020741300200100000110230120DA
:1021E0001C23012016230120122301201823012083
:1021F00014230120811E0090C4F701907047000055
:1022000038B5044600F03EF92046FFF731FB23685D
:10221000094A4FF04041D3F888502046074BA84761
:102220000023074D84F84A30284600F071F9012355
:10223000256184F86C3038BD00FC03C000F807C08D
:102240006C14002008B503680446D3F88030984722
:10225000236820469B6F9847FFF7FCFD23682046C4
:102260001B6F98474FF48051064803F0B6F90821D8
:10227000054803F0B2F9FFF7EDFD236820461B6F18
:102280009847F8E70020024000280240FFF7D8BA3C
:10229000FFF7DCBAF8B5FFF753FB134A0023C2F887
:1022A0008430BFF34F8FD2F8803043F6E076C3F32B
:1022B000C904C3F34E33A5075B0103EA060C2846A5
:1022C00021464CEA0007013900F14040C2F874721F
:1022D0004F1CF6D1203B13F1200FEED1BFF34F8FEF
:1022E000BFF36F8FF8BD00BF00ED00E0FFF784BAC9
:1022F000FFF76EBBFFF776BBFFF788BA07F0FAB8B7
:1023000008B5054B01461B6800B10121184607F0CE
:10231000A3FE012008BD00BF1C23012010B5044608
:102320000C211AF0A3FD204610BD00000448002334
:10233000044A43608360044B044903601AF091BD72
:102340006C140020000000202CF90190FD21009069
:10235000032823D8DFE800F0020B131A104B1021DA
:1023600010481A68B2FA82F2520903F031B90C4BE4
:1023700040215A68B2FA82F252090B48F5E7084B3D
:1023800080219A68B2FA82F25209F6E7044B4021A2
:102390000648DA68B2FA82F25209E6E7704700BFEF
:1023A0007814002000040240000802400018024097
:1023B000032823D8DFE800F0020B131A104B10217A
:1023C00010481A68003218BF012203F001B90C4B03
:1023D00040215A68003218BF01220B48F5E7084B2C
:1023E00080219A68003218BF0122F6E7044B402191
:1023F0000648DA68003218BF0122E6E7704700BFDE
:102400007814002000040240000802400018024036
:1024100003280FD8DFE800F00206090B1021064858
:1024200003F0DBB840210548FAE78021FBE74021B3
:102430000348F5E7704700BF00040240000802406F
:102440000018024008B5032813D8DFE800F0020A9C
:102450000D0F1021084803F0B5F8431E58425841AB
:1024600008BD40210548F6E78021FBE740210448EC
:10247000F1E70020F1E700BF00040240000802403D
:102480000018024070B50024074D0126E0B2FFF7A6
:10249000D9FF28B155F82430012B18BF45F8246026
:1024A0000134052CF2D170BD7814002030B58DB008
:1024B0000D46144600212C2201A81BF032FC01A875
:1024C00006F080F99DF8040030B1BDF80630012017
:1024D0002B60BDF8103023600DB030BD08B54FF44F
:1024E00088714FF4F07006F015F928B1034B2021E4
:1024F000034A04481BF0A0FB08BD00BF94F80190FC
:10250000F8F80190B5F80190406870474160704755
:10251000094A136843F080731360A2F54E42074BDB
:102520004C3A11680B431360A2F57B62136843F0C9
:1025300001031360704700BFFCED00E055CEACC551
:10254000521A02EB5302B2FBF3F07047014B1868CA
:10255000704700BF041000E010B5036804461B6913
:1025600031B19847A26863689B1A1844606010BD37
:102570009847A060FBE7000014490020D1F888309C
:1025800043F47003C1F88830114B1A6842F001021D
:102590001A6098601A6822F0847222F480321A60FD
:1025A0000C4A5A601A6822F480221A60D8609A6B2A
:1025B00042F001029A634FF02042136823F00103B6
:1025C00013604FF010438B60704700BF00ED00E0D8
:1025D000003802401030002408B5642005F0CCF922
:1025E000FBE7000010B594B030220021022408A8B7
:1025F0001BF097FB1422002103A81BF092FB1F4B3A
:10260000012119201A6C42F080521A641B6C03F0ED
:1026100080530193019B1A4B1A6842F440421A609E
:102620001B6803F440430293029B4FF48033CDE9CF
:1026300008134FF48003CDE90E434FF4D873CDE96E
:10264000100308A8CDE9124401F0A4FB00B1FEE795
:1026500001F002FB00B1FEE70F234FF4A0520590FA
:10266000072103A8CDE903344FF48053CDE90623B5
:1026700001F072FD00B1FEE714B010BD0038024059
:102680000070004080B598B01022002101240BA8F2
:102690001C261BF046FB032502F028FD4FF0005CD2
:1026A000C04B0BA8ADF82C4040F20117CDE90CC38C
:1026B000BD4B0E9302F03CFD8DF82D404FF0404392
:1026C00000240BA80C938DF834608DF83740ADF8DA
:1026D0003A4002F02DFD02230BA88DF837508DF8FB
:1026E0002D301623ADF83A708DF8343002F020FD0D
:1026F0004FF010430BA88DF8346004260C938DF82E
:102700002D508DF83740ADF83A4002F011FD1723F7
:102710000BA88DF82D608DF834308DF83750ADF85A
:102720003A7002F005FD05230BA88DF838408DF8AE
:102730002D3013238DF8343002F0FAFC304602F0CD
:10274000E5FCBFF34F8FBFF36F8F984BC3F8504238
:10275000BFF34F8FBFF36F8F5A6942F400325A6153
:10276000BFF34F8FBFF36F8FC3F88440BFF34F8F1A
:10277000D3F8802043F6E076C2F3C904C2F34E32A8
:10278000A507520102EA060C2846214640EA0C073A
:10279000013900F14040C3F860724F1CF6D1203A75
:1027A00012F1200FEED1BFF34F8F5A6942F48032FD
:1027B0005A61BFF34F8FBFF36F8F00F063FC0024AB
:1027C000FFF710FF142200210BA81BF0AAFA784B88
:1027D000102178481A6B01264FF00308102542F0AB
:1027E000100240271A631A6B02F010020092009A3E
:1027F0001A6B42F002021A631A6B02F00202019293
:10280000019A1A6B42F040021A631A6B02F04002FE
:102810000292029A1A6B42F400721A631A6B02F463
:1028200000720392039A1A6B42F008021A631A6B41
:1028300002F008020492049A1A6B42F480621A634E
:102840001A6B02F480620592059A1A6B42F020021C
:102850001A631A6B02F020020692069A1A6B42F46F
:1028600080721A631A6B02F480720792079A1A6BCD
:1028700042F001021A631A6B02F001020892089AF0
:102880001A6B42F080021A631A6B02F080020992FE
:10289000099A1A6B42F004021A6300221B6B03F0C0
:1028A00004030A930A9B02F093FE00220821424887
:1028B00002F08EFE00224FF48051404802F088FE64
:1028C0000022C0213E4802F083FE002240213D4804
:1028D00002F07EFE0BA93748CDE90B56CDE90D4835
:1028E00002F0EEFC08230BA93348CDE90B36CDE905
:1028F0000D4402F0E5FC4FF480530BA92F48CDE9BD
:102900000B36CDE90D4402F0DBFCC0230BA92C48AB
:10291000CDE90B36CDE90D4802F0D2FC29480BA9D0
:10292000CDE90B76CDE90D4802F0CAFC2648274BCD
:10293000848003600662C0E9054400F087FF00B1AF
:10294000FEE7234C234BC4E90200C4E90030C4E98C
:102950000A00C4E90C00204600F0CAFB00B1FEE703
:102960003146204600F084FC00B1FEE71A4B0BA96B
:102970001A4A986098625F611195C3E900200422A9
:10298000C3E903258022C3E90800C3E906201846ED
:10299000CDE90B55CDE90D55CDE90F5501F094F971
:1029A000F0B1FEE7120000030100010100ED00E0BC
:1029B000003802400004024000280240002002408B
:1029C000000802400018024030240120003002407C
:1029D000CC25012000B002400C260120400100A0BF
:1029E00005F080FE05F030FE054600B1FEE734221A
:1029F00001460BA84D4C1BF094F94D4B282635276A
:102A000040F2152C40F2352E25612046A58684F82B
:102A10003650C4E900350923C4E905630B23C4E932
:102A2000077340F21B13C4E909C340F21D13C4E944
:102A30000255C4E90BE300F0E9FF024600B1FEE7EE
:102A40004FF4F0714FF488730B904FF48065169338
:102A5000ADF85C208DF85E20CDE90C100220CDE9A8
:102A60000E30FF20CDE910020520CDE91421CDE97B
:102A700012500BA9204601F0A6F800B1FEE72D4B3D
:102A80004FF4E1322C4918615862C3E900120C225C
:102A9000C3E90200C3E90520C3E90700184602F0B4
:102AA000C2F900B1FEE7102200210BA8234C1BF055
:102AB00038F9234A4FF4803301252046E5616561EA
:102AC000C4E9002300231F4AA3602361A36184F8A3
:102AD0002030E362A262E36084F8303002F086FDC9
:102AE00000B1FEE708230D900BA92046CDE90B3578
:102AF00002F00AFF054600B1FEE703F090F9204618
:102B000002F02CFE04F0A8FE0F4A29460F4804F0FC
:102B1000DDFE0F4B0F4A294618600F4804F0D6FE21
:102B20000E4B186004F0B2FEFEE700BF54240120F3
:102B3000006801404825012000100140FC240120CC
:102B4000002201400100000F88F90190D925009072
:102B50002C24012064F90190235E0090442501207B
:102B60000268034B9A4201D100F09EBA704700BF41
:102B700000100040FEE7000010B5014688B00022BA
:102B8000362002F05FFA362002F08EFA144B01A9CB
:102B900003A81A6C134C42F010021A641B6C03F069
:102BA00010030293029B01F099FB01F077FB0E4B9F
:102BB0004000236040F2E733E3600C4BB0FBF3F0DE
:102BC00001380023606020462361A36003F0D4F83D
:102BD00020B9204602F072FF08B010BD0120FBE7CB
:102BE00000380240402601200010004040420F0003
:102BF0000D4B82B00F216FF001001A6C42F0805231
:102C00001A641A6C02F080520092009A5A6C42F4D4
:102C100080425A6400225B6C03F480430193019B61
:102C200002B002F00FBA00BF0038024010B588B001
:102C300004461422002103A81BF073F82268114BEC
:102C40009A421CD103F58B3303A90F485A6C42F406
:102C500080625A645A6C02F480620192019A1A6B83
:102C600042F020021A634FF480621B6B03F02003D2
:102C70000293029B0323CDE9032302F021FB08B05A
:102C800010BD00BF0022014000140240026882B063
:102C9000084B9A420BD1D3F8302803F5006342F475
:102CA00080521A631B6B03F480530193019B02B0A3
:102CB000704700BF0030024007B50E4B02689A42D1
:102CC00015D1A3F5F04305215A201A6B42F40002F6
:102CD0001A6300221B6B03F400030193019B02F0B3
:102CE000B1F95A2003B05DF804EB02F0DDB903B08E
:102CF0005DF804FB00B0024070B5ACB0044614228D
:102D0000002106A81BF00DF8842200210BA81BF05F
:102D100008F82268464B9A4240F088800823052034
:102D20000B93642310930223CDE9113001230BA8E8
:102D3000159300F0E7FA08B1FFF71CFF3D4B0224A2
:102D400000250E265A6C06A93B4842F080625A6460
:102D50005A6C02F080620092009A1A6B42F01002E4
:102D60001A631A6B02F010020192019A1A6B42F474
:102D700000721A631A6B02F400720292029A1A6BC2
:102D800042F480621A631A6B02F480620392039A1F
:102D90001A6B42F040021A631A6B02F0400204926E
:102DA000049A1A6B42F480721A631B6B03F48073EB
:102DB0000593059B1023CDE90634CDE908540A9606
:102DC00002F07EFA4EF6FF7306A91C480A96CDE97A
:102DD0000634CDE9085402F073FAF72306A918481F
:102DE0000A96CDE90634CDE9085402F069FA4FF4A9
:102DF000805306A91348CDE906340923CDE90854C8
:102E00000A9302F05DFA4FF4464306A90E480A966B
:102E1000CDE90634CDE9085402F052FA58202A468A
:102E2000052102F00FF9582002F03EF92CB070BDD8
:102E300000680140003802400010024000240240B7
:102E4000002802400018024000200240F0B5ABB05C
:102E500004461422002104A81AF063FF84220021F2
:102E600009A81AF05EFF2268204B9A423CD1402309
:102E700009A8099300F046FA08B1FFF77BFE1C4B46
:102E80000227002603255A6C072404A9194842F09A
:102E900010025A645A6C02F010020192019A1A6BE5
:102EA00042F002021A631A6B02F002020292029AC4
:102EB0001A6B42F001021A631B6B089403F00103C2
:102EC0000393039B8023CDE90665CDE9043702F027
:102ED000F7F94FF4007304A907480894CDE90437C3
:102EE000CDE9066502F0ECF92BB0F0BD0010014011
:102EF000003802400004024000000240F0B587B0F4
:102F00001422002101A81AF00CFF2A4B1E68002E83
:102F10004ED10122022703250C241A6001A9264B59
:102F200026489A6B42F001029A639B6B03F00103FF
:102F30000093009B4FF68373CDE90454CDE901372C
:102F400002F0BEF948F2331301A91D480594CDE9FA
:102F50000137CDE9036502F0B3F94CF2037301A91F
:102F600018480594CDE90137CDE9036502F0A8F9C9
:102F70004FF63F0301A914480594CDE90137CDE987
:102F8000036502F09DF9242301A910480594CDE9B9
:102F90000137CDE9036502F093F904230C480DEBEA
:102FA00003010594CDE90137CDE9036502F088F905
:102FB00007B0F0BD8C140020003802400010024021
:102FC00000180240000C024000140240001C0240A5
:102FD0000008024008B5144B1A6822BB01224FF6C4
:102FE000837112481A60124A936B23F001039363B2
:102FF00002F04EFA48F233110E4802F049FA4CF250
:1030000003710D4802F044FA4FF63F010B4802F0FD
:103010003FFA24210A4802F03BFA04210948BDE89E
:10302000084002F035BA08BD8814002000100240A4
:103030000038024000180240000C02400014024018
:10304000001C0240000802400149002003F080BF3C
:10305000012300907047FEE7FEE7FEE7FEE77047BA
:10306000014802F06FBD00BF40260120014800F07A
:1030700049BD00BF54240120014800F069B800BFD9
:10308000CC250120074A032008B5136843F4807358
:10309000136001F0C5FF0020FFF76EFDFFF7A8FDEC
:1030A000002008BD003C0240034A044B11681B7815
:1030B0000B441360704700BF8C26012010000020D5
:1030C000014B1868704700BF8C26012038B50446B4
:1030D000FFF7F6FF0546631C1EBF044B1B78E41880
:1030E000FFF7EEFF401BA042FAD338BD10000020CE
:1030F00010B5044640B390F8393003F0FF021BB915
:1031000080F83820FFF7D8FD22680223616800208C
:1031100084F83930136823F440330B43136022687A
:10312000A168536B23F007030B4353632268E168E4
:10313000136C23F47F5323F03F030B4313640123E9
:10314000E06384F8393010BD0120FCE77047704718
:1031500070B5036804465E681D68F20715D5E90579
:1031600013D51A6822F480721A600122C36B43F0EF
:103170000103C36303689A60042380F83930002395
:1031800080F83830436903B19847B20617D5AB04CD
:1031900015D52268136823F4005313602022236896
:1031A0009A60E36B43F00203E363042384F839304D
:1031B000002384F8383063690BB120469847300704
:1031C00017D5290515D52268136823F40063136009
:1031D000082223689A60E36B43F00403E36304234B
:1031E00084F83930002384F8383063690BB1204605
:1031F000984772070CD56B050AD5226820461368DC
:1032000023F480631360042223689A60FFF79EFF13
:10321000B00715D5A90513D52268136823F40073E8
:103220001360022223689A60E36BE363012384F84E
:103230003930002384F8383023690BB12046984791
:10324000F20614D5EB0412D522682046136823F445
:1032500080531360102223689A60E36BE3630123B9
:1032600084F83930002384F83830FFF770FF70BDE0
:1032700070B590F83830012B4FF002032CD00122AA
:1032800080F839301E4E80F838200A018418D4E9BD
:10329000075345EA0343093D012D656A96BF05F0D2
:1032A0007F4543EA05632B430568B9B9696A314034
:1032B0000B436B62036882699A61C369093B012B06
:1032C00004D8436A026823F07F439362012380F8A5
:1032D0003930002380F83830184670BDE969314034
:1032E0000B43EB61831801689A690A61DB69093B4A
:1032F000012BEBD8636A026823F07F431362E5E792
:10330000F0FFFC002DE9F7430668044616F00106BD
:103310000CD0B34B9A6822F400029A609A68416B11
:103320000A439A60466BB6FA86F67609256815F464
:10333000002511D0AA4AE16BD2F88C3023F4401357
:103340000B43C2F88C30E56BB5F5801F13BFB5FA9F
:1033500085F5002501266D092368DF0210D5A04AF6
:10336000216CD2F88C3023F440030B43C2F88C302C
:10337000236CB3F5800F00F09B81002B08BF012563
:10338000236813F0807F18BF0126980632D5944B2E
:10339000944F1A6C42F080521A641B6C03F08053F5
:1033A0000193019B3B6843F480733B60FFF788FE09
:1033B00080463B68D90540F17D81894F3B6F13F40E
:1033C000407340F08281226B02F44073B3F5407F7A
:1033D000834B40F0A081996822F0704221F4F811EB
:1033E00022F440720A439A60226B196FC2F30B02F7
:1033F0000A431A672368D8060CD5794BD3F88C207A
:1034000022F08072C3F88C20D3F88C20A16B0A4381
:10341000C3F88C202368590408D5714A616ED2F82C
:10342000903023F440330B43C2F8903023681A04E1
:1034300008D56B4AA16ED2F8903023F440230B4399
:10344000C2F890302368DB0308D5654AE16ED2F8F4
:10345000903023F440130B43C2F8903023689F034D
:1034600008D55F4A216FD2F8903023F440030B4314
:10347000C2F890302368580608D5594A616CD2F8D2
:10348000903023F003030B43C2F8903023681906F1
:1034900008D5534AA16CD2F8903023F00C030B43AB
:1034A000C2F890302368DA0508D54D4AE16CD2F8AD
:1034B000903023F030030B43C2F8903023689B0513
:1034C00008D5474A216DD2F8903023F0C0030B4352
:1034D000C2F8903023685F0508D5414A616DD2F883
:1034E000903023F440730B43C2F8903023681805E2
:1034F00008D53B4AA16DD2F8903023F440630B43CA
:10350000C2F890302368D90408D5354AE16DD2F865
:10351000903023F440530B43C2F8903023689A0450
:1035200008D52F4A216ED2F8903023F440430B4344
:10353000C2F8903023685B0208D5294AA16FD2F8FF
:10354000903023F080630B43C2F8903023689F02D1
:103550000DD5234AE16FD2F8903023F000630B437E
:10356000C2F89030E36FB3F1006F08BF0125236804
:1035700013F0080F18BF0125580308D5184A616FCA
:10358000D2F8903023F040730B43C2F89030236898
:10359000190209D5124AD4F88010D2F8903023F0DD
:1035A00080530B43C2F89030012E00F0B88023689E
:1035B0009A0100F1B480012D78D1094D2B6823F0D8
:1035C00080532B60FFF77CFD06462B689F0000F1BF
:1035D0002D8123681D0307D5E26B4AB104E000BFCB
:1035E0000038024000700040D8021DD5236CDBB9C2
:1035F0009549D1F88830D1F8882003F4403302F09F
:10360000E0421343626943EA8213A26943EA026318
:10361000C1F88830D1F88C30A26A23F4F853013A0B
:1036200043EA0223C1F88C302368990215D5E36F71
:10363000B3F1006F11D1844AD2F88830D2F88810E3
:1036400003F0706301F0E0410B43616943EA8113C9
:10365000216A43EA0143C2F8883023681A0719D562
:103660007949D1F88820D1F8883002F0706203F4EB
:1036700040331343626943EA8213E26943EA027307
:10368000C1F88830D1F88C30E26A23F44033134318
:10369000C1F88C306C4C236843F080532360FFF7F3
:1036A0000FFD054623689B0040F1C780002009E01C
:1036B000012665E6FFF704FDA0EB080064287FF60D
:1036C00078AE032003B0BDE8F083226B02F44072B1
:1036D00093423FF478AE3B6F3A6F23F4407342F469
:1036E00080323A673A6F22F480323A673B673B6F29
:1036F000DA077FF568AEFFF7E3FC41F288398046D0
:103700003B6F9B073FF55FAEFFF7DAFCA0EB0800CD
:103710004845F5D9D5E79A6822F4F81263E64A4E8F
:10372000336823F080633360FFF7CAFC07463368D1
:103730001B0175D42368DF0712D5636B83B9D6F8F4
:103740008430D6F8842003F4403302F070621343CF
:10375000626843EA8213A26843EA0273C6F88430BF
:1037600023681E0303D5E26BB2F5801F05D0D80293
:103770001ED5236CB3F5800F1AD1334AD2F88430AA
:10378000D2F8841003F4403301F0E0410B43616848
:1037900043EA8113E16843EA0163C2F88430D2F856
:1037A0008C10636A21F01F01013B0B43C2F88C307F
:1037B0002368D90111D5244AD2F88430D2F8841074
:1037C00003F0706301F0E0410B43616843EA811349
:1037D000216943EA0143C2F8843023689A010DD578
:1037E000236962681B0443EA8213E26843EA0263C6
:1037F000A26843EA0273144AC2F88430124E336856
:1038000043F080633360FFF75BFC074633681B01BE
:103810003FF5D1AEFFF754FCC01B6428F6D950E742
:10382000FFF74EFCC01B642881D94AE7FFF748FC2C
:10383000801B64287FF6C9AE43E7FFF741FC401BBD
:1038400064287FF62FAF3CE70038024010B50446ED
:1038500008B9012010BD437F03F0FF0213B90277BE
:10386000FFF714FA022363772379FBB92368144A1C
:103870005A612268936823F0180393606279236881
:10388000E2B94FF0FF321A61002022686169936843
:1038900023F060030B4393602268A169936823F0CF
:1038A00080030B43936001236377D3E7D4E90212CB
:1038B000204602F091FA0028E0D0CAE72269E2E748
:1038C000B71DC104F0B5D20105684C68EB688432BD
:1038D000C3F30B4315441C446B6803F470436B60E3
:1038E00005680E68EB6815440136C3F30B43334497
:1038F00043EA04436B600568CC68EB68C3F30A03D2
:103900001C44AB189D6805F470459D6005688B6884
:10391000EE6815440133C6F30A06334443EA044310
:10392000AB600025036813441C6924F007041C6184
:1039300003680C6913441C61046891F832601444F4
:1039400091F83170D1F818C0A369A561046891F8A5
:103950003030144443EA0C6343EA072343EA064346
:10396000A361036813445C6924F0FF045C6103688D
:103970004C6913445C6104681444E36923F4E06314
:1039800023F00703E3610368D1E907461344344396
:10399000DC61036813449C6A9D6203684C6A1344AB
:1039A0009C620B6963B3012B2CD09C1E022C2BD97B
:1039B000072B14BF0124022403681344DD6A05F0B9
:1039C000E025DD6203689D18D1E900639B1B8E6AC8
:1039D00063437443033343EA0443EB6204681444CF
:1039E000236B23F4FF6323F0070323630368C96A8F
:1039F0001344196301688B5843F001038B50F0BDE9
:103A00000424D9E70324D7E70224D5E738B50446D0
:103A1000002870D090F8A13003F0FF021BB980F8A5
:103A2000A020FFF769F92268022384F8A130936986
